:100000000C943B060C9463060C9463060C94B90E96
:100010000C9463060C948A0E0C9463060C9463068D
:100020000C9463060C9463060C9463060C940B0CFE
:100030000C9463060C9463060C9463060C9463069C
:100040000C94E50D0C9463060C945E0E0C94630600
:100050000C9463060C94E70E0C9463060C946306F0
:100060000C9463060C946306C7142F159F1508168D
:10007000631663166316DF16DF16C917C917BA1899
:1000800020198419ED19DB24F72433256E25A925C1
:10009000AE25C625082622260E25132509250E2560
:1000A00013250E25132507634236B79BD8A71A39A7
:1000B000685618AEBAAB558C1D3CB7CC5763BD6DB6
:1000C000EDFD753EF6177231BF000000803F05A8B8
:1000D0004CCDB2D44EB93836A9020C50B9918688AD
:1000E000083CA6AAAA2ABE000000803F0664EC1BBA
:1000F0003C04BC163E3BE5B93CC93C37C29E5A3D68
:10010000660498083EEA69AAAA3E000000803F0003
:10011000000C1925313C47515A626A70757A7D7E10
:100120007F7E7D7A75706A625A51473C3125190C81
:1001300000F4E7DBCFC4B9AFA69E96908B8683828E
:10014000818283868B90969EA6AFB9C4CFDBE7F4FD
:10015000000810182028303840474F575F676F77E6
:100160007F776F675F574F47403830282018100857
:1001700000F8F0E8E0D8D0C8C0B9B1A9A199918938
:1001800081899199A1A9B1B9C0C8D0D8E0E8F0F8A7
:100190007F7B77736F6B67635F5B57534F4B47434F
:1001A000403C3834302C2824201C1814100C08042F
:1001B00000FCF8F4F0ECE8E4E0DCD8D4D0CCC8C41F
:1001C000C0BDB9B5B1ADA9A5A19D9995918D898500
:1001D00081818181818282828282828383838384FE
:1001E000848485858686878788898A8A8B8C8D8F8B
:1001F0009091939597999B9DA0A3A6A9ADB1B6BBED
:10020000C0C6CCD3DBE3ECF5000C18263545576BA4
:1002100000193046586670767876726C655F59566C
:100220005556595F656C7276787670665846301907
:1002300000E7D0BAA89A908A888A8E949BA1A7AA30
:10024000ABAAA7A19B948E8A888A909AA8BAD0E775
:100250007F7F7F7F81818181818181818181818196
:10026000818181818181818181818181818181817E
:10027000818181818181818181818181818181816E
:10028000818181818181818181818181818181815E
:100290007F7F7F7F7F7F7F7F7F7F7F7F7F7F7F7F6E
:1002A000818181818181818181818181818181813E
:1002B000818181818181818181818181818181812E
:1002C000818181818181818181818181818181811E
:1002D0007F7F7F7F7F7F7F7F7F7F7F7F7F7F7F7F2E
:1002E0007F7F7F7F7F7F7F7F7F7F7F7F7F7F7F7F1E
:1002F00081818181818181818181818181818181EE
:1003000081818181818181818181818181818181DD
:100310007F7F7F7F7F7F7F7F7F7F7F7F7F7F7F7FED
:100320007F7F7F7F7F7F7F7F7F7F7F7F7F7F7F7FDD
:100330007F7F7F7F7F7F7F7F7F7F7F7F7F7F7F7FCD
:10034000818181818181818181818181818181819D
:100350007F7F7F7F7F7F7F7F7F7F7F7F7F7F7F7FAD
:100360007F7F7F7F7F7F7F7F7F7F7F7F7F7F7F7F9D
:100370007F7F7F7F7F7F7F7F7F7F7F7F7F7F7F7F8D
:100380007F7F7F7F7F7F7F7F7F7F7F7F8181818175
:100390000004080C1014181C2024282C3034383C7D
:1003A0004043474B4F53575B5F63676B6F73777B7C
:1003B0007F7F7F7F7F7F7F7F7F7F7F7F7F7F7F7F4D
:1003C0007F7F7F7F7F7F7F7F7F7F7F7F7F7F7F7F3D
:1003D0007F7F7F7F7F7F7F7F7F7F7F7F7F7F7F7F2D
:1003E0007F7F7F7F7F7F7F7F7F7F7F7F7F7F7F7F1D
:1003F0007F7B77736F6B67635F5B57534F4B4743ED
:10040000403C3834302C2824201C1814100C0804CC
:100410007F7F7F7F7F7F7F7F7F7F7F7F7F7F7F7FEC
:1004200081818181818181818181818181818181BC
:100430007F7F7F7F7F7F7F7F8181818181818181BC
:100440007F7F7F7F7F7F7F7F8181818181818181AC
:100450007F7F7F7F7F7F7F7F81818181818181819C
:100460007F7F7F7F7F7F7F7F81818181818181818C
:100470007F7F7F7F7F7F7F7F7F7F7F7F7F7F7F7F8C
:100480007F7F7F7F7F7F7F7F81818181818181816C
:1004900098B8F25BDD26ECEB532F16B79198E41B6E
:1004A0004F192290D31424E284B6A1383FA55E4EA2
:1004B00087E53192E718F70BB041F6C89B74693AAB
:1004C000BD94815FB95836FE536DDB3B28B354E4CD
:1004D0007F7F7F7F7F7F7F7F7F7F7F7F7F7F7F7F2C
:1004E0007F7F7F7F7F7F7F7F7F7F7F7F7F7F7F7F1C
:1004F0007F7F7F7F7F7F7F7F7F7F7F7F7F7F7F7F0C
:100500007F7F7F7F7F7F7F7F7F7F7F7F7F7F7F7FFB
:1005100000000000000000000000000000000000DB
:100520002B2724271F1B181B130F0C0F0703000377
:10053000003C043909340C30102D152818241C2DCA
:1005400010401F001F40100010401F001F4010806F
:100550001505020507050400150502050705040039
:10056000020502050407040700040004090109014B
:1005700000408007408003408005408002800202E6
:100580000C21130E0C150702020407150E1013217F
:1005900000800303058007070880161617170F4011
:1005A00000400780004007048004078000048004A6
:1005B0000003070A0C0F1316181B1F2224272B2ECB
:1005C00000400C400B4007400C4040800B4007406F
:1005D00029241D18110C050027241D18110C0500D5
:1005E0000040050700000507004005070005070C4F
:1005F000000C0007000A000700090007000A0007B6
:1006000018171A151A1318121810180E180C180BA0
:1006100080808080808080808080808080808080DA
:100620007F7F7F7F7F7F7F7F7F7F7F7F7F7F7F7FDA
:100630004B595C5C5C5B5A59F5EBE8E7E61C51559D
:10064000FEF2F0EFEFEFEFEF8982808081BBF0F6F2
:10065000737E51FE8697A6BD525D686DF09C8095B5
:100660002E3A464DCFDEECF90714212BACBBCADB8A
:100670006A7F7D7C7B7A7979DCD1D2D2D2D3D3D315
:10068000D4D4D5D5D5D6D6D6D7D7D7D8D8D8D9DDFE
:1006900080878F979FA7AFB7BFC7CFD7DFE7EFF7A9
:1006A000FF070F171F272F373F474F575F676F779A
:1006B00007141F2C37434E59646E777F45A6E10817
:1006C000DFA7C3D8D2CE93AFBDC0C6D0DCE6F0FB67
:1006D000808594A7BBD0E4F90E2216E6F7091D2FFA
:1006E000E3F1021629FBEAFB0F22364A5D63212D56
:1006F00040515D666F777E7904060C141D263033F9
:10070000C6CAD1DBE5EFFA00808188909AA4AFC019
:10071000E6C3A49286808B89AAA4D6C600E81A00F4
:1007200015191A1F39325C4A755B7A59633F300AD2
:10073000FF172F465969757C7F7C756959462F17BD
:10074000FFE7CFB8A595898280828995A5B8CFE7C4
:10075000122F2C446D6C62797F6A5E6A5328221DC9
:10076000E7D3D5B491989A8181999A91B1D6D6E47C
:100770002C393E42484F5A787E55453A312A241C3E
:10078000CFC4C0BBB6AEA38680A8B9C4CCD3DAE2CE
:10079000800707060605050404030303020202019D
:1007A0000101010000000000FFFFFFFFFFFFFE014D
:1007B000CADC7F639B851E6B0DB2D52B2EEFD5FB5C
:1007C0001D0CEDEE060EFFF4FA0605FCF9FF040120
:1007D0001B1E190F100A0B080B050803050106FF65
:1007E00002FE03FE01FDFFFE02FE01FD00ED80CCD6
:1007F00000000000000000000000000000000000F9
:1008000000000000000000000000000000000000E8
:100810009CBF0A07DFC4DB01EAACD3F6EDEFCB19CE
:10082000250D3C40F1417F220909F5D41F2A3102F0
:100830005D23C68005181E4B2CB8D93BF90D0A2242
:10084000DD424D34C90715E1BEC9D5980707FEFA48
:100850000C251919647178DCC57F736324081209AB
:10086000F1DAD1DCCC8C8482273A8999ADF208F296
:1008700077F01A3242B9CC033E0F06DF6A057D6677
:100880009980F79320F7EFC2FC3045BFCEE4108E7D
:1008900025CF1FC214E480465613C05E0459DE2FD4
:1008A0000F8E60F0EFBD4137BA1AB43DC7E80AB306
:1008B0002C777E6F3507F9020B00E7CCBDC4D8F169
:1008C0000F283B403015FBF1FB04F5C68D808AD51F
:1008D000808CB18C8E8087CA12F5F1121D10060330
:1008E000FBFAEDE3F11406F046757F6D684E716E0C
:1008F0001C24262625242123432C1D16110E0D0D04
:1009000029170C06030100F680899CADBDCCD9E8FF
:100910008081899ACCD50A160A1C3211F5E5F419A2
:10092000E50B1908ECCCE4F5E9F62B3365737A7F17
:10093000235E7647335458401B1306BE919280A223
:10094000ED3057403E37C9A0CAF90DDBBAC3B6D85F
:10095000457E7D7851F8A2808FB6E30F3A627969BF
:1009600020C08780839C10767E5AA941ED8385C084
:100970008018891B921D9A1EA317AC16B416BD10C1
:10098000D817F11E0725192C2B2F36363F3D453839
:100990002823CEE02B008BDDEA340B08180FE11082
:1009A0005F5E80BAF61CE6EFF8E4D0213371DCE13B
:1009B000E3D974E29F65F6E9C858F08068FDE1CD9F
:1009C0004D248D5921D1CA4221910549D0B95905EB
:1009D0006878781D808B931E764A57B8B6CAC23F96
:1009E000044715FC1FA7E3B8F9664B6FC79985A5A7
:1009F0001C5630CBB0EC263DEE20B8F42EDAF9329E
:100A0000FEFFDECB07404BE699D611497F9FA3E05E
:100A1000000101020203040405050607070809098D
:100A20000A0B0B0C0D0D0E0F0F10111212131414D4
:100A30001516171718191A1B1B1C1D1E1F1F202106
:100A40002223242525262728292A2B2C2D2E2F2F1B
:100A5000303132333435363738393A3B3D3E3F401A
:100A600041424344454648494A4B4C4D4F505152F0
:100A700053555657595A5B5C5E5F606263646667A4
:100A8000696A6B6D6E707173747677797A7C7D7F2D
:100A9000210023002500270029002C002E00310012
:100AA000340037003A003E004100450049004E0046
:100AB000520057005C00620068006E0075007B0009
:100AC00083008B0093009C00A500AF00B900C40018
:100AD000D000DC00E900F70006011501260137010E
:100AE0004A015D01720188019F01B801D201EE0146
:100AF0000B022A024B026E029302BA02E4021003B6
:100B00003F037003A403DC03170455049704DD04BA
:100B100027057505C80520067D06E0064907B807C4
:100B20002D08A9082D09B9094D0AEA0A900B400CB5
:100B3000FA0CC00D910E6F0F5A1053115B12721305
:100B40009A14D41520178018F519801B231DDE1E5A
:100B5000B420A622B524E4263429A72B402E003148
:100B6000EA330037453ABC3D68414C456B49C84DB6
:100B700068524F57805C0062D467006E8A74797B3C
:100B8000D082978AD592909BD0A49DAEFFB8FFC328
:100B90000605041005030F040210010F000E0000EB
:100BA0000100010001005515030001005515030067
:100BB000010055550100555501005555020004002E
:100BC000000005000E001B002E004D007B00C3003E
:100BD0003201DD01E4027904E806A80A6F10541915
:100BE00000000008001100190022002A0033003B19
:100BF0000044004C0055005D0066006E0077FF7FEA
:100C00000F00000F0007000F0000000000070700A2
:100C10000003050507070B0B000507000307070F77
:100C2000FF7FFF0F9005AA027401D90085005600CE
:100C3000390026001A0013000D0009000700050006
:100C400000000000000000000303050707070B0F6A
:100C50000004090102030B0E00010407080C0D0F2C
:100C6000000000000000000001010101010101007D
:100C70000FF0E41FE31F11241FBECFEFD8E0DEBF4B
:100C8000CDBF23E0A8E6B1E001C01D92A639B207AE
:100C9000E1F711E0A0E0B1E0EAE2F9E502C0059079
:100CA0000D92A836B107D9F716E0CAE3D6E004C022
:100CB0002197FE010E945126C933D107C9F70E942E
:100CC000820F0C94882C0C940000089508950895C8
:100CD0000895462FDC011496ED91FC91159700883C
:100CE000F189E02D683F48F16C3F28F46A3F60F4D9
:100CF000683F21F008956C3FB1F008958185928599
:100D0000019692878187089512861186148613862C
:100D100081E0848382819381DC01ED91FC910480E8
:100D2000F581E02D09C0148282819381DC01ED916F
:100D3000FC910680F781E02D0994603F70F11092DC
:100D4000D401603FA9F481E0858316828FEF809300
:100D50000601809305018085882309F4DBC0828128
:100D60009381DC01ED91FC910084F185E02DE4CFCD
:100D7000673F09F0CFC08581882309F4CBC0158275
:100D80008085882309F4C6C082819381DC01ED91BE
:100D9000FC910484F585E02DCFCF67FF0BC06093F5
:100DA000D40181E08093D3011092D2011092D1013D
:100DB000158208958581882331F1668181E0860F4F
:100DC0008683813019F4409306010895823019F426
:100DD00040930501089590910601808198139AC06F
:100DE000909105018781981395C08085882309F427
:100DF00091C082819381DC01ED91FC91625002846B
:100E0000F385E02D09949091D401992309F482C0CF
:100E10008091D301882329F06093D2011092D301ED
:100E200008956093D1018181282F206992131BC0FE
:100E30006623C9F06091D201DF01A60FB11D1E9695
:100E40008C911E9781115FC081E01E968C938585E1
:100E50008F5F858782819381DC01ED91FC91019008
:100E6000F081E02D4FC0382F3068931721F0921396
:100E70001AC0411118C06091D201DF01A60FB11D47
:100E80001E968C911E978823F1F11E961C928585E3
:100E90008150858782819381DC01ED91FC910280F4
:100EA000F381E02D20C0282F206E92131EC0828176
:100EB0009381DC01ED91FC91411105C00288F38919
:100EC000E02D61E810C04F3729F40288F389E02D46
:100ED0006FE709C0642F70E060547109660F771FD7
:100EE0000288F389E02D09950EC0806B98130BC022
:100EF00082819381DC01ED91FC910088F189E02DE4
:100F00006091D20109951092D2011092D10181E035
:100F10008093D3010895089508950895CF93DF93A2
:100F2000EC01FC01EB5BFE4F60838AE0689F90015F
:100F30001124245C3F4F40E050E060E078E98AE310
:100F400090E00E94572C2A873B874C875D87AE85AF
:100F5000BF850E94442CAA27BB278E839F83A88726
:100F6000B987DF91CF910895CF93DF93EC01E62FFE
:100F7000F0E0EE0FFF1FE057F54F85919491FE01D1
:100F8000E357FF4F208131818217930771F024814D
:100F900035818217930749F09183808333832283BD
:100FA00014861386CF010E942F0E81E088A789A79F
:100FB0008FA1882311F01DA21CA281E08EAB8FAB04
:100FC0008DA9882311F01BAA1AAADF91CF91089549
:100FD000DC0157966C93579758968D919C91599731
:100FE000DC01ED91FC910280F381E02D09940F93D7
:100FF0001F93CF938C01C0E0D80112968D919C91E4
:101000001397DC01ED91FC910280F381E02D6C2FB0
:101010000995CF5FC03881F7CF911F910F91089547
:101020008F929F92AF92BF92CF92DF92EF92FF92F8
:10103000CF93DF93EC0188819981AA81BB81860FD0
:10104000911DA11DB11D88839983AA83BB83CC8088
:10105000DD80EE80FF808C159D05AE05BF0540F05C
:101060008C199D09AE09BF0988839983AA83BB8324
:1010700088819981AA81BB81009720E1A207B105EF
:10108000A8F4009728E0A207B10590F4009724E0A7
:10109000A207B10578F4009722E0A207B10560F439
:1010A000009721E0A207B10518F008C035E007C09D
:1010B00034E005C033E003C032E001C031E040E17C
:1010C00050E0431B5109BC01CD0104C0660F771FDE
:1010D000881F991F4A95D2F74601570104C0B6945C
:1010E000A794979487943A95D2F7A50194010E940A
:1010F000572C39872887DF91CF91FF90EF90DF90B1
:10110000CF90BF90AF909F908F900895CF92DF9235
:10111000EF92FF920F931F93FC018585882309F4BA
:101120006FC08485823071F130F4882309F45FC088
:10113000813041F065C0833009F441C0843009F446
:1011400043C05EC020813181A62FB0E00E94792C7F
:1011500040855185AFEFBFE78D01041B150B012EB4
:10116000000C220B330B601771078207930728F0DE
:1011700082E08487B187A08743C0640F751F7187A1
:1011800060873EC022813381A62FB0E00E94792C77
:1011900020853185A481B581A9014A1B5B0B6A01B9
:1011A000550FEE08FF086C157D058E059F0528F08C
:1011B00083E08487B187A0871CC0C9011DC08481DA
:1011C00095819187808715C026813781A62FB0E051
:1011D0000E94792C408551858A01052E000C220B36
:1011E000330B601771078207930728F01486118666
:1011F0001086158605C0CA01861B970B91878087CC
:101200001F910F91FF90EF90DF90CF900895DC0138
:101210001C968C911C9719962C911997813099F4F2
:10122000822F922F990F990B97FF03C0919581956B
:101230009109EFE7F0E0E81BF109E05FF54F9491C9
:10124000EFE7E91B0DC0E22FF22FFF0FFF0BF7FFB7
:1012500003C0F195E195F109FF27E05FF54FE491B7
:101260001A968C91882319F08E2F819508958E2FD0
:101270000895CF92DF92EF92FF92CF936A017B01A4
:10128000C22F682F880F770B880B990B0E94AD2710
:1012900020E030E04EEF52E40E94C926A7019601FB
:1012A0000E9415290E9443276B017C016C2F70E07E
:1012B00080E090E00E94AB279B01AC01C701B60122
:1012C0000E94152920E030E040E85FE30E945726A5
:1012D0000E9482290E947C27862FCF91FF90EF9059
:1012E000DF90CF900895FC0136E0639FE00DF11D83
:1012F0001124E40FF11D2287DC0156968D919C91FB
:101300005797009739F0DC01ED91FC910480F5814D
:10131000E02D09940895242FDC011496ED91FC91A1
:101320001597462F6789828993890C947309DC018C
:10133000262F2170E22FF0E0E059F34F849170E006
:1013400075956795A60FB71F9C91892390E0220F92
:10135000220F02C0959587952A95E2F708950F937D
:101360001F93CF93DF93EC016E8BE88DF98D019085
:10137000F081E02D008111818A899B890E94970963
:1013800020E0482F6E89888D998DF801DF91CF91EB
:101390001F910F910994CF93DF93EC01A62FB0E03A
:1013A000B595A795962F9170E92FF0E0E059F34F8E
:1013B000E491AC0FBD1F2E2F20958C918223990FA5
:1013C000990F242F01C0220F9A95EAF7E223E82B08
:1013D000EC938E899F89009749F0DC01ED91FC9197
:1013E0000190F081E02DDF91CF910994DF91CF91B1
:1013F0000895CF93DF93EC0140E060E08A899B89F8
:101400000E94CB0941E061E08A899B890E94CB0957
:1014100041E062E08A899B890E94CB0942E063E057
:101420008A899B890E94CB0940E064E08A899B8974
:101430000E94CB0945E065E08A899B890E94CB091F
:1014400040E066E08A899B890E94CB0941E067E021
:101450008A899B890E94CB0946E068E08A899B893A
:101460000E94CB092FEF41E060E08A899B890E94AE
:1014700073092FEF42E060E08A899B890E9473091B
:1014800020E043E060E08A899B890E94730920E0A4
:1014900044E060E08A899B890E94730920E045E06E
:1014A00060E08A899B890E9473092FEF40E060E029
:1014B0008A899B890E9473092CE841E061E08A894E
:1014C0009B890E94730920E042E061E08A899B8940
:1014D0000E94730920E043E061E08A899B890E94B1
:1014E000730920E044E061E08A899B890E947309C6
:1014F00020E045E061E08A899B890E9473092CE322
:1015000040E061E08A899B89DF91CF910C94730957
:10151000CF92DF92FF920F931F93CF93DF93CDB7BC
:10152000DEB767970FB6F894DEBF0FBECDBFDC0104
:101530001696ED91FC911797DF01AA5ABF4FFC90C8
:10154000613009F069C08C012F2D2095277032A9D8
:10155000FC0184819581313081F42F8B0E94F9093F
:10156000D80116968D919C9117972F894F2D62E087
:101570008A5A9F4F0E94450F4FC0DC015296ED9151
:10158000FC915397AF01CE0101966C0138E0380F02
:10159000DA016D91AD01D6016D936D013A13F8CF6B
:1015A000AF01465F5F4FBE01675F7F4F6F01B0E1E4
:1015B000CB0ED11CDA013D91AD01DB013D93BD01A4
:1015C0004C155D05B9F7AE01415F5F4FBF016A5E23
:1015D0007F4FD6013D916D01DA013D93AD01C616F5
:1015E000D706B9F730853D8B31853E8B46E150E01B
:1015F00060E070E02F8B0E94032CF80186819781B8
:101600002F894F2D64E08A5A9F4F0E94450F6FE744
:101610008FEF93E00E94132C67960FB6F894DEBF0D
:101620000FBECDBFDF91CF911F910F91FF90DF9043
:10163000CF9008950F931F93CF93FC0184819581E0
:10164000DC015696CC91413009F06CC0613059F400
:10165000C11102C067E002C06FEF6C0FCF911F9104
:101660000F910C94AF098F01623049F4C73011F427
:1016700060E002C061E06C0F0E94AF0976C0633089
:1016800031F50680F781E02D22A9FC01828993893A
:10169000213041F468E00E949709882309F465C06D
:1016A0004FEF26C06C2F0E949709D8011496ED9138
:1016B000FC911597811109C04FE06C2F82899389A5
:1016C000CF911F910F910C94CB094FEF29C064303B
:1016D000D9F50680F781E02D22A9213089F468E050
:1016E000FC01828993890E9497098F30F0F541E0CF
:1016F000480FD8011496ED91FC91159768E0DECF64
:101700006C2FFC01828993890E949709D801149655
:10171000ED91FC9115978F3011F440E0CECF41E070
:10172000480FCBCF611108C0FC0180899189CF910E
:101730001F910F910C94F7076530B9F4642FCF9186
:101740001F910F910C94E8076111F6CFDC01ED9128
:10175000FC911197AD53BF4F0190F081E02D4FE701
:101760006C91CF911F910F910994CF911F910F917F
:101770000895CF92DF92EF92FF920F931F93CF9332
:10178000DF93CDB7DEB78C01EDB6FEB6DC014C9130
:1017900014968D919C911597FC01649FE00DF11DAD
:1017A0001124BF0150E02DB73EB7241B350B0FB6F7
:1017B000F8943EBF0FBE2DBF8DB79EB701966C014A
:1017C0000E94EB2B90E0F80180819817B0F4292F4C
:1017D00030E0F601E20FF31F8081D8011696ED91FB
:1017E000FC911797418152814115510521F0FA0171
:1017F000E20FF31F80839F5FE6CF0FB6F894FEBE23
:101800000FBEEDBEDF91CF911F910F91FF90EF9032
:10181000DF90CF9008951F920F920FB60F92112470
:101820002F933F934F936F937F938F939F93AF9398
:10183000BF93EF93FF9380916C01882349F06091EF
:1018400002018091D0010E944526992309F45AC0D3
:101850003091D00131110FC080916D01882331F09A
:1018600081E08093710110926D0105C0809171013A
:1018700081111092710180917101E091CE01F0917E
:10188000CF018823D1F0A0916F01B0917001119622
:101890008D919C911297009721F0DC01A30FB11D4F
:1018A0002C9181819281009721F0FC01E30FF11DC1
:1018B000208320582093B4000BC08181928100972F
:1018C00021F0FC01E30FF11D408140584093B4002A
:1018D00090910301209104018091D001820F89230E
:1018E0008093D001FF91EF91BF91AF919F918F9124
:1018F0007F916F914F913F912F910F900FBE0F905D
:101900001F9018958091000190910101909389009A
:1019100080938800809102018093040110926C01F1
:1019200097CFFC01EE53FF4F60830895FC011682B0
:101930001782108611861786168680E096E0A0E052
:10194000B0E082879387A487B587EC54FF4F01905E
:10195000F081E02D80E1878380E881870895CF932F
:10196000DF93FC01DC01A60FB11DAD014B535F4FAE
:10197000DA018C918823F9F0EF01C054DF4F8881A0
:101980009F012F533F4FD9018C9381508883DA01F7
:101990001C92811110C0DF01AC54BF4F0D90BC915F
:1019A000A02D12968C91811106C094E090A781E041
:1019B00081A796AB87ABDF91CF9108950E948A2BC8
:1019C000CF93DF93EC011E821F82188619861F8633
:1019D0001E86FC01EB5BFE4F60810E948E07CC549B
:1019E000DF4FE881F98180E1878380E88187DF919B
:1019F000CF910895CF93DF93FC01E60FF11DEB53D8
:101A0000FF4F208121111DC0DC01A054BF4F2C913C
:101A1000EC01CF53DF4F28832F5F2C9321E02083ED
:101A2000FC01EC54FF4F0190F081E02D2281211147
:101A300004C0DF91CF910C94B407FC01EC53FF4F2D
:101A40006083DF91CF910895FC01673409F48CC065
:101A5000F0F4603209F459C070F4653009F441C003
:101A600018F46130C9F10895603109F442C0613160
:101A700009F447C00895623209F45AC008F450C00E
:101A8000633209F45DC0643209F462C008956B35B5
:101A900009F482C078F46D3409F472C020F46A3419
:101AA00009F45EC008956E3409F462C06F3409F41D
:101AB0006BC008956E3509F47BC038F46C3509F4B9
:101AC0006FC06D3509F470C008956F3509F474C0A6
:101AD0006B3709F476C0089550E09A013595279543
:101AE00051C050E0B3E055954795BA95E1F766E0EF
:101AF00013C0242F220F42E060E0828993890C9466
:101B00007309242F220F45E0F7CF50E0A3E055954D
:101B10004795AA95E1F760E0828993890C94CB09F7
:101B200050E073E0559547957A95E1F761E0F4CF81
:101B300050E063E0559547956A95E1F762E0ECCF98
:101B400050E033E0559547953A95E1F763E0E4CFEF
:101B500050E023E0559547952A95E1F767E0DCCF03
:101B6000242F220F41E0C8CF242F220F41E027C0AD
:101B700050E093E0559547959A95E1F764E0CCCF16
:101B8000242F220F43E01BC050E083E0559547957A
:101B90008A95E1F765E0C0CF242F220F44E00FC003
:101BA000242F220F44E0A8CF242F220F43E0A4CFFC
:101BB000242F220F42E003C0242F220F45E061E0D2
:101BC0009CCF808991890C94F7071F920F920FB6D2
:101BD0000F9211242F933F938F939F93AF93BF93B3
:101BE0008091680190916901A0916A01B0916B01A7
:101BF0003091910323E0230F2D3720F40196A11D8E
:101C0000B11D05C026E8230F0296A11DB11D20932A
:101C100091038093680190936901A0936A01B09346
:101C20006B0180918D0390918E03A0918F03B091F1
:101C300090030196A11DB11D80938D0390938E0397
:101C4000A0938F03B0939003BF91AF919F918F9119
:101C50003F912F910F900FBE0F901F901895CF932B
:101C6000DF93EC01AF81B885109719F41A861986B5
:101C700022C08E818823E9F0488159818A819B8125
:101C8000EC81FD818417950738F49A012E1B3F0BD8
:101C90000E94792C9F0106C09F01241B350B0E94D6
:101CA000792C9A0140E050E00E94572C3A8729870E
:101CB00002C0BA87A987DF91CF9108951F920F9232
:101CC0000FB60F9211242F938F939F93EF93FF934F
:101CD0008091C0009091C6008091BF018F5F8F738B
:101CE0002091C001821304C084E080937E0108C06B
:101CF000E091BF01F0E0E158FE4F90838093BF0177
:101D0000FF91EF919F918F912F910F900FBE0F90A8
:101D10001F9018951F920F920FB60F9211242F93B8
:101D20004F935F938F939F93EF93FF9329B1822FEC
:101D300090E0AC0155954795559547954170E2E780
:101D4000F1E04083221F2227221F248324E095955F
:101D500087952A95E1F781708583FF91EF919F9197
:101D60008F915F914F912F910F900FBE0F901F9009
:101D700018951F920F920FB60F9211242F934F9325
:101D80005F938F939F93EF93FF9323B1822F90E004
:101D9000AC01E5E055954795EA95E1F74170E2E73A
:101DA000F1E0418344E0959587954A95E1F781708C
:101DB000828321702383FF91EF919F918F915F9197
:101DC0004F912F910F900FBE0F901F9018951F925B
:101DD0000F920FB60F9211248F93EF93FF93E09120
:101DE0008C03F0E080917900E858FE4F8083809169
:101DF0008C038F5F80938C0380918C03863010F06E
:101E000010928C0380918C0380937C0080917C00E5
:101E1000806480937C0080917C00806280937C0051
:101E20008FE880937A0080917A00806480937A00B2
:101E3000FF91EF918F910F900FBE0F901F9018950B
:101E4000FC01EA5AFF4F208120FF02C0299A01C0FD
:101E50002998208121FF02C02B9A01C02B98208154
:101E600022FF02C02A9A01C02A98FC01E55AFF4FBE
:101E7000808180FF02C05D9A01C05D98808181FFF2
:101E800002C05E9A08955E980895CF93DF93DC01B7
:101E900012966C93129714961C921497C1E7DCE08B
:101EA000FE01949160E77CE0FB018491592F5095ED
:101EB00013963C91139735239078932B382F3095B8
:101EC00093238870892B13968C931397FE01C491EA
:101ED000FB0164913C2F309511968C91119738231A
:101EE000F0E14F9FC00111248C23832B962F9095F6
:101EF00089232623282B11962C9311974C93DF913D
:101F0000CF910895CF93DF93CDB7DEB7C654D109F3
:101F10000FB6F894DEBF0FBECDBF789484B5826053
:101F200084BD84B5816084BD85B5826085BD85B57D
:101F3000816085BD80916E00816080936E001092FB
:101F40008100809181008260809381008091810076
:101F50008160809381008091800081608093800007
:101F60008091B10084608093B1008091B000816065
:101F70008093B00080917A00846080937A00809191
:101F80007A00826080937A0080917A0081608093E9
:101F90007A0080917A00806880937A001092C10064
:101FA0008091C00082608093C0001092C5008FE3D2
:101FB0008093C4008091C10080618093C1008091B2
:101FC000C10088608093C1008091C10080688093C7
:101FD000C1008091C1008F7D8093C1008091C701B5
:101FE0009091C801FC01EA5AFF4F21E02083359609
:101FF00020830E94200FC090C501D090C60180911F
:10200000B6008F7B8093B6008091B6008F7D809361
:10201000B6008091B00081608093B0008091B000E4
:1020200082608093B0008091B100877F8093B1007F
:102030008091B0008F7E8093B0008091B00080626C
:102040008093B0008091B0008F7B8093B00080912E
:10205000B0008F778093B0008091B1008160809351
:10206000B1008091B1008D7F8093B1008091B1006B
:102070008B7F8093B100F894809180008E7F809355
:102080008000809180008D7F80938000809181000E
:10209000886080938100809181008F7E8093810091
:1020A00080918100816080938100809181008D7F8B
:1020B00080938100809181008B7F8093810080914B
:1020C0000001909101019093890080938800809194
:1020D0006F00826080936F007894D6015096ED91E6
:1020E000FC915197118252960D911C91539746E1A4
:1020F00050E060E070E0CE0101960E94EB2BFE0103
:1021000031963F01512C30E7832E3CE0932E41E77E
:10211000A42E4CE0B42E7301F4014491452C440CE0
:10212000D3018D913D014823642DC8010E94CB0944
:10213000F5014491D7018C91482350E024E0559556
:1021400047952A95E1F761E0640DC8010E94CB092B
:102150005394B8E05B12DFCF98E0E92EF12CE1E078
:10216000F0E0EC0FFD1FEE0DFF1D48EF4E0D20813E
:1021700060E0C8010E947309EFEFEE1AFE0AFEE06C
:10218000EF16F10461F7E1E0F0E0EC0FFD1FEE0D5A
:10219000FF1D42EF4E0D208161E0C8010E947309CE
:1021A0002FEFE21AF20A34E1E316F10461F75E015F
:1021B00045E1A40EB11C50E0B8EF9B2E412C512CF0
:1021C00032014394E12CF12CD5012C9130E00E2CFE
:1021D00002C0359527950A94E2F721703327422FE4
:1021E0004170652F6E0DE62FF0E0A3E0F595E795C1
:1021F000AA95E1F7762F9E9E700D1124E00FF11F36
:10220000D301C20104C0880F991FAA1FBB1F7A9572
:10221000D2F7898F9A8FAB8FBC8F232B21F020852B
:10222000898D822B04C0898D809590858923808734
:10223000D80156968D919C915797009769F0DC01D3
:10224000ED91FC910280F381E02D27965FAF2797F7
:10225000099527965FAD2797BFEFEB1AFB0AE8E0D9
:10226000EE16F10409F0B0CFFFEFAF1ABF0A585FC6
:10227000503109F0A7CF60E0C6010E94AF0960E0CD
:10228000C6010E94E8078FEF93E00E94FB2B8F3777
:1022900011F00C94BD1F67E08091C5019091C601BB
:1022A0000E94AF09E091C701F091C801E35BFF4FC5
:1022B00060818091C5019091C6010E94E8079E014E
:1022C0002F5F3F4F388F2F8B8FB7F8944091680165
:1022D0005091690160916A0170916B018FBF80918B
:1022E000CA019091CB01A091CC01B091CD01342FC6
:1022F000381B3D8F830F911DA11DB11D8093CA0115
:102300009093CB01A093CC01B093CD010091C70174
:102310001091C801F0E4FF2E8091C0018F5F8F7390
:102320009091BF01891313C080917E01882329F108
:10233000F8018081918160917E01DC01ED91FC9139
:102340000084F185E02D099510927E0116C08093DE
:10235000C001D8018D919C91E091C001F0E0E1585D
:10236000FE4F6081DC01ED91FC910680F781E02D4C
:102370000995FA94F110D0CFD7CF8090C7019090F3
:10238000C8016401B6E0CB0ED11C84010E5F1F4F63
:10239000E12CF12CED8DAE2EB12C6E2DF701E8580D
:1023A000FE4F2081D6012C93F60133973081822F86
:1023B00090E0831B910997FF03C091958195910946
:1023C00005975CF0D8018C91811107C041E04C93D6
:1023D00013961C921E92129713C0D8018C918823D9
:1023E00079F012968D919C9113978A0D9B1D1396EF
:1023F0009C938E931297803D974010F0D8011C92C9
:10240000D8018C91882379F0231769F02083F40197
:1024100080819181DC01ED91FC910480F581E02DBA
:10242000D6014C910995BFEFEB1AFB0AE5E0CE0E01
:10243000D11C0B5F1F4FF6E0EF16F10409F0ADCF92
:102440006090C7017090C801530120E2A20EB11C38
:1024500083010F5D1F4F630135E2C30ED11CE12CD8
:10246000F12C4D8D842E912C5E2CF701EE58FE4FF1
:102470004081D5014C934130E1F4F8018281938190
:10248000880D991D93838283268137818217930754
:1024900080F0D6018C9181110CC04C93F3018081A6
:1024A0009181DC01ED91FC910280F381E02D6E2D94
:1024B0000995F80180819581891720F4FD8D8F0F92
:1024C000D8018C93F8018081891760F1D5019C9126
:1024D000F60133972081921729F1913059F4211197
:1024E0000EC0D80113961C921E921297D6011C9210
:1024F00081E006C0911103C081E0213009F080E045
:102500009083F8011082882369F0D3018D919C910A
:10251000DC01ED91FC910190F081E02DD5014C9111
:10252000652D0995BFEFEB1AFB0AE9E0AE0EB11C71
:10253000075F1F4FF9E0CF0ED11C26E0E216F10431
:1025400009F092CF4091C7015091C801FA01E05AB9
:10255000FF4F80813D8D830F8083C12C808180312E
:1025600020F080518083C394F9CFC1101AC0E0914C
:10257000C501F091C601068517851F70668982899D
:1025800093890E949709482F212F30E0B901637089
:1025900077278091C7019091C801672B09F45AC031
:1025A00063C08A01085A1F4FDA01A65ABF4FBA0109
:1025B0006A5A7F4F4C595F4FF8018081882309F494
:1025C0003FC0FC90FC0CFC92FB01B080FD013397F6
:1025D0002081E1E7FCE08491822390E034E095954E
:1025E00087953A95E1F7A82EE0E7FCE0D490D22257
:1025F000FD013197E080E1E7FCE024912E2130E0FD
:10260000E4E035952795EA95E1F7E0E7FCE0849072
:10261000B81202C0F21638F4BD1012C0E820FE1441
:1026200078F0BA1005C0F21AFC92FB01D08204C007
:10263000FE18FC92FB018083F80180818150808329
:102640000B5F1F4F15966B5F7F4FA417B50709F0FF
:10265000B3CF8DCF411710F023E001C022E0FC0181
:10266000E55AFF4F208310C010FD06C04117B0F798
:10267000FC01E55AFF4F07C0FC01E55AFF4F411727
:1026800010F021E0EFCF10820E94200F2090C501B2
:102690003090C601D1015096ED91FC915197248163
:1026A000C1010696222341F0218532854385622FA0
:1026B000641B2387348701C06D8D0E941008F101CF
:1026C000E684F784A1014B575F4FFA01A181B281E3
:1026D00097010E94792CDC01CB01038004C0B695E0
:1026E000A795979587950A94D2F7682F6F7367839C
:1026F000E48120E4E29FF0011124E60FF11DE05F88
:10270000FE4FE491DA011596EC93159716968C918D
:102710001697882319F0E1951596EC93F101EC5486
:10272000FF4F00811181F8014281442381F1A4818E
:10273000B58197010E94792CDC01CB01068004C091
:10274000B695A795979587950A94D2F7682F6F70DD
:10275000608787816817D9F020E1429FF00111243A
:10276000E60FF11DE05FFA4FF490D8018D919C9136
:10277000DC01ED91FC910190F081E02D4F2DD8010D
:1027800019966C910995F801F186808587839101EE
:10279000245E3F4F3FAF2EAF6D8DC9010E9486086A
:1027A0006D8D8101065D1F4FC8010E948608F101F1
:1027B000E657FF4F308139AFC8010E94070989AB46
:1027C000D1015A960D90BC91A02DBCA7ABA72D911D
:1027D0003D914D915C912DA73EA74FA758ABF101BC
:1027E000E45BFF4F1081112309F484C0DA01C901B1
:1027F00006E0B695A795979587950A95D1F7490173
:102800005A01B694A79497948794881A990AAA0AA9
:10281000BB0A3296808181110DC03697A081B0E04D
:102820001196A50194010E944F2CC72ED82EE92E97
:10283000FF2407C0F101E75BFF4FC080D180E12C8E
:10284000F12CF101EC5AFF4F80818823E9F0319699
:102850004081518162817381F10126AD89AD0E9471
:102860003909A82FB0E01196A70196010E94442CC7
:102870006B017C01D101DF960C9004C0F694E794C3
:10288000D794C7940A94D2F7F101E15BFF4F80819E
:102890008823E9F031964081518162817381F10191
:1028A00026AD89A90E943909A82FB0E01196A70189
:1028B00096010E94442C6B017C01D101DF960C90A3
:1028C00004C0F694E794D794C7940A94D2F78C1472
:1028D0009D04AE04BF0410F475016401B4E1CB168D
:1028E000D104E104F10448F4F4E1CF2ED12CE12C21
:1028F000F12C03C0C12CD12C76016DA57EA58FA52E
:1029000098A90E94AB279B01AC016BED7FE089E4A5
:1029100090E40E94C9264B015C01F101E75AFF4F88
:102920002081318142815381298F3A8F4B8F5C8F77
:102930003E97608170E080E090E00E94AB27F1015B
:10294000EC5BFF4F20813181428153810E94152928
:10295000F101E05CFF4F20813181428153810E946F
:1029600058266F8F78A389A39AA3C701B6010E9446
:10297000AB276B017C01812F90E0FC013197EF3098
:10298000F10508F095C5EC5CFF4F0C945126A501AC
:102990009401C501B4010E945826A70196010E9426
:1029A00015294B015C010E94A6292F8D38A149A150
:1029B0005AA10E94C92620E030E040E05FE30E9477
:1029C00015296B017C01C501B4010E94C4264B018D
:1029D0005C019B01AC0160E070E080E89FE30E9435
:1029E00057262B013C0120E030E040E05FE30E94ED
:1029F0001529F101E759FF4F608371838283938327
:102A000034964082518262827382349660837183ED
:102A1000828393838101035A1F4F20E030E040E816
:102A20005FE3C701B6010E945826D8016D937D93DC
:102A30008D939C9313970C5F1F4F20E030E040E094
:102A400050ECC501B4010E941529F801608371831F
:102A5000828393830C5F1F4FA7019601D4C0A50109
:102A60009401C501B4010E945826A70196010E9455
:102A700015294B015C010E94A6292F8D38A149A17F
:102A80005AA10E94C92620E030E040E05FE30E94A6
:102A900015296B017C01C501B4010E94C4264B01BC
:102AA0005C0120E030E040E85FE30E9458262B0103
:102AB0003C0120E030E040E05FE30E941529F10195
:102AC000E759FF4F6083718382839383349677FA4B
:102AD000709477F870944082518262827382349647
:102AE00060837183828393838101035A1F4F20E0A7
:102AF00030E040E85FE3C701B6010E945826F801C4
:102B000060837183828393830C5F1F4F20E030E0EA
:102B100040E050ECC501B4010E941529D8016D9325
:102B20007D938D939C9313970C5F1F4FA701960184
:102B300060E070E080E89FE30E94572648C4A5014A
:102B40009401C501B4010E945826A70196010E9474
:102B500015294B015C010E94A6296B017C012F8D78
:102B600038A149A15AA10E94C92620E030E040E0E6
:102B70005FE30E9415292B013C01C501B4010E94AD
:102B8000C4264B015C0120E030E040E05FE3C70178
:102B9000B6010E941529F101E759FF4F6083718347
:102BA0008283938334961082118212821382349628
:102BB000DC01CB01B05880839183A283B383810170
:102BC000035A1F4F20E030E040E85FE3C301B20149
:102BD0000E945826D8016D937D938D939C931397F3
:102BE0000C5F1F4F20E030E040E050ECC501B40125
:102BF0000E941529F80160837183828393830C5F9F
:102C00001F4FA301920160E070E080E89FE379C369
:102C1000A5019401C501B4010E945826A70196019F
:102C20000E9415294B015C010E94A6292F8D38A115
:102C300049A15AA10E94C92620E030E040E05FE3AC
:102C40000E9415296B017C01C501B4010E94C426B4
:102C5000412C512CE0E86E2EEFE37E2EF101E75976
:102C6000FF4F408251826282738220E030E040E078
:102C700050EC0E9415294B015C01F101E359FF4F13
:102C8000608371838283938334964082518262820F
:102C900073828101035A1F4FA3019201C701B6013C
:102CA0000E945826F801608371838283938334964F
:102CB00080829182A282B382085F1F4FA701960192
:102CC000C301B2011EC3A5019401C501B4010E9454
:102CD0005826A70196010E9415296B017C010E94CC
:102CE000A6292F8D38A149A15AA10E94C92620E00A
:102CF00030E040E05FE30E9415294B015C01C70111
:102D0000B6010E94C4266B017C01298D3A8D4B8D42
:102D10005C8DC501B4010E9415292B013C01810184
:102D200007591F4F20E030E040E85FE30E9458263B
:102D3000F801608371838283938320E030E040E078
:102D400050ECC701B6010E9415296B017C01F1010D
:102D5000E359FF4F6083718382839383085F1F4F22
:102D6000A301920160E070E080E89FE30E94572693
:102D7000D8016D937D938D939C931397298D3A8DF4
:102D80004B8D5C8DC501B4010E94C9264B015C01CD
:102D90000451110920E030E040E85FE30E9458262A
:102DA000F80160837183828393833496C082D182D9
:102DB000E282F382085F1F4FA501940124CFA50191
:102DC0009401C501B4010E945826A70196010E94F2
:102DD00015294B015C010E94C4262B013C01698D21
:102DE0007A8D8B8D9C8D0E94B4296B017C01C5016D
:102DF000B4010E94A6294B015C0120E030E040E8CC
:102E00005FE3698D7A8D8B8D9C8D0E9457266BA315
:102E10007CA38DA39EA3A30192010E9415296DABF3
:102E20007EAB8FAB98AF20E030E040E85FE3698D88
:102E30007A8D8B8D9C8D0E9458266FA378A789A7C9
:102E40009AA7A30192010E9415296AAF7BAF8CAFAC
:102E50009DAFA7019601C701B6010E9458266B01DC
:102E60007C012F8D38A149A15AA1C501B4010E944E
:102E7000C92620E030E040E05FE30E9415299B0175
:102E8000AC01C701B6010E9415292B013C012DA9F7
:102E90003EA94FA958AD6FA178A589A59AA50E9412
:102EA00057266B017C01810107591F4FA301920135
:102EB0000E9458269B01AC01698D7A8D8B8D9C8D6B
:102EC0000E941529F80160837183828393830C5FCC
:102ED0001F4F298D3A8D4B8D5C8DCA01B9010E941F
:102EE00058264B015C012AAD3BAD4CAD5DAD6BA1ED
:102EF0007CA18DA19EA10E9457269B01AC01C5011A
:102F0000B4010E941529D8016D937D938D939C93F4
:102F100013970C5F1F4FA3019201C701B6010E94D6
:102F200057269B01AC01698D7A8D8B8D9C8D0E94FB
:102F30001529F80160837183828393832DA93EA9AB
:102F40004FA958AD6FA178A589A59AA50E945826CA
:102F50006B017C0104511109A30192010E945826C2
:102F6000D8016D937D938D939C9313970C5F1F4FA6
:102F70002AAD3BAD4CAD5DAD6BA17CA18DA19EA1F9
:102F80000E94582620E030E040E050EC0E941529D5
:102F9000E7C0A5019401C501B4010E945826A7010C
:102FA00096010E9415292B013C010E94C4264B0169
:102FB0005C01698D7A8D8B8D9C8D0E94B4296B018B
:102FC0007C01C301B2010E94A6292B013C0120E033
:102FD00030E040E85FE3698D7A8D8B8D9C8D0E9497
:102FE00057266BA37CA38DA39EA3A50194010E94E9
:102FF00015296DAB7EAB8FAB98AF20E030E040E899
:103000005FE3698D7A8D8B8D9C8D0E9458266FA30E
:1030100078A789A79AA7A50194010E9415294B01B9
:103020005C01A7019601C701B6010E9458266B01F9
:103030007C012F8D38A149A15AA1C301B2010E9480
:10304000C92620E030E040E05FE30E9415299B01A3
:10305000AC01C701B6010E9415292B013C012DA925
:103060003EA94FA958AD6FA178A589A59AA50E9440
:1030700058266B017C01810107591F4FA301920162
:103080000E9458269B01AC01698D7A8D8B8D9C8D99
:103090000E941529F80160837183828393830C5FFA
:1030A0001F4F20E030E040E050EC698D7A8D8B8D31
:1030B0009C8D0E9415296F8F78A389A39AA3A501DF
:1030C00094016BA17CA18DA19EA10E9458269B0119
:1030D000AC016F8D78A189A19AA10E941529D80110
:1030E0006D937D938D939C9313970C5F1F4FA3015A
:1030F0009201C701B6010E9457269B01AC01698D60
:103100007A8D8B8D9C8D0E941529F80160837183C7
:10311000828393832DA93EA94FA958AD6FA178A5AD
:1031200089A59AA50E9457266B017C0104511109BB
:10313000A30192010E945826D8016D937D938D932F
:103140009C9313970C5F1F4FA50194016BA17CA169
:103150008DA19EA10E9457269B01AC010E9458267A
:10316000F80160837183828393830C5F1F4FA301F7
:103170009201C5C0A5019401C701B6010E9415299D
:103180000E94F4294B015C019B01AC010E941529AE
:103190006B017C01F101EF58FF4F608371838283E3
:1031A000938338976083718382839383810103596A
:1031B0001F4F9B01AC010E945826F8016083718368
:1031C0008283938323EF34E045EB5FE3C501B401D1
:1031D0000E9415294B015C01005111099B01AC01B2
:1031E000C701B6010E94582620E030E040E85FE3C6
:1031F0000E945826D8016D937D938D939C931397CD
:103200000C5F1F4F20E030E040E85FE3C701B601EC
:103210000E9457269B01AC010E945826F80160834A
:103220007183828393830C5F1F4FA5019401C701B3
:10323000B6010E94572620E030E040E85FE330C14D
:10324000A5019401C701B6010E9415290E94F42925
:103250004B015C019B01AC010E94152920E030E08C
:1032600040E85FE30E9458266B017C0180E090E01B
:10327000A0E8BFE3F101E759FF4F80839183A28368
:10328000B383389680839183A283B383349720E0FD
:1032900030E040E050EC208331834283538323EFBE
:1032A00034E045EB5FE3C501B4010E9415294B01F1
:1032B0005C018101035A1F4F9B01AC01C701B6019C
:1032C0000E945826D8016D937D938D939C931397FC
:1032D0000C5F1F4F20E030E040E050E4C701B60132
:1032E0000E9457269B01AC010E945826F80160837A
:1032F0007183828393830C5F1F4FA5019401C701E3
:10330000B6010E945726CEC0A7019601C501B4019F
:103310000E9415290E94F4296B017C0120E030E015
:1033200040E450E40E9415294B015C01A70196017D
:103330000E9415296B017C01F101EF58FF4F60835A
:1033400071838283938338976083718382839383AD
:103350009B01AC010E9458262B013C01F101E3596D
:10336000FF4F60837183828393838101035A1F4FD0
:1033700020E030E040E85FE3C501B4010E94582638
:10338000A70196010E945826F80160837183828309
:1033900093830C5F1F4F20E030E040E050E4C30116
:1033A000B2010E945726D8016D937D938D939C9313
:1033B00013970C5F1F4FA501940160E070E080E857
:1033C0009FE30E945726A70196010E945826F80104
:1033D00060837183828393836BC0A7019601C501CB
:1033E000B4010E9415290E94F4294B015C019B0144
:1033F000AC010E9415296B017C01F101EF58FF4FD0
:1034000020E030E040E450E4208331834283538362
:1034100038972083318342835383349680E090E051
:10342000A0ECB0EC80839183A283B383C501B40187
:103430000E9415294B015C018101035A1F4F9B011A
:10344000AC01C701B6010E94582620E030E040E4FC
:1034500050E40E945826D8016D937D938D939C93E0
:1034600013970C5F1F4FA7019601C701B6010E9479
:10347000582620E030E040EC50E40E945726F80146
:1034800060837183828393830C5F1F4FA501940136
:10349000C701B6010E94572620E030E040E450E426
:1034A0000E945826D8016D937D938D939C9313971A
:1034B000F101E35AFF4FC080D180E280F3808101A7
:1034C00007591F4FA7019601F80160817181828120
:1034D00093810E94C926D8016D937D938D939C930F
:1034E00013970C5F1F4FA7019601F801608171814E
:1034F000828193810E94C926D8016D937D938D931B
:103500009C9313970C5F1F4FA7019601F8016081F0
:103510007181828193810E94C926D8016D937D9328
:103520008D939C93139700511109A7019601F801FF
:1035300060817181828193810E94C926D8016D9337
:103540007D938D939C9313970C5F1F4FA70196015A
:10355000F80160817181828193810E94C926D8011E
:103560006D937D938D939C931397085D1F4FF80186
:1035700084819581208131818217930779F1C184FB
:10358000D284C114D10461F043855485DA01ED8DF4
:10359000AE0FB11DF801B487A387CA16DB0618F475
:1035A0003583248323C0F801E280F380A90160E021
:1035B00070E09A01AB012E193F09410951090E949F
:1035C000442C960140E050E00E94252C2E0D3F1D1A
:1035D000D80115963C932E93149708C0F8012281C8
:1035E00033812817390711F093838283F101EF5655
:1035F000FF4FE080F180BD96F182E0827897F18202
:10360000E0827C96D0804701A12CB12C8101065626
:103610001F4FD80155968C9155978823E9F05696FF
:103620004D915D916D917C9159971A962C9189AD30
:103630000E943909282F30E02F5F3F4FD7010E94A9
:10364000792C4B015C01F801038404C0B694A79463
:10365000979487940A94D2F7D80150968C915097FA
:103660008823E9F051964D915D916D917C9154972D
:1036700014962C9189A90E943909A82FB0E01196BF
:10368000A50194010E94442C4B015C01F8010580C6
:1036900004C0B694A794979487940A94D2F7DD2037
:1036A000F1F0D80116964D915D916D917C9119972D
:1036B0001A962C918D2D0E943909A82FB0E01196F1
:1036C000A50194010E94442C4B015C01F801038484
:1036D00004C0B694A794979487940A94D2F7D8011B
:1036E0001F969C928E921E97AA24BB2453E0880CAE
:1036F000991CAA1CBB1C5A95D1F72DA53EA54FA518
:1037000058A982169306A406B50609F440C0ABA5D5
:10371000BCA58D929D92AD92BC92139700E010E0F3
:1037200060E074E284EF90E0002E04C0660F771F23
:10373000881F991F0A94D2F7A50194010E94572C63
:103740002F3F310551F048F081E090E001C0880F33
:103750000A95EAF78093020105C00F5F1F4F0830FA
:103760001105F1F621503109309301012093000138
:10377000B1E0B0936C0190910201EBA5FCA58481AE
:10378000981728F4809102018483B0936D0180E240
:10379000898380E290E00E945D2A9B838A83D10125
:1037A00054960D911C915597F80123812223B9F16C
:1037B000068117810115110551F4F101E454FF4F01
:1037C0000190F081E02D80818111A9C06BC02F890B
:1037D000388D0217130789F3009711F00E94F22A1F
:1037E000D8018C9189838C9190E00E945D2A9B8303
:1037F0008A8380E09981891700F7282F30E0D8016B
:103800001196ED91FC911297E20FF31F90814A817E
:103810005B81FA01E20FF31F90838F5FEBCFF8011A
:1038200081818F30C9F48281811116C0F12CD801B9
:103830008C91F81610F60E94DB2B880F892F881FB9
:10384000990B2A813B812115310521F0F901EF0DFA
:10385000F11D8083F394EBCF20E0D8018C912817E1
:1038600008F0ABCF822F90E0F8013281E181F0E0E7
:1038700040E1349FE00DF11D112435E0EE0FFF1FF4
:103880003A95E1F7E80FF91FE05FF94FE4914A81BB
:103890005B814115510521F0DA01A80FB91FEC93A6
:1038A0002F5FDBCF918191113AC0F101E45BFF4FB3
:1038B0008081882309F440C11FA21BA200E010E010
:1038C0003196FEA7EDA791012B583F4F3A8F298FD4
:1038D000A10143585F4F5E8F4D8FC10187599F4FA4
:1038E0009EAB8DABD101A359BF4FBBAFAAAFB4966E
:1038F0002296FFAFEEAF22972C5F3F4F38A32F8F5A
:103900004C51510924965FAF4EAF249704972696E9
:103910009FAF8EAF26975496BCA7ABA7EEC0B9ADAC
:103920002B2FBB0F330B21583F4F90E00196289F60
:10393000A001299F500D389F500D11246281852FC1
:103940000E9445264381682F70E0242F30E026171F
:1039500037070CF0482F80E090E0841708F0A5CFDF
:103960002A813B812115310521F0F901E80FF91F6A
:1039700010820196F2CFADA5BEA52C918A819B81C4
:10398000222309F4E0C0009729F0FC01E10FF11DAA
:10399000B081BBA3EBA16E2FEE0F770B75956795EA
:1039A00075956795072E000C880B990B0E94AD2723
:1039B0006B017C01A98DBA8D8D909D90AD90BC90CE
:1039C000AD8DBE8D2D913D914D915C9129AB3AAB62
:1039D0004BAB5CABEDA9FEA92081318142815381C3
:1039E0000E9415292B013C01AAADBBAD2D913D9143
:1039F0004D915C91C501B4010E9415299B01AC0158
:103A0000C301B2010E9458262B013C01EF8DF8A1A1
:103A100020813181428153812296AEADBFAD229784
:103A20006D917D918D919C910E9415299B01AC0116
:103A3000C301B2010E9458262B013C012496EEAD31
:103A4000FFAD2497208131814281538169A97AA9F0
:103A50008BA99CA90E9415299B01AC01C301B2014D
:103A60000E9457262B013C01ABA5BCA52D913D9191
:103A70004D915C912696EEADFFAD269760817181E8
:103A8000828193810E9415299B01AC01C301B2017F
:103A90000E945726AF8DB8A18D929D92AD92BC9297
:103AA0001397E98DFA8DC082D182E282F38229A92F
:103AB0003AA94BA95CA9ABA5BCA52D933D934D9309
:103AC0005C931397ED8DFE8D608371838283938366
:103AD0000E947527603871050CF443C06FE78A8136
:103AE0009B81009721F0FC01E10FF11D6083ADA5E2
:103AF000BEA58C9181113CC01F5F8981181708F405
:103B00003ACFEDA5FEA580818823B1F0602F000F8C
:103B1000770B880B990B0E94AD279B01AC0160E0ED
:103B200070E080E093E40E94C9264B015C01E12C27
:103B3000F12C8981F81648F1F10180A5E754FF4F77
:103B4000811163C04CC0009729F0FC01E10FF11D09
:103B500020812FA33FA1632F330F770B880B990B85
:103B600025CF6038FFEF7F070CF0B9CF60E8B7CF03
:103B7000062E000C770B77FF03C0719561957109D4
:103B800006170CF0B9CF062FB7CF0A811B8101159C
:103B9000110521F0F801EF0DF11DE0806E2D0E2CC6
:103BA000000C770B880B990B0E94AD27A50194019F
:103BB0000E9415290E9475276038710534F4603819
:103BC000FFEF7F071CF460E801C06FE701151105E6
:103BD00021F0F801EF0DF11D6083F394AACF01905D
:103BE000F081E02D8285811109C0A085B1851196F3
:103BF0000D90BC91A02D1C9221E0228740E030E086
:103C000020E0F101EA54FF4FC1C00190F081E02DA6
:103C10008281811103C09381992381F390E0019601
:103C200029AD2158289FA001299F500D112464819E
:103C3000852F0E9445262081682F70E0422F50E09A
:103C4000461757070CF4822F811101C081E0909133
:103C5000C901981748F4290F281B822FF12C00E086
:103C600010E050E040E072C0392F381B832FF6CFB0
:103C70002A813B812115310521F0D901A40FB11D05
:103C80005C91C52E052E000CDD0820853185D901FB
:103C900011966D917C9112976115710529F09B0128
:103CA000280F311DD9011C91212F012E000C330B3F
:103CB000058002C0359527950A94E2F72C0D3D1D2D
:103CC000203831050CF447C02FE76115710521F04C
:103CD000DB01A90FB11D2C932A813B8121153105F0
:103CE00021F0D901A40FB11D0C91A02F002E000CC2
:103CF000BB0B6D01078002C0D594C7940A94E2F70C
:103D000060857185DB0111966D917C91129761152B
:103D1000710521F0680F711DDB01FC906F2D0F2CD8
:103D2000000C770B068002C0759567950A94E2F740
:103D30006C0D2115310521F0D901A40FB11D6C9333
:103D400021819F5F92238F5F82234F5F29814217DA
:103D500008F48ECF07C02038BFEF3B070CF0B5CF7B
:103D600020E8B3CF9093C901128648CF6181822F9A
:103D70000E944526592F8A819B81552359F000972F
:103D800021F0DC01A20FB11D3C932F5F8981281720
:103D900068F318C0009721F0DC01A20FB11D4C910F
:103DA0003081642F042E000C770B032E02C0759512
:103DB00067950A94E2F7B62F01C0BB0F3A95EAF770
:103DC0003B2FDDCFF101E554FF4F408150E0B5E0DE
:103DD00055954795BA95E1F7E0E020E030E81FE718
:103DE0008981281778F58A819B81009721F0FC0151
:103DF000E20FF11DE0816E2F0E2E000C770B042ECA
:103E000002C0660F771F0A94E2F7603871053CF034
:103E10000097B1F0820F911DDC011C9311C0603836
:103E2000BFEF7B073CF4009759F0820F911DDC0136
:103E30003C9306C0009721F0820F911DDC016C932A
:103E40002F5FCECF8EAD9FAD0E9407094FE750E0A8
:103E5000B9AD4B1B5109B7FD5395F10120AD30E0D1
:103E60002F5F3F4F429FB001439F700D529F700DD7
:103E70001124672F7727082E000C990B97FF03C09A
:103E8000919581959109D101D9964C9150E04F5F60
:103E90005F4F849F9001859F300D949F300D1124BA
:103EA000220F232F221F330B319510E0A0E0EFEFFC
:103EB000F0E0E61BF70BBF0133278981A817F8F460
:103EC0008A819B81009721F0FC01EA0FF11D10818E
:103ED0001603A001179F500D1124452F550F550BA8
:103EE000249F7001259FF00C349FF00C1124009743
:103EF00021F08A0F911DFC01F082AF5FDECFD1016E
:103F00005A96ED91FC915B9780917101811125C0CA
:103F100090E020916E018217D0F42A813B81211517
:103F2000310521F0D901A80FB11D9C91A0916F011D
:103F3000B091700111962D913C9112972115310588
:103F400021F0D901A80FB11D9C938F5FE2CF809122
:103F500002018483B1E0B0936D018A819B81009757
:103F600011F00E94F22A80E090E0892B11F40C9469
:103F700064110E9400000C9464118091C50190911D
:103F8000C6010E94F9090C944B118091C00085FF75
:103F9000FCCF6093C600089502970C94C51F089546
:103FA0000895DC011496ED91FC911597EA5AFF4FA4
:103FB00060830895DC011696ED91FC911797EA5AFB
:103FC000FF4F608308950895CF92DF92EF92FF92A2
:103FD0000F931F93CF93DF938DE491E09093C201F1
:103FE0008093C10181E691E09093C4018093C30165
:103FF00080911B0381113EC18DE191E09093D60128
:104000008093D5018DE391E09093D8018093D701FF
:1040100083E491E09093DA018093D9011092DB015F
:104020001092DC011092DD011092DE0180E09DE72C
:10403000A0E0B0E08093DF019093E001A093E10164
:10404000B093E2011092E4011092E3011092EB01AF
:104050001092EC018FEF9FE79093F2018093F101B2
:104060009093F4018093F3019093F6018093F5010E
:1040700024E731E03093F8012093F7011092FA0120
:104080001092F9011092FB011092FC011092FD01B7
:104090001092FE01909300028093FF019093020220
:1040A00080930102909304028093030230930602EE
:1040B0002093050210920802109207021092090242
:1040C00010920A0210920B0210920C0210920D0232
:1040D0008FEF80930E0268E1C62E62E7D62E61EB69
:1040E000E62E6FE3F62EC0920F02D0921002E092FD
:1040F0001102F092120240E44093130236E0309332
:10410000140280E090E0A0E0BFE38093150290935A
:104110001602A0931702B09318028DE99CE9ACE94E
:10412000BDE38093190290931A02A0931B02B093EF
:104130001C0288E780931D0280E197E290931F02A2
:1041400080931E021092200221E0209321021092FF
:104150002202109223021092240210922502109241
:104160002602109227021092280210922902109221
:104170002A0210922B0210922C0210922D0280E043
:1041800090E0A0E8BFE38093320290933302A093C3
:104190003402B093350282E080935A0281E090E0CD
:1041A00090935C0280935B0284E080935D021092A6
:1041B0005E0210925F02109260021092610288EB20
:1041C00091E09093630280936202909365028093E2
:1041D00064029093670280936602109268021092C4
:1041E0006A021092690210926C0210926B02109295
:1041F0006E0210926D02C0926F02D0927002E09235
:104200007102F0927202409373023093740248E19B
:1042100052E761E37FE34093750250937602609327
:1042200077027093780240E84093790257E0509308
:104230007A0210928B0220938C0210928D021092BF
:1042400090029093940280939302109295021092A0
:104250009602109297028CE38093980280939902C1
:10426000EAE9F2E0DF011D924A95E9F730931A037B
:1042700020931B0385ED91E09093C6018093C501C7
:1042800080918403811145C0E6E2F3E0DF011197DC
:104290001C9210821282118213823596B3E0E434AC
:1042A000FB07A1F7E5E4F3E080E090E044E620EDD1
:1042B00037E0DF0112971C9211961C921082128235
:1042C0001182DC01AD5DBC4F95961C929597969638
:1042D0004C9336832583099639968633910549F7A1
:1042E0001092790310927A0310927B0310927C0350
:1042F00010927D0310927E0310927F031092800330
:1043000010928103109282031092830381E08093C4
:10431000840383E293E09093C8018093C70183EC08
:1043200091E09093EE018093ED0188E190E00E948E
:104330005D2AEC0188E0E1E1F1E0DE0101900D92FF
:104340008A95E1F718861986FE013A968CE0DF011E
:104350001D928A95E9F78FEF8A87888B89ED91E026
:10436000009719F41F8A1E8A02C09F8B8E8BD093F0
:10437000E801C093E70188E090E00E945D2AEC012B
:1043800019821A821B8210E2188383E090E00E9457
:104390005D2A7C01FC01108380E290E00E945D2A8E
:1043A000D70112969C938E931197FF82EE8280E63E
:1043B00091E09D838C8360E0CE010E94B90BD09385
:1043C000EA01C093E90185E090E00E945D2AEC01DA
:1043D00080E097E3A0E0B0E088839983AA83BB8361
:1043E0001C8210936E0180916E01815080930301B5
:1043F00083E090E00E945D2A7C01FC01108380E252
:1044000090E00E945D2AD70112969C938E9311979B
:10441000F092CF01E092CE0183E090E00E945D2A0D
:104420007C01FC01108380E290E00E945D2AD701AC
:1044300012969C938E931197F0927001E0926F0107
:10444000D093F001C093EF018BE090E00E945D2AD1
:10445000EC011A821B8281E08D838E838F831A8602
:1044600018838FE1898308E00C8383E090E00E9449
:104470005D2A7C01FC01108380E290E00E945D2AAD
:10448000D70112969C938E931197F986E886D09364
:104490008F02C0938E0260911A0385ED91E00E9415
:1044A0008E078EE890E00E945D2AFC018DE78083F4
:1044B0001182148215821682178210861286118646
:1044C000148613861586C0E89F01225F3F4FD901ED
:1044D000DC2F1D92DA95E9F785ED91E093838283D5
:1044E000F093E601E093E5018AE090E00E945D2A06
:1044F000FC01128282E0838381E090E095838483D3
:10450000068317828FE08087C18787ED91E09183D2
:104510008083F0938A02E093890284E090E00E9415
:104520005D2AFC0110821182138302839093920210
:1045300080939102E091C701F091C80181EC91E074
:1045400091838083F894DF01139680E090E037E850
:1045500080937C0020917C00206420937C0020913B
:104560007C00206220937C0030937A0020917A00B6
:10457000206420937A0020917A0026FDFCCF2091C0
:104580007900EC01C858DE4F2883ED01219718828D
:104590002C9312961C921E92119713962C9313979C
:1045A000019615968630910599F610927C008091BF
:1045B0007C00806480937C0080917C00806280938A
:1045C0007C008FE880937A0080917A0080648093E9
:1045D0007A0052985A9825982D9824982C982098CB
:1045E000289857985F9854985C98219A2998239A0C
:1045F0002B98229A2A98559A5D98569A5E98539AC3
:104600005B9833B129B1822F90E0AC015595479565
:1046100055954795B42FB170B0A311A2B2A314A2BF
:1046200013A215A260ED77E070A767A349E146A346
:10463000432F50E0EA01A5E0D595C795AA95E1F78B
:10464000AC2FA170A1A712A6A3A715A614A616A603
:10465000C4E6FC2EF7A671AB60ABD4E05595479548
:10466000DA95E1F7417042AB13AA44AB16AA15AA3A
:1046700017AAF0AE72AF61AF317033AF14AE35AF81
:1046800017AE16AE8F01005C1F4FE80118820F5F56
:104690001F4FE801F8820F5F1F4FE801798368839D
:1046A000221F2227221F0E5F1F4FE80128830F5F62
:1046B0001F4FE80118820F5F1F4FE80128830F5F2B
:1046C0001F4FE801198218820E5F1F4FE801188200
:1046D0000F5F1F4FE801F8820F5F1F4FE8017983DA
:1046E000688354E0959587955A95E1F781700E5F40
:1046F0001F4FE80188830F5F1F4FE80118820F5F8B
:104700001F4FE80188830F5F1F4FE801198218824D
:104710000E5F1F4FE80118820F5F1F4FE801F882FC
:10472000EC5AFF4F71836083B0937201A0937301C1
:104730004093740130937501209376018093770143
:1047400080916B00806280936B0080916B00806130
:1047500080936B0080916B00816080936B00D89A8E
:104760008091680081608093680080916D00846012
:1047700080936D0080916D00806880936D008091C2
:104780006D00806180936D00DA9A8091680084608A
:10479000809368007894DF91CF911F910F91FF90E3
:1047A000EF90DF90CF9008950F931F93CF93DF93F7
:1047B000EC01362F423009F441C028F4442361F063
:1047C000413099F1BBC0443009F493C008F45AC099
:1047D000453009F498C0B2C0611102C029AFAEC023
:1047E000DC01AD53BF4F8C91FE01E80FF11DEB537F
:1047F000FF4F90812695269568E1620F861709F490
:104800009DC06C93FE01EC53FF4F6083992309F424
:1048100095C0E881F9810190F081E02D4FE7CE014C
:10482000DF91CF911F910F910994611103C0C85B73
:10483000DF4F02C0C55BDF4F288380C0622F70E06E
:1048400080E090E0311108C0FE01E15BFF4F208362
:104850008E01005B1F4F23C0C656DF4F288B0E947E
:10486000AB27288139814A815B810E94152920E08C
:1048700030E04FE753E40E94C926698B7A8B8B8B1B
:104880009C8B5CC0622F70E080E090E031111BC017
:10489000FE01EC5AFF4F20838E010B5A1F4F0E94DE
:1048A000AB272AAD3BAD4CAD5DAD0E94152920E094
:1048B00030E04FE753E40E94C926F801608371831A
:1048C000828393833BC0C656DF4F2D8B0E94AB275C
:1048D0002E813F81488559850E94152920E030E0CE
:1048E0004FE753E40E94C9266E8B7F8B888F998F88
:1048F00025C0611102C028AF21C0C454DF4FE88138
:10490000F98120831BC0611103C0C554DF4F94CFD0
:10491000C754DF4FE881F981228321110FC08381C1
:1049200081110CC08285811109C0A085B1851196C5
:104930000D90BC91A02D1C9281E08287DF91CF91D8
:104940001F910F91089504970C94D4236038A1F01F
:104950004034C9F034E0FC0130A721E021A736AB98
:1049600027AB403881F04F73FC01EC53FF4F60815F
:10497000640F67FF06C00895403829F0403499F766
:1049800008950C94B407089502970C94A624EF920E
:10499000FF920F931F93CF93DF93EC01162F042FF9
:1049A000862F90E08930910508F050C1FC01ED5B45
:1049B000FF4F0C945126642F70E0FB01E05AF34F37
:1049C000E491AC89BD891296EC93FB01E05BF34F57
:1049D00064918C899D89DC0111966C9311971396D3
:1049E0002C91222309F432C10E94B90B2FC1FE0180
:1049F000E45BFF4F4083842F90E0FC013597E73064
:104A0000F105D0F4E45BFF4FDE01A75ABF4F0C94D1
:104A1000512647E25DE16EE973E409C049EA5EE9C7
:104A200063EE7FE304C040E053EF63EB70E44D932B
:104A30005D936D937C931397FE01EB58FF4F1082AB
:104A40001182128213823496108211821282138292
:104A5000349610821182128213823496108211824F
:104A600012821382F3C0842F90E0FC01E05CF34FCC
:104A7000E491F0E0EE0FFF1FE05EF34F25913491DB
:104A80003BA72AA721E02FAB9C01205F334FF90100
:104A90004491E42FF0E0EE0FFF1FE05EF34F4591ED
:104AA00054915DA74CA7FC01E050F44F849190E035
:104AB000880F991F8052944FFC01459154915FA734
:104AC0004EA7F9012491E22FF0E0EE0FFF1FE05E08
:104AD000F34F8591949199AB88ABB8C0842F90E047
:104AE000FC01E05CF34FE491F0E0EE0FFF1FE05EAD
:104AF000F34F259134913D8F2C8F21E029A79C0104
:104B0000205F334FF9014491E42FF0E0EE0FFF1FD7
:104B1000E05EF34F459154915F8F4E8FFC01E05062
:104B2000F44F849190E0880F991F8052944FFC01BC
:104B30004591549159A348A3F9012491E22FF0E043
:104B4000EE0FFF1FE05EF34F859194919BA38AA324
:104B50007DC0FE01E757FF4F408378C0DE01AB57B1
:104B6000BF4F4C93842F90E0FC01EE0FFF1FE056E7
:104B7000F44F2591349112963C932E931197FC019A
:104B8000E057F44FE4911396EC9360C0CE01835745
:104B90009F4F9E012A543F4F7901483018F5E0ECB1
:104BA000FBE025913491DC0118963C932E931797E6
:104BB0000E942F0E802F880FF7018283811104C07D
:104BC000108281E0818342C0982F93709C5FD7014F
:104BD00090838695869591E001C0990F8A95EAF7B2
:104BE000892F13C0B4E04B9FF0011124EE55F44F10
:104BF00025913491FC01308727830E942F0ED70125
:104C000012961C9212971C9281E011968C931EC0F2
:104C1000FE01EC54FF4FE080F180F7014283411127
:104C200015C080819181DC01ED91FC910190F081B2
:104C3000E02D40E8D70119966C91099580E8F701BD
:104C4000818704C0642FCE010E948E078E891813BD
:104C500012C0888D998DDC01ED91FC910190F0815D
:104C6000E02D20E0402F612FDF91CF911F910F9118
:104C7000FF90EF900994DF91CF911F910F91FF90DA
:104C8000EF90089504970C94C724991B79E004C011
:104C9000991F961708F0961B881F7A95C9F780957B
:104CA0000895EE0FFF1F0590F491E02D09945058E0
:104CB000BB27AA270E946F260C9451280E9418280F
:104CC00038F00E941F2820F039F49F3F19F426F491
:104CD0000C94EE270EF4E095E7FB0C94E827E92FFF
:104CE0000E94762858F3BA1762077307840795075E
:104CF00020F079F4A6F50C9498280EF4E0950B2E8C
:104D0000BA2FA02D0B01B90190010C01CA01A0011D
:104D10001124FF27591B99F0593F50F4503E68F178
:104D20001A16F040A22F232F342F4427585FF3CFB9
:104D3000469537952795A795F0405395C9F77EF48A
:104D40001F16BA0B620B730B840BBAF09150A1F0D3
:104D5000FF0FBB1F661F771F881FC2F70EC0BA0F59
:104D6000621F731F841F48F4879577956795B795E1
:104D7000F7959E3F08F0B0CF9395880F08F09927DC
:104D8000EE0F9795879508950E942828E3950C9437
:104D900062280E94DD260C9451280E941F2858F09A
:104DA0000E94182840F029F45F3F29F00C94E8276E
:104DB00051110C9499280C94EE270E94762868F3E0
:104DC0009923B1F3552391F3951B550BBB27AA27C4
:104DD00062177307840738F09F5F5F4F220F331FFE
:104DE000441FAA1FA9F335D00E2E3AF0E0E832D0C6
:104DF00091505040E695001CCAF72BD0FE2F29D0C9
:104E0000660F771F881FBB1F261737074807AB079A
:104E1000B0E809F0BB0B802DBF01FF2793585F4F0F
:104E20003AF09E3F510578F00C94E8270C949928AD
:104E30005F3FE4F3983ED4F3869577956795B795F1
:104E4000F7959F5FC9F7880F911D9695879597F9FC
:104E50000895E1E0660F771F881FBB1F6217730775
:104E60008407BA0720F0621B730B840BBA0BEE1F8A
:104E700088F7E095089529F416F00C94E8270C942F
:104E800098280C94EE270E947E28A8F39638A0F765
:104E900007F80F92E8942BE33AEA48EB5FE70E94A9
:104EA0002B290F920F920F924DB75EB70F920E946F
:104EB000E128E6EAF0E00E94F1274F915F91EF913F
:104EC000FF91E595EE1FFF1F49F0FE57E06844276C
:104ED000EE0F441FFA95E1F74195550B0E94AB2860
:104EE0000F9007FE0C949F2808950E947C276894D9
:104EF000B1110C94992808950E947E2888F09F573C
:104F000098F0B92F9927B751B0F0E1F0660F771FED
:104F1000881F991F1AF0BA95C9F714C0B13091F0E3
:104F20000E949828B1E008950C949828672F782F54
:104F30008827B85F39F0B93FCCF3869577956795A8
:104F4000B395D9F73EF490958095709561957F4F14
:104F50008F4F9F4F0895E89409C097FB3EF49095BA
:104F60008095709561957F4F8F4F9F4F9923A9F042
:104F7000F92F96E9BB279395F695879577956795D1
:104F8000B795F111F8CFFAF4BB0F11F460FF1BC015
:104F90006F5F7F4F8F4F9F4F16C0882311F096E9A8
:104FA00011C0772321F09EE8872F762F05C0662356
:104FB00071F096E8862F70E060E02AF09A95660F0F
:104FC000771F881FDAF7880F9695879597F90895C8
:104FD00097F99F6780E870E060E008959FEF80ECAC
:104FE0000895DF93CF931F930F93FF92EF92DF9279
:104FF0007B018C01689406C0DA2EEF010E942829FB
:10500000FE01E894A5912591359145915591A6F31E
:10501000EF010E946F26FE019701A801DA9469F75B
:10502000DF90EF90FF900F911F91CF91DF91089546
:1050300000240A9416161706180609060895002477
:105040000A94121613061406050608950C94EE270A
:105050000E947E28D8F3E894E0E0BB279F57F0F049
:105060002AED3FE049EC06C0EE0FBB0F661F771F2D
:10507000881F28F0B23A62077307840728F0B25AF3
:10508000620B730B840BE3959A9572F7803830F4BA
:105090009A95BB0F661F771F881FD2F790480C9414
:1050A000362A092E0394000C11F4882352F0BB0F0A
:1050B00040F4BF2B11F460FF04C06F5F7F4F8F4F30
:1050C0009F4F0895EF93E0FF07C0A2EA2AED3FE06B
:1050D00049EC5FEB0E946F260E9451280F900394C9
:1050E00001FC9058EEECF0E00C94492A57FD9058E2
:1050F000440F551F59F05F3F71F04795880F97FB9C
:10510000991F61F09F3F79F0879508951216130655
:105110001406551FF2CF4695F1DF08C01616170684
:105120001806991FF1CF86957105610508940895B9
:10513000E894BB2766277727CB0197F908959B0151
:10514000AC0160E070E080E89FE30C94C9260C9409
:10515000E8270C94342A0E947E28D8F39923C9F3B7
:10516000940F511DA3F39150504094F059F08823AF
:1051700032F0660F771F881F91505040C1F79E3F55
:1051800051052CF7880F911D9695879597F90895ED
:105190005F3FACF0983E9CF0BB278695779567956E
:1051A000B79508F4B1609395C1F7BB0F58F711F4A8
:1051B00060FFE8CF6F5F7F4F8F4F9F4FE3CF0C941F
:1051C0009928FA01DC01AA0FBB1F9B01AC01BF5754
:1051D00028F4222733274427507820C0B75190F471
:1051E000AB2F0024469537952795011CA395D2F344
:1051F000002071F0220F331F441FB395DAF30ED055
:105200000C94572661307105A0E88A07B94630F43E
:105210009B01AC016627772788279078309621F08C
:10522000208331834283538308950E9428290C945C
:1052300051280E94182838F00E941F2820F095233A
:1052400011F00C94E8270C94EE2711240C94992863
:105250000E94762870F3959FC1F3950F50E0551F7B
:10526000629FF001729FBB27F00DB11D639FAA27BB
:10527000F00DB11DAA1F649F6627B00DA11D661F0A
:10528000829F2227B00DA11D621F739FB00DA11D2B
:10529000621F839FA00D611D221F749F3327A00DE5
:1052A000611D231F849F600D211D822F762F6A2F81
:1052B00011249F5750409AF0F1F088234AF0EE0FE6
:1052C000FF1FBB1F661F771F881F91505040A9F713
:1052D0009E3F510580F00C94E8270C9499285F3F7D
:1052E000E4F3983ED4F3869577956795B795F7954F
:1052F000E7959F5FC1F7FE2B880F911D96958795C7
:1053000097F908950E947E28E8F09E37E8F09639D4
:10531000B8F49E3848F4672F782F8827985FF9CF24
:1053200086957795679593959539D0F3B62FB1709B
:105330006B0F711D811D20F4879577956795939567
:105340000C94192A0C94342A0C9499289F930E9447
:1053500028280F9007FCEE5F0C94622819F416F4CD
:105360000C94EE270C94342A0E947E28B8F39923DB
:10537000C9F3B6F39F57550B87FF0E94422A0024BA
:10538000A0E640EA900180585695979528F4805CF5
:10539000660F771F881F20F026173707480730F45D
:1053A000621B730B840B202931294A2BA695179475
:1053B0000794202531254A2758F7660F771F881F45
:1053C00020F026173707480730F4620B730B840B65
:1053D000200D311D411DA09581F7B901842F9158F1
:1053E000880F969587950895DF93D92F0E942828D6
:1053F000E695D7952AED3FE049E45FE3B33A6207CB
:10540000730784079507D7953AF0A2EA49EC9068AC
:105410000E946F260E945128ECEEF0E00E94492A7B
:10542000DD0F13F00E949F28DD0F0BF49058DF91E1
:105430000895882371F4772321F09850872B762FD5
:1054400007C0662311F499270DC09051862B70E098
:1054500060E02AF09A95660F771F881FDAF7880FA9
:105460009695879597F908959F3F31F0915020F4D4
:10547000879577956795B795880F911D9695879530
:1054800097F9089591505040660F771F881FD2F703
:1054900008959F938F937F936F93FF93EF939B0157
:1054A000AC010E941529EF91FF910E94F1272F91E5
:1054B0003F914F915F910C941529CF93DF938230E8
:1054C000910510F482E090E0E0919403F09195034F
:1054D00020E030E0C0E0D0E0309711F14081518110
:1054E00048175907C0F04817590761F48281938122
:1054F000209719F09B838A832BC090939503809308
:10550000940326C02115310519F04217530718F4EA
:105510009A01BE01DF01EF010280F381E02DDCCFB3
:105520002115310509F1281B390B2430310590F480
:1055300012968D919C9113976115710521F0FB01D5
:105540009383828304C09093950380939403FD0119
:10555000329644C0FD01E20FF31F819391932250D4
:1055600031092D933C933AC02091920330919303DB
:10557000232B41F42091090130910A0130939303C8
:1055800020939203209107013091080121153105E4
:1055900041F42DB73EB740910B0150910C01241BF3
:1055A000350BE0919203F0919303E217F307A0F417
:1055B0002E1B3F0B2817390778F0AC014E5F5F4F69
:1055C0002417350748F04E0F5F1F50939303409305
:1055D00092038193919302C0E0E0F0E0CF01DF916C
:1055E000CF9108950F931F93CF93DF93009709F402
:1055F0008CC0FC01329713821282009194031091A7
:1056000095030115110581F420813181820F931FCB
:1056100020919203309193032817390779F5F0937D
:105620009303E093920371C0D80140E050E0AE17BD
:10563000BF0750F412962D913C911397AD0121159F
:10564000310509F1D901F3CF9D01DA0133832283BA
:1056500060817181860F971F8217930769F4EC01AF
:1056600028813981260F371F2E5F3F4F31832083DA
:105670008A819B8193838283452B29F4F093950340
:10568000E093940342C01396FC93EE931297ED01BE
:10569000499159919E01240F351FE217F30771F4C8
:1056A00080819181840F951F029611969C938E9311
:1056B0008281938113969C938E931297E0E0F0E0A1
:1056C000D80112968D919C911397009719F0F801CB
:1056D0008C01F6CF8D919C9198012E5F3F4F820FE8
:1056E000931F20919203309193032817390769F48F
:1056F000309729F4109295031092940302C01382FC
:1057000012821093930300939203DF91CF911F9124
:105710000F91089581E090E0F8940C94882C8F927A
:105720009F92AF92BF92CF92DF92EF92FF92CF9370
:10573000DF93EC01688179818A819B816115710514
:105740008105910521F464E279ED8BE597E02DE187
:1057500033EF41E050E00E94252C49015A019B01A2
:10576000AC01A7EAB1E40E94442C6B017C01ACEED1
:10577000B4EFA50194010E94522CDC01CB018C0DE9
:105780009D1DAE1DBF1DB7FF03C00197A109B04805
:1057900088839983AA83BB839F77DF91CF91FF9002
:1057A000EF90DF90CF90BF90AF909F908F90089533
:1057B0000E948F2B08958DE091E00E948F2B089519
:1057C000A0E0B0E080930D0190930E01A0930F0133
:1057D000B09310010895DC01CB01FC01F999FECFD3
:1057E00006C0F2BDE1BDF89A319600B40D92415069
:1057F0005040B8F70895F999FECF92BD81BDF89A4F
:10580000992780B50895DC01A40FB51F4150504081
:1058100048F0CB01840F951F2E910E94142C41500B
:105820005040D0F70895262FF999FECF92BD81BD43
:10583000F89A019700B4021639F01FBA20BD0FB6CE
:10584000F894FA9AF99A0FBE0895052E97FB1EF464
:1058500000940E943C2C57FD07D00E94572C07FC57
:1058600003D04EF40C943C2C5095409530952195E6
:105870003F4F4F4F5F4F089590958095709561957C
:105880007F4F8F4F9F4F08950E94792CA59F900DB9
:10589000B49F900DA49F800D911D11240895B7FF12
:1058A0000C94442C0E94442C821B930B0895A1E27B
:1058B0001A2EAA1BBB1BFD010DC0AA1FBB1FEE1F8A
:1058C000FF1FA217B307E407F50720F0A21BB30BD5
:1058D000E40BF50B661F771F881F991F1A9469F751
:1058E00060957095809590959B01AC01BD01CF01AD
:1058F0000895A29FB001B39FC001A39F700D811DA9
:105900001124911DB29F700D811D1124911D0895C8
:1059100016E0CAE3D6E004C0FE010E94512621969B
:10592000CB33D107C9F7F894FFCF700401FF01FF13
:10593000FF00009603800001000000106000F600E8
:1059400008050000000000FA0CAF0C960CE00C6893
:1059500006670666066506240D910CC724D4238DC0
:1059600007A624FEFF0000C424FCFF000042268C92
:1059700007A324000000001A0B880A8B0969068B14
:1059800007DA1FD01FC51FFEFF0000D11FCF1FCC9D
:105990001F00FFFFFFFFFFFFFFFFFFFFFFFFFFFFF6
:1059A000FFFFFFFFFFFFFFFFFFFFFFFFFFFFFFFF07
:1059B000FFFFFFFFFFFFFFFFFFFFFFFFFFFFFFFFF7
:1059C000FFFFFFFFFFFFFFFFFFFFFFFFFFFFFFFFE7
:1059D000FFFFFFFFFFFFFFFFFFFFFFFFFFFFFFFFD7
:1059E000FFFFFFFFFFFFFFFFFFFFFFFFFFFFFFFFC7
:1059F000FFFFFFFFFFFFFFFFFFFFFFFFFFFFFFFFB7
:105A0000782F8827985FF9CF869577956795939536
:105A10009539D0F3B62FB1706B0F711D811D20F435
:105A200087957795679593956AC084C007CF9F93B4
:105A300099DE0F9007FCEE5FCDCE11F40EF45BCE35
:105A400079C0E1DED0F39923D9F3CEF39F57550BFC
:105A500087FF7ED00024A0E640EA9001805856954A
:105A6000979528F4805C660F771F881F20F0261713
:105A70003707480730F4621B730B840B2029312948
:105A80004A2BA69517940794202531254A2758F7C5
:105A9000660F771F881F20F026173707480730F456
:105AA000620B730B840B200D311D411DA09581F7F6
:105AB000B901842F9158880F969587950895DF93A3
:105AC000D92F50DEE695D7952AED3FE049E45FE314
:105AD000B33A6207730784079507D7952AF0A2EABD
