:100000000C943C060C9464060C9464060C94350C19
:100010000C9464060C94610C0C9464060C946406B5
:100020000C9464060C9464060C9464060C94AC2640
:100030000C9464060C9464060C9464060C94640698
:100040000C9441280C9464060C948D0C0C9464065A
:100050000C9464060C94FC0B0C9464060C946406DB
:100060000C9464060C946406511164116911891191
:10007000CA11CF11D511F511FE11F618FB18F118A0
:10008000F618FB18F618FB188819C0192E1A8A1AC8
:10009000DE1ADE1ADE1A601B601B541C541C4E1D37
:1000A000AC1D061E5C1E07634236B79BD8A71A39E3
:1000B000685618AEBAAB558C1D3CB7CC5763BD6DB6
:1000C000EDFD753EF6177231BF000000803F05A8B8
:1000D0004CCDB2D44EB93836A9020C50B9918688AD
:1000E000083CA6AAAA2ABE000000803F0664EC1BBA
:1000F0003C04BC163E3BE5B93CC93C37C29E5A3D68
:10010000660498083EEA69AAAA3E000000803F0003
:100110000F00000F0007000F00000000000707009D
:100120000003050507070B0B000507000307070F72
:1001300000000000000000000303050707070B0F85
:1001400000000000000000000101010101010100A8
:100150000004090102030B0E00010407080C0D0F37
:10016000000005000E001B002E004D007B00C300A8
:100170003201DD01E4027904E806A80A6F1054197F
:1001800000000008001100190022002A0033003B83
:100190000044004C0055005D0066006E0077FF7F54
:1001A000FF7FFF0F9005AA027401D9008500560059
:1001B000390026001A0013000D0009000700050091
:1001C0000800090009000A000A000B000C000C00DE
:1001D0000D000E000F000F001000110012001300A0
:1001E00015001600170018001A001C001D001F0043
:1001F000210023002500270029002C002E003100BB
:10020000340037003A003E004100450049004E00EE
:10021000520057005C00620068006E0075007B00B1
:1002200083008B0093009C00A500AF00B900C400C0
:10023000D000DC00E900F7000601150126013701B6
:100240004A015D01720188019F01B801D201EE01EE
:100250000B022A024B026E029302BA02E40210035E
:100260003F037003A403DC03170455049704DD0463
:1002700027057505C80520067D06E0064907B8076D
:100280002D08A9082D09B9094D0AEA0A900B400C5E
:10029000FA0CC00D910E6F0F5A1053115B127213AE
:1002A0009A14D41520178018F519801B231DDE1E03
:1002B000B420A622B524E4263429A72B402E0031F1
:1002C000000000000000000000000000000000002E
:1002D0002B2724271F1B181B130F0C0F07030003CA
:1002E000003C043909340C30102D152818241C2D1D
:1002F00010401F001F40100010401F001F401080C2
:10030000150502050705040015050205070504008B
:10031000020502050407040700040004090109019D
:100320000040800740800340800540800280020238
:100330000C21130E0C150702020407150E101321D1
:1003400000800303058007070880161617170F4063
:1003500000400780004007048004078000048004F8
:100360000003070A0C0F1316181B1F2224272B2E1D
:1003700000400C400B4007400C4040800B400740C1
:1003800029241D18110C050027241D18110C050027
:100390000040050700000507004005070005070CA1
:1003A000000C0007000A000700090007000A000708
:1003B00018171A151A1318121810180E180C180BF3
:1003C000000C1925313C47515A626A70757A7D7E5E
:1003D0007F7E7D7A75706A625A51473C3125190CCF
:1003E00000F4E7DBCFC4B9AFA69E96908B868382DC
:1003F000818283868B90969EA6AFB9C4CFDBE7F44B
:10040000000810182028303840474F575F676F7733
:100410007F776F675F574F474038302820181008A4
:1004200000F8F0E8E0D8D0C8C0B9B1A9A199918985
:1004300081899199A1A9B1B9C0C8D0D8E0E8F0F8F4
:100440007F7B77736F6B67635F5B57534F4B47439C
:10045000403C3834302C2824201C1814100C08047C
:1004600000FCF8F4F0ECE8E4E0DCD8D4D0CCC8C46C
:10047000C0BDB9B5B1ADA9A5A19D9995918D89854D
:10048000818181818182828282828283838383844B
:10049000848485858686878788898A8A8B8C8D8FD8
:1004A0009091939597999B9DA0A3A6A9ADB1B6BB3A
:1004B000C0C6CCD3DBE3ECF5000C18263545576BF2
:1004C00000193046586670767876726C655F5956BA
:1004D0005556595F656C7276787670665846301955
:1004E00000E7D0BAA89A908A888A8E949BA1A7AA7E
:1004F000ABAAA7A19B948E8A888A909AA8BAD0E7C3
:100500007F7F7F7F818181818181818181818181E3
:1005100081818181818181818181818181818181CB
:1005200081818181818181818181818181818181BB
:1005300081818181818181818181818181818181AB
:100540007F7F7F7F7F7F7F7F7F7F7F7F7F7F7F7FBB
:10055000818181818181818181818181818181818B
:10056000818181818181818181818181818181817B
:10057000818181818181818181818181818181816B
:100580007F7F7F7F7F7F7F7F7F7F7F7F7F7F7F7F7B
:100590007F7F7F7F7F7F7F7F7F7F7F7F7F7F7F7F6B
:1005A000818181818181818181818181818181813B
:1005B000818181818181818181818181818181812B
:1005C0007F7F7F7F7F7F7F7F7F7F7F7F7F7F7F7F3B
:1005D0007F7F7F7F7F7F7F7F7F7F7F7F7F7F7F7F2B
:1005E0007F7F7F7F7F7F7F7F7F7F7F7F7F7F7F7F1B
:1005F00081818181818181818181818181818181EB
:100600007F7F7F7F7F7F7F7F7F7F7F7F7F7F7F7FFA
:100610007F7F7F7F7F7F7F7F7F7F7F7F7F7F7F7FEA
:100620007F7F7F7F7F7F7F7F7F7F7F7F7F7F7F7FDA
:100630007F7F7F7F7F7F7F7F7F7F7F7F81818181C2
:100640000004080C1014181C2024282C3034383CCA
:100650004043474B4F53575B5F63676B6F73777BC9
:100660007F7F7F7F7F7F7F7F7F7F7F7F7F7F7F7F9A
:100670007F7F7F7F7F7F7F7F7F7F7F7F7F7F7F7F8A
:100680007F7F7F7F7F7F7F7F7F7F7F7F7F7F7F7F7A
:100690007F7F7F7F7F7F7F7F7F7F7F7F7F7F7F7F6A
:1006A0007F7B77736F6B67635F5B57534F4B47433A
:1006B000403C3834302C2824201C1814100C08041A
:1006C0007F7F7F7F7F7F7F7F7F7F7F7F7F7F7F7F3A
:1006D000818181818181818181818181818181810A
:1006E0007F7F7F7F7F7F7F7F81818181818181810A
:1006F0007F7F7F7F7F7F7F7F8181818181818181FA
:100700007F7F7F7F7F7F7F7F8181818181818181E9
:100710007F7F7F7F7F7F7F7F8181818181818181D9
:100720007F7F7F7F7F7F7F7F7F7F7F7F7F7F7F7FD9
:100730007F7F7F7F7F7F7F7F8181818181818181B9
:1007400098B8F25BDD26ECEB532F16B79198E41BBB
:100750004F192290D31424E284B6A1383FA55E4EEF
:1007600087E53192E718F70BB041F6C89B74693AF8
:10077000BD94815FB95836FE536DDB3B28B354E41A
:100780007F7F7F7F7F7F7F7F7F7F7F7F7F7F7F7F79
:100790007F7F7F7F7F7F7F7F7F7F7F7F7F7F7F7F69
:1007A0007F7F7F7F7F7F7F7F7F7F7F7F7F7F7F7F59
:1007B0007F7F7F7F7F7F7F7F7F7F7F7F7F7F7F7F49
:1007C0000605041005030F040210010F000E0000BF
:1007D000010001000100551503000100551503003B
:1007E0000100555501005555010055550200040002
:1007F00000010102020304040505060707080909B0
:100800000A0B0B0C0D0D0E0F0F10111212131414F6
:100810001516171718191A1B1B1C1D1E1F1F202128
:100820002223242525262728292A2B2C2D2E2F2F3D
:10083000303132333435363738393A3B3D3E3F403C
:1008400041424344454648494A4B4C4D4F50515212
:1008500053555657595A5B5C5E5F606263646667C6
:10086000696A6B6D6E707173747677797A7C7D7F4F
:100870000FF0808080808080808080808080808079
:1008800080807F7F7F7F7F7F7F7F7F7F7F7F7F7F76
:100890007F7F4B595C5C5C5B5A59F5EBE8E7E61CE3
:1008A0005155FEF2F0EFEFEFEFEF8982808081BBD0
:1008B000F0F6737E51FE8697A6BD525D686DF09C82
:1008C00080952E3A464DCFDEECF90714212BACBBB8
:1008D000CADB6A7F7D7C7B7A7979DCD1D2D2D2D3B4
:1008E000D3D3D4D4D5D5D5D6D6D6D7D7D7D8D8D8AC
:1008F000D9DD80878F979FA7AFB7BFC7CFD7DFE777
:10090000EFF7FF070F171F272F373F474F575F6737
:100910006F7707141F2C37434E59646E777F45A6B7
:10092000E108DFA7C3D8D2CE93AFBDC0C6D0DCE606
:10093000F0FB808594A7BBD0E4F90E2216E6F709F8
:100940001D2FE3F1021629FBEAFB0F22364A5D63F5
:10095000212D40515D666F777E7904060C141D26AB
:100960003033C6CAD1DBE5EFFA00808188909AA4C3
:10097000AFC0E6C3A49286808B89AAA4D6C600E83D
:100980001A0015191A1F39325C4A755B7A59633F90
:10099000300AFF172F465969757C7F7C7569594667
:1009A0002F17FFE7CFB8A595898280828995A5B8D2
:1009B000CFE7122F2C446D6C62797F6A5E6A5328F0
:1009C000221DE7D3D5B491989A8181999A91B1D695
:1009D000D6E42C393E42484F5A787E55453A312A62
:1009E000241CCFC4C0BBB6AEA38680A8B9C4CCD3E8
:1009F000DAE2800707060605050404030303020282
:100A000002010101010000000000FFFFFFFFFFFFE6
:100A1000FE01CADC7F639B851E6B0DB2D52B2EEFCA
:100A2000D5FB1D0CEDEE060EFFF4FA0605FCF9FFF2
:100A300004011B1E190F100A0B080B050803050102
:100A400006FF02FE03FE01FDFFFE02FE01FD00EDBA
:100A500080CC00000000000000000000000000004A
:100A60000000000000000000000000000000000086
:100A700000009CBF0A07DFC4DB01EAACD3F6EDEF50
:100A8000CB19250D3C40F1417F220909F5D41F2ADD
:100A900031025D23C68005181E4B2CB8D93BF90DD9
:100AA0000A22DD424D34C90715E1BEC9D5980707B2
:100AB000FEFA0C251919647178DCC57F736324086C
:100AC0001209F1DAD1DCCC8C8482273A8999ADF213
:100AD00008F277F01A3242B9CC033E0F06DF6A05FE
:100AE0007D669980F79320F7EFC2FC3045BFCEE4D6
:100AF000108E25CF1FC214E480465613C05E0459E1
:100B0000DE2F0F8E60F0EFBD4137BA1AB43DC7E853
:100B10000AB32C777E6F3507F9020B00E7CCBDC412
:100B2000D8F10F283B403015FBF1FB04F5C68D8052
:100B30008AD5808CB18C8E8087CA12F5F1121D1077
:100B40000603FBFAEDE3F11406F046757F6D684E7F
:100B5000716E1C24262625242123432C1D16110EDC
:100B60000D0D29170C06030100F680899CADBDCC44
:100B7000D9E88081899ACCD50A160A1C3211F5E58C
:100B8000F419E50B1908ECCCE4F5E9F62B336573A1
:100B90007A7F235E7647335458401B1306BE9192EA
:100BA00080A2ED3057403E37C9A0CAF90DDBBAC369
:100BB000B6D8457E7D7851F8A2808FB6E30F3A62B1
:100BC000796920C08780839C10767E5AA941ED8385
:100BD00085C08018891B921D9A1EA317AC16B416E7
:100BE000BD10D817F11E0725192C2B2F36363F3D87
:100BF00045382823CEE02B008BDDEA340B08180F94
:100C0000E1105F5E80BAF61CE6EFF8E4D0213371A4
:100C1000DCE1E3D974E29F65F6E9C858F08068FD2D
:100C2000E1CD4D248D5921D1CA4221910549D0B938
:100C300059056878781D808B931E764A57B8B6CAD6
:100C4000C23F044715FC1FA7E3B8F9664B6FC7996D
:100C500085A51C5630CBB0EC263DEE20B8F42EDA3C
:100C6000F932FEFFDECB07404BE699D611497F9F54
:100C7000A3E00FF08506890611241FBECFEFD8E050
:100C8000DEBFCDBF11E0A0E0B1E0E0E4FEE502C0D0
:100C900005900D92A836B107D9F723E0A8E6B1E098
:100CA00001C01D92AF37B207E1F71CE0C6E7DCE0F8
:100CB00004C02297FE010E941A2DC437D107C9F73C
:100CC0000E94D6280C94132F0C9400008CE691E01F
:100CD0000C945B080E948B288091680190916901B7
:100CE000A0916A01B0916B01681B860F911DA11D37
:100CF000B11D8093680190936901A0936A01B0933C
:100D00006B018CE691E00C94CA088CE691E00C949F
:100D10007D078CE691E00C9451080895DC0116964D
:100D2000ED91FC911797EA5AFF4F6083089508955B
:100D300084ED91E00C94A40D84E791E00C94FC0800
:100D4000FC01868197810C94E20B242FDC01149620
:100D5000ED91FC911597462F6789828993890C94B0
:100D60002C231F93CF93DF93EC018C819D81DC01B9
:100D700056961C91413009F05DC0613031F411117B
:100D800002C067E00AC06FEF07C0623049F4173055
:100D900011F460E002C061E0610F0E94BA0F6DC003
:100DA000633011F5EE81FF8122A9FC0182899389CC
:100DB000213041F468E00E94DB22882309F45DC001
:100DC0004FEF24C0612F0E94DB22EC81FD81811155
:100DD00009C04FE0612F82899389DF91CF911F91E4
:100DE0000C94B0224FEF24C06430B1F5EE81FF8146
:100DF00022A9213081F468E0DC0152968D919C910A
:100E000053970E94DB228F30C0F541E0480FEC8100
:100E1000FD8168E0E0CF612FFC01828993890E9407
:100E2000DB22EC81FD818F3011F440E0D3CF41E033
:100E3000480FD0CF611108C0FC0180899189DF91F2
:100E4000CF911F910C94CD146530B9F4642FDF91CC
:100E5000CF911F910C94D60F6111F6CFDC01ED916B
:100E6000FC911197AF54BF4F0190F081E02D4FE7F7
:100E70006C91DF91CF911F910994DF91CF911F91D8
:100E80000895CF92EF920F93CF93DF93EC01EE8111
:100E9000FF81EA5AFF4F0081613001F5EC81FD814D
:100EA00060E0828993890E944423202F2095277037
:100EB0008E819F81CC24C394E22E22E042E064E044
:100EC0008A5A9F4F0E944F2760E08E819F81DF9159
:100ED000CF910F91EF90CF900C94F30BDF91CF91C6
:100EE0000F91EF90CF900895DC011496ED91FC9155
:100EF0001597808991890C94E314CF93DF93EC01CB
:100F00008BE191E0998388838FE291E09B838A83D0
:100F100080911003811164C089E391E09093D50121
:100F20008093D4018BE591E09093D7018093D60113
:100F300081E691E09093D9018093D8018AED91E008
:100F40000E94D7171092EA011092EB011092ED0166
:100F50001092EC0180EF91E00E94C4218EEF91E0AD
:100F60000E94C4218CE092E00E9469218EE092E010
:100F70000E94D21888E492E00E9492178FE492E0D7
:100F80000E94FE168CE592E00E941D1688E792E012
:100F90000E94E5138DE792E00E948F1288EB91E0AA
:100FA00090938102809380021092820210928302B9
:100FB000109284028CE3809385028093860280E8FD
:100FC000E7E8F2E0DF011D928A95E9F786E0809379
:100FD000070381E08093100388E996E00E94D228FD
:100FE00084ED91E09D838C8380910803811147C03B
:100FF000E6E7F1E02AE731E01082C9010397DC015E
:101000001C9213821282D9011C9235962B5F3F4F9E
:10101000B1E0E439FB0781F764E971E0AAE9B1E0E6
:1010200044E680ED97E0FB0110829D0125503109D7
:10103000F90110822F5F3F4FF9011082FB011482EA
:1010400013822D5F3F4FF90110824C93FB01908773
:101050008783675F7F4F1996F1E06A3C7F0719F736
:101060008AEC91E00E94EB268FEC91E00E94EB2647
:1010700081E0809308038CE996E00E94D22884E7FF
:1010800091E09F838E83BE016E5F7F4F8C819D8137
:101090000E94BD10BE018E819F81DF91CF910C9483
:1010A0003C092BE131E0FC01318320832FE231E068
:1010B000338322830895CF93DF93EC016FE370E0D5
:1010C0008E819F810E94CA0B8E819F81FC01EA5A0A
:1010D000FF4F21E02083359620830E94EC0A8C810B
:1010E0009D810E94E50F8E819F810E94E90B8823DC
:1010F00021F08C819D810E942E0E67E08C819D8164
:101100000E94BA0FEE81FF81E35BFF4F60818C810B
:101110009D81DF91CF910C94D60F0F931F93CF93A6
:10112000DF938C01DC011496ED91FC911597C68537
:10113000D785DF706689828993890E94DB224D2FD3
:1011400050E0BA0163707727F80126813781672B59
:1011500039F48D1748F0F901E55AFF4F83E014C0C8
:10116000D0FD0CC08D1728F0F901E55AFF4F82E041
:101170000BC0F901E55AFF4F108207C08D17C8F365
:10118000F901E55AFF4F81E08083DF91CF911F91F4
:101190000F9108951F93CF93DF93EC01162F8E814B
:1011A0009F810E948C0B612F8E819F810E94110B69
:1011B000612F8E819F810E94430B612F8E819F81C1
:1011C0000E94BA0ACE010E948D088E819F810E94E2
:1011D000EC0A612F8C819D81DF91CF911F910C943E
:1011E000BD0E02970C948E06089502970C94A006EB
:1011F0000C94F12E0C94D92EEF92FF920F931F9323
:10120000CF93DF93EC0188819981009711F00E94C0
:10121000E9287E0186E5E80EF11CE114F10461F095
:101220008E01005A1F4F0E151F0531F00550110990
:10123000C8010E94F226F7CF8E01005E1F4F51F0C9
:10124000E016F10639F089E0E81AF108C7010E94BA
:101250000728F6CF229649F00C171D0731F00550EC
:101260001109C8010E94CE27F7CFDF91CF911F91BE
:101270000F91FF90EF9008958F929F92AF92BF923F
:10128000CF92DF92EF92FF920F931F93CF93DF9352
:10129000CDB7DEB729970FB6F894DEBF0FBECDBF2E
:1012A0008C01FC0171836083F894C12CD12CE12C5A
:1012B000F12C67E8A62E75E0B72EE0927C008091B5
:1012C0007C00806480937C0080917C0080628093AD
:1012D0007C00A0927A0080917A00806480937A00EA
:1012E00080917A0086FDFCCF60917900F701E65E7F
:1012F000FC4F6083CE0101960E94C727D801AC0D38
:10130000BD1DFE01319612968B2D01900D928A958E
:10131000E1F7CE0101960E94CE27FFEFEF1AFF0AF8
:1013200025E0C20ED11C86E0E816F10431F61092D9
:101330007C0080917C00806480937C0080917C00A4
:10134000806280937C008FE880937A0080917A009D
:10135000806480937A0052985A9825982D98249802
:101360002C982098289857985F9854985C98219AC0
:101370002998239A2B98229A2A98559A5D98569ADA
:101380005E98539A5B98B3B089B0E82CF12CC701F2
:101390009595879595958795E82FE170AE2E40ED50
:1013A00057E06E2FCE0101960E94FB2789E0FE01D7
:1013B0003196D801909601900D928A95E1F7CE0171
:1013C00001960E94072889E1F80186A3CB2CD12C35
:1013D000C60135E0959587953A95E1F7F82FF170BC
:1013E0009F2E40ED57E06F2FCE0101960E94FB2704
:1013F00089E0FE013196D801999601900D928A9567
:10140000E1F7CE0101960E940728C60144E09595B8
:1014100087954A95E1F7282F2170C22E40ED57E0BD
:10142000622FCE0101960E94FB2789E0FE013196D2
:10143000D801D29601900D928A95E1F7CE010196DE
:101440000E9407288B2D8170B82E40ED57E0682F41
:10145000CE0101960E94FB2789E0FE013196D8015A
:10146000DB9601900D928A95E1F7CE0101960E94DC
:101470000728D82CDD1CDD24DD1C40ED57E06D2D48
:10148000CE0101960E94FB27D801AC5BBF4F89E0DB
:10149000FE01319601900D928A95E1F7CE010196F9
:1014A0000E940728C70154E0959587955A95E1F762
:1014B000E82FE170EE2E40ED57E06E2FCE01019641
:1014C0000E94FB27D801A35BBF4F89E0FE01319644
:1014D00001900D928A95E1F7CE0101960E940728AE
:1014E000A092200390922103C0922203B092230382
:1014F000D0922403E092250380916B008062809358
:101500006B0080916B00806180936B0080916B0019
:10151000816080936B00D89A80916800816080938D
:10152000680080916D00846080936D0080916D00F3
:10153000806880936D0080916D00806180936D0064
:10154000DA9A809168008460809368007894299684
:101550000FB6F894DEBF0FBECDBFDF91CF911F91C4
:101560000F91FF90EF90DF90CF90BF90AF909F9042
:101570008F9008950F931F93CF93DF93EC01909179
:101580001903690F603420F46093190310E00FC051
:10159000262F30E0E6E035952795EA95E1F7122F02
:1015A000862F90E4299F8019112480931903612FBD
:1015B000CE018A5A9F4F0E948727082F612FCE01A4
:1015C000855A9F4F0E948727811101E0802FDF916C
:1015D000CF911F910F910895FC01EA5AFF4F20818E
:1015E00020FF02C0299A01C02998208121FF02C052
:1015F0002B9A01C02B98208122FF02C02A9A01C099
:101600002A98FC01E55AFF4F808180FF02C05D9A55
:1016100001C05D98808181FF02C05E9A08955E9846
:101620000895DF92EF92FF920F931F93CF93DF9372
:101630007C01D62EEC01229600E010E0F801E65E77
:10164000FC4F80818C836D2DCE010E94CF27882393
:1016500061F0D7018D919C91DC01ED91FC910480AA
:10166000F581E02D4C81602F09950F5F1F4F259666
:101670000630110519F7DF91CF911F910F91FF905F
:10168000EF90DF900895CF92DF92EF92FF920F9349
:101690001F93CF93DF937C01D62E8C01005E1F4FEA
:1016A000C0E0D0E0CC2EFE01E05EFC4F8081D8018E
:1016B0008C936D2DC8010E940828882359F0F701EA
:1016C00080819181DC01ED91FC910280F381E02D1C
:1016D0006C2F09956D2DC8010E941F28882369F081
:1016E000F70180819181DC01ED91FC910190F08105
:1016F000E02DD8014C916C2D09952196075F1F4F65
:10170000C630D10579F6DF91CF911F910F91FF90EF
:10171000EF90DF90CF9008951F93CF93DF93EC016C
:1017200010E49091270380912803981312C08091B0
:101730002603882359F18881998160912603DC0171
:10174000ED91FC910084F185E02D0995109226031E
:101750001DC088819981E0912703F0E0E75DFC4F8F
:101760006081DC01ED91FC910680F781E02D099507
:10177000809127038F5F8093270380912703803414
:1017800010F010922703115061F6D1CFDF91CF9165
:101790001F910895E0ECF0E0808182608083709377
:1017A000C5006093C400E1ECF0E08081806180833B
:1017B00080818860808380818068808380818F7D44
:1017C000808308958091C00085FFFCCF6093C600A0
:1017D00008958FEF93E00E94E92E91E08F3709F48E
:1017E00090E0892F0895662311F060E001C06FE753
:1017F0008FEF93E00C94012F1F920F920FB60F9270
:1018000011248F93EF93FF93E0911803F0E0809100
:101810007900E65EFC4F8083809118038F5F809390
:10182000180380911803863010F0109218038091ED
:10183000180380937C0080917C00806480937C00FE
:1018400080917C00806280937C008FE880937A0096
:1018500080917A00806480937A00FF91EF918F915C
:101860000F900FBE0F901F9018951F920F920FB6FA
:101870000F9211242F933F934F938F939F9343B1D4
:10188000842F90E09C01689414F835952795169460
:10189000E1F721702093210324E0959587952A95FF
:1018A000E1F78170809322034170409323039F915D
:1018B0008F914F913F912F910F900FBE0F901F90DE
:1018C00018951F920F920FB60F9211242F933F93EA
:1018D0004F938F939F9349B1842F90E09C0135954E
:1018E000279535952795217020932003441F442781
:1018F000441F4093240324E0959587952A95E1F7AA
:101900008170809325039F918F914F913F912F91EB
:101910000F900FBE0F901F9018951F920F920FB649
:101920000F9211248F939F93EF93FF938091C000A8
:101930008091C600E0912803F0E0E75DFC4F8083D2
:10194000809128038F5F809328038091280380343F
:1019500010F0109228039091280380912703981388
:1019600003C084E080932603FF91EF919F918F91B4
:101970000F900FBE0F901F90189508950895089529
:10198000089508950895089580559F4FFC01608340
:1019900008950F931F93CF93DF93EC018C010A5F9F
:1019A0001F4FC8010E94E81740E056E060E070E079
:1019B000C8010E940818CE55DF4F88819981DF91B8
:1019C000CF911F910F910C945F14FC016F34B9F10A
:1019D00068F4613139F128F46130B1F06031D1F04F
:1019E0000895673439F16A3409F108956D35B1F11C
:1019F00028F46B35D9F16C3569F108956F35B1F183
:101A000088F16B37B9F10895242F30E0359527958B
:101A100043E013C0242F220F42E060E082899389C3
:101A20000C942C23242F220F45E0F7CF242F220FD4
:101A300041E0F3CF242F220F41E061E0EFCF50E0EF
:101A400083E0559547958A95E1F765E0828993890A
:101A50000C94B022242F220F44E0DFCF242F220F3A
:101A600043E0DBCF242F220F42E0E7CF242F220FC9
:101A700045E0E3CF808991890C94CD14362F622FF5
:101A80004230B9F128F4442359F0413049F1089526
:101A9000443009F440C0B0F1453009F447C008951E
:101AA000311104C0DC01D9962C930895FC01EF5448
:101AB000FF4F2081DC01A20FB11DAD54BF4F2C910F
:101AC00066956695685E6083319660832223D9F1BE
:101AD000DC01ED91FC910190F081E02D4FE709943C
:101AE000311103C0FC0122AF0895DC01DB962C9379
:101AF0000895311103C0CA960C941E1988579F4F40
:101B00000C943816311103C0CA960C943A198857B0
:101B10009F4F0C945416FC01311102C020AF089560
:101B2000E655FF4F0190F081E02D05C0FC01311119
:101B300004C0E755FF4F60830895E955FF4F80814A
:101B400091810C94DB1308950F931F93CF93DF9330
:101B5000EC0189E391E0998388838BE591E09B8395
:101B60008A8381E691E09D838C830C891D89011510
:101B7000110531F0C8010E945224C8010E94E928D1
:101B80000A8D1B8D0115110531F0C8010E94A62593
:101B9000C8010E94E9280A891B890115110531F045
:101BA000C8010E94A822C8010E94E9280889198951
:101BB0000115110531F0C8010E94A914C8010E9445
:101BC000E928FE01E955FF4F00811181011511053A
:101BD00031F0C8010E94EA12C8010E94E928FE0102
:101BE000EE55FF4F008111810115110531F0C8013B
:101BF0000E944114C8010E94E928CE0187559F4FD9
:101C00000E949212CE018C559F4F0E94EB13CE0181
:101C100088579F4F0E943716CE0185589F4F0E94CC
:101C20000F17CE018C589F4F0E949D17CE01CA9668
:101C30000E94E018CE01C8960E946E21CE018A96BD
:101C40000E94D821CE014C960E94D821CE01069642
:101C5000DF91CF911F910F910C94E717CF93DF93F2
:101C6000EC0140E060E08A899B890E94B02241E05B
:101C700061E08A899B890E94B02241E062E08A8902
:101C80009B890E94B02242E063E08A899B890E947E
:101C9000B02240E064E08A899B890E94B02245E03E
:101CA00065E08A899B890E94B02240E066E08A89CB
:101CB0009B890E94B02241E067E08A899B890E944B
:101CC000B02246E068E08A899B890E94B0222FEF0B
:101CD00041E060E08A899B890E942C232FEF42E03B
:101CE00060E08A899B890E942C2320E043E060E029
:101CF0008A899B890E942C2320E044E060E08A8945
:101D00009B890E942C2320E045E060E08A899B8922
:101D10000E942C232FEF40E060E08A899B890E947B
:101D20002C232CE841E061E08A899B890E942C23C6
:101D300020E042E061E08A899B890E942C2320E018
:101D400043E061E08A899B890E942C2320E044E0E3
:101D500061E08A899B890E942C2320E045E061E0B4
:101D60008A899B890E942C232CE340E061E08A89C8
:101D70009B89DF91CF910C942C238F929F92AF92ED
:101D8000BF92CF92DF92EF92FF920F931F93CF9368
:101D9000DF9300D01F92CDB7DEB77C01962EDC0119
:101DA00050968D919C915197FC01248187010A5F87
:101DB0001F4F222319F00E94AA14682FC8010E9405
:101DC0006F18D7011E966D917C911F97C7018C5893
:101DD0009F4F0E94B317F70166857785EE55FF4F39
:101DE000808191810E9465146701FCE1CF0ED11CB6
:101DF000692DC6010E941622692D57018AE2A80E9C
:101E0000B11CC5010E941622F701E758FF4F10814F
:101E1000C5010E94F121882ED7015A96ED91FC91BF
:101E20005B974081518162817381082F212F570177
:101E3000BAE3AB0EB11CC5010E94271F692DC70173
:101E400085589F4F0E945917F701E158FF4F208195
:101E50003181BD96318320837897318320837C96AE
:101E60002081482D612FC70188579F4F0E9470160F
:101E7000F701EA56FF4F4081518160E070E025E0B4
:101E8000440F551F661F771F2A95D1F7F701828DE2
:101E9000938D0E940C2660E2CE0101960E943625A9
:101EA000BE016F5F7F4FD70154968D919C915597DE
:101EB0000E946424212F40E0BE016F5F7F4FF70135
:101EC000E655FF4F808191810E943912BE016F5FFC
:101ED0007F4FC5010E94CA20F70180A5E955FF4F39
:101EE000811105C0808191810E94CC1309C0212FEE
:101EF00040E0BE016F5F7F4F808191810E94FC12A4
:101F0000BE016F5F7F4FC7018C559F4F0E94001429
:101F1000BE016F5F7F4FC70187559F4F0E9493128D
:101F2000C6010E94F121212F482FBE016F5F7F4F14
:101F3000C701C8960E946F21BE016F5F7F4FD70116
:101F40005A968D919C915B970E948D26CE010196A9
:101F50000E9445250F900F900F90DF91CF911F9118
:101F60000F91FF90EF90DF90CF90BF90AF909F9038
:101F70008F9008950F931F93CF93DF93EC016E8B97
:101F8000E88DF98D0190F081E02D008111818A8921
:101F90009B890E94DB2220E0482F6E89888D998DD5
:101FA000F801DF91CF911F910F910994DC015796B1
:101FB0006C93579758968D919C915997DC01ED91B0
:101FC000FC910280F381E02D0994CF93DF93EC0123
:101FD0008A8D9B8D0E94B92560E0888999890E942D
:101FE000B21460E08A899B890E94A02360E0CE0140
:101FF0000E94BA0F60E0CE01DF91CF910C94D60F12
:10200000CF93DF93EC01E62FF0E0EE0FFF1FE054DB
:10201000FE4F6591749185589F4F0E943F17CE01E6
:102020004C960E940622CE018A96DF91CF910C94A5
:102030000622CF93DF93FC01E60FF11DED54FF4F15
:102040002081211119C0DC01A255BF4F2C91EC0158
:10205000C155DF4F28832F5F2C9321E02083FC01A3
:10206000EE55FF4F0190F081E02D2281211104C037
:10207000DF91CF910C940010DF91CF910895CF9311
:10208000DF93EC014C960E941022CE018A96DF91DC
:10209000CF910C941022CF93DF93FC01E60FF11D3A
:1020A000ED54FF4F20812223D1F0DC01A255BF4F18
:1020B0002C91EC01C155DF4F288321502C931082C5
:1020C00021110DC0FC01EE55FF4F0190F081E02D74
:1020D0002281211104C0DF91CF910C943F10DF9138
:1020E000CF9108950F931F93CF93DF931F92CDB796
:1020F000DEB78C01603849F04034E1F049830E943A
:102100003F104981403829F415C0403899F04034D7
:1021100089F0642F6F73F801EE54FF4F8081680FD0
:1021200067FD08C0C8010F90DF91CF911F910F91FB
:102130000C9400100F90DF91CF911F910F91089593
:10214000CF93DF93EC01FC01ED5CFE4F60838AE0EE
:10215000689F90011124245C3F4F40E050E060E014
:1021600078E98AE390E00E94D72CBA01A901CE0158
:102170000696DF91CF910C9408180F931F93CF937D
:10218000DF93EC01798F688F88E190E00E94E52869
:102190008C01BE016C5F7F4F0E948C221B8B0A8BCF
:1021A00088E090E00E94E5288C0140E651E060E282
:1021B0000E9409251D8B0C8B84E090E00E94E5288D
:1021C0008C0160E20E9487251B8F0A8F8AE090E0D5
:1021D0000E94E5288C0160E20E94C412FE01E955CC
:1021E000FF4F11830083E457FF4F6081CE010E94AF
:1021F000A0108DE090E00E94E5288C0140E0BE0137
:102200000E949914198B088B89E090E00E94E528C0
:102210008C01BE016E5F7F4F0E943114FE01EE55AE
:10222000FF4F1183008384E090E00E94E5288C0139
:1022300060E20E942E12C655DF4F19830883DF919A
:10224000CF911F910F910895CF93DF93EC010696E4
:102250000E94E817FE01ED5CFE4F6081CE010E94F6
:10226000A010CE55DF4F88819981DF91CF910C94DA
:102270005F14AF92BF92CF92DF92EF92FF920F93D3
:102280001F93CF93DF93EC01C62ED42E062F10E0C0
:102290000930110508F0B5C0F801EC5CFF4F0C9453
:1022A000182D642F70E0FB01E05CFE4FE491AC89D7
:1022B000BD891296EC93FB01E05BFE4F64918C8923
:1022C0009D890E942F259DC0642FCA960E94E11807
:1022D00098C0A42EB12CF501E05DFE4FE491F0E032
:1022E000EE0FFF1FE056FE4F659174918C01065D65
:1022F0001F4FC8010E94D921C501805E9E4F7C01FD
:10230000FC01449150E0440F551F40565E4FFA01C6
:102310001FC0A42EB12CF501E05DFE4FE491F0E06A
:10232000EE0FFF1FE056FE4F659174918C01045E25
:102330001F4FC8010E94D921C501805E9E4F7C01BC
:10234000FC01A491B0E0AA0FBB1FA056BE4FFD0137
:1023500065917491C8010E94DF21F501E05FFE4F95
:10236000249130E0220F331F20583E4FF901659130
:102370007491C8010E94E521F701E490EE2DF0E090
:10238000EE0FFF1FE056FE4F65917491C8010E9449
:10239000EB2137C0FC01E858FF4F408332C0642F67
:1023A0008C589F4F0E949E172CC085589F4F8E01BE
:1023B0000C551F4FF7E0F41748F0E0E6F1E06591A7
:1023C00074910E9454176D2D660F0BC024E0429F3C
:1023D000F0011124EE5BFE4F659174910E94541739
:1023E00060E0C8010E94EC130CC0642FFC01EE55A4
:1023F000FF4F808191810E94491403C0642F0E9485
:10240000A0108E89C81216C0888D998DDC01ED91BF
:10241000FC910190F081E02D20E04D2D6C2DDF919D
:10242000CF911F910F91FF90EF90DF90CF90BF90D1
:10243000AF900994DF91CF911F910F91FF90EF9092
:10244000DF90CF90BF90AF90089504970C943E0D0D
:1024500002970C94721004970C943911FC011082AD
:102460001182638370E080E091E00E94C32C62835C
:1024700008950F931F93CF93DF93FC01EB018081AD
:10248000A181811103C0AA2309F444C0332727FD89
:10249000309521583F4F90E00196289F8001299F59
:1024A000100D389F100D11240281812F602F0E9482
:1024B000B72C182F552747FD509557FF03C051954E
:1024C00041955109B0E011964A9FC0014B9F900D74
:1024D0005A9F900D1124880F892F881F990B919571
:1024E000602F0E94B72C6381282F30E0210F311D0F
:1024F000462F50E04217530714F0612F680F80E019
:1025000090E0861738F4E981FA81E80FF91F10820C
:102510000196F7CFDF91CF911F910F910895FC01A4
:10252000108208950895CF93DF93EC01288130E065
:1025300085E0359527958A95E1F740E050E8AFE7CB
:10254000FB0180814817E8F4EB01E981FA81E40F8F
:10255000F11D8081992787FD9095022E02C0880F7A
:10256000991F0A94E2F78038910514F0A08307C000
:102570008038DFEF9D0714F4508301C080834F5FE4
:10258000DFCFDF91CF9108950F931F93CF93DF9308
:10259000EC0119821A8281E08B838C838D838E8378
:1025A00018861F821986688383E090E00E94E528E0
:1025B0008C0168810E94362518870F83688170E03E
:1025C00080E091E00E94C32C6B83DF91CF911F913B
:1025D0000F910895CF93DF93FC01C781D085209799
:1025E00041F0CE010E944525CE01DF91CF910C94A0
:1025F000E928DF91CF910895CF92DF92EF92FF9279
:102600000F931F93CF93DF93FC016B018181A28114
:10261000811103C0AA2309F4B6C0332727FD3095E2
:1026200021583F4F90E00196289F8001299F100D6F
:10263000389F100D1124F380812F6F2D0E94B72C2D
:10264000082F552747FD509557FF03C051954195D9
:102650005109B0E011964A9FC0014B9F900D5A9FBF
:10266000900D1124880F892F881F990B91956F2D3C
:102670000E94B72C1081282F30E0200F311D412FF0
:1026800050E04217530714F0800F01C0812F8111D1
:1026900001C081E000916903081710F4100F01C018
:1026A000102F181BF12CD6018C91F81608F068C079
:1026B0002F2D30E0A781B08511966D917C911297F6
:1026C000412F50E0E601A981BA81A20FB31FEC901F
:1026D000DB01A40FB51F8C91992787FD909504808D
:1026E00002C0959587950A94E2F78E0D911DE7FC3F
:1026F0009A958038910534F48038DFEF9D071CF4FB
:1027000080E801C08FE7DB01A00FB11D8C93E601CB
:10271000A981BA81A20FB31F8C91992787FD90954B
:10272000068002C0959587950A94E2F72781308547
:10273000E90129813A81240F351FE90128813327D6
:1027400027FD3095058002C0359527950A94E2F75C
:10275000820F931F8038910534F48038DFEF9D0796
:102760001CF480E801C08FE78C930F5F808108170D
:1027700008F000E01F5F181708F010E0F39493CF03
:10278000009369031186DF91CF911F910F91FF9004
:10279000EF90DF90CF900895CF93DF93EC01898580
:1027A000811106C08F8198850E94802581E08987EC
:1027B000DF91CF910895FC016183611105C02281F1
:1027C000211102C00C94CC130895FC01108281E009
:1027D0008183128208950895FC016283611103C010
:1027E000108281E00BC0862F83708C5F808366959A
:1027F000669581E001C0880F6A95EAF781830895A4
:102800001F93CF93DF93DC01FB0110E08081181749
:1028100020F511966C911197812F0E94B72C412FB2
:1028200050E061817281911112C08C91EB01C40F53
:10283000D51F2881332727FD3095082E02C03595F6
:1028400027950A94E2F701C0220F8A95EAF7EB0177
:10285000C40FD51F28831F5FD9CFDF91CF911F9160
:102860000895FC01128282E0838381E090E09583E9
:10287000848388E08683178280E880877183608301
:102880000895FC0180819181009711F00C94E92852
:102890000895CF93DF93EC016A8361110DC08881A5
:1028A0009981DC01ED91FC910190F081E02D40E8EF
:1028B0006885099580E88887DF91CF91089520E1A8
:1028C000FC01278320E8208708950F931F93CF935F
:1028D000DF93EC019B01EA81EE2331F1AC81BD81F4
:1028E0000E941E2D0E8004C096958795779567955A
:1028F0000A94D2F7162F1F708F811817A9F080E164
:10290000E89FF0011124E10FF11DE054FD4F049107
:1029100088819981FC01A081B181ED91FC91402FCA
:102920006885099508871F83DF91CF911F910F91CB
:102930000895FC018DE7808311821482158216822E
:1029400010861286118614861386738362834783EA
:1029500008950895FC0181852285938583872487C6
:10296000891B0895CF93DF93DC01603120F011962D
:102970001C92119703C011966C93119712968D912A
:102980009C911397EC01E881F9810288F389E02D8D
:1029900011966C91DF91CF9109941F93CF93DF93A0
:1029A000EC0110E08A819B81DC01ED91FC910280B9
:1029B000F381E02D612F09951F5F103899F7DF91A2
:1029C000CF911F910895FC01462F683F48F16C3F5D
:1029D00028F46A3F60F4683F21F008956C3FB1F03D
:1029E0000895818592850196928781870895128640
:1029F00011861486138681E0848382819381DC01B1
:102A0000ED91FC910480F581E02D09C01482828152
:102A10009381DC01ED91FC910680F781E02D099412
:102A2000603F70F110926D03603FA9F481E08583EF
:102A300016828FEF80930B0180930A018085882393
:102A400009F4BEC082819381DC01ED91FC91008488
:102A5000F185E02DE4CF673F09F0B2C0858188237E
:102A600009F4AEC015828085882309F4A9C082814B
:102A70009381DC01ED91FC910484F585E02DCFCFAD
:102A800067FF0BC060936D0381E080936C0310922D
:102A90006B0310926A03158208958581882331F1B2
:102AA000668181E0860F8683813019F440930B01A3
:102AB0000895823019F440930A01089590910B0112
:102AC000808198137DC090910A018781981378C006
:102AD0008085882309F474C082819381DC01ED91A3
:102AE000FC9162500284F385E02D099480916D037E
:102AF000882309F465C090916C03992329F06093B1
:102B00006B0310926C03089560936A039181292FDF
:102B1000206982130BC0662349F082819381DC0116
:102B2000ED91FC910190F081E02D40C0392F30688B
:102B3000831721F082130DC041110BC08281938154
:102B4000DC01ED91FC910280F381E02D60916B033B
:102B500020C0292F206E82131EC082819381DC0148
:102B6000ED91FC91411105C00488F589E02D61E8E3
:102B700010C04F3729F40488F589E02D6FE709C0AC
:102B8000642F70E060547109660F771F0488F5891F
:102B9000E02D09950EC0906B89130BC08281938143
:102BA000DC01ED91FC910088F189E02D60916B03CF
:102BB000099510926B0310926A0381E080936C0375
:102BC00008958F929F92AF92BF92CF92DF92EF9231
:102BD000FF920F931F936A017B0148015901682FEF
:102BE000772767FD7095872F972F0E94212A20E075
:102BF00030E04EEF52E40E945529A70196010E9451
:102C00007B2B0E94C229A50194010E947B2B20E00E
:102C100030E040E85FE30E94ED280E94DE2B0E9436
:102C2000F329862F1F910F91FF90EF90DF90CF90A7
:102C3000BF90AF909F908F900895FC0148E152E7BC
:102C400061EB7FE3408351836283738380E48483F9
:102C500086E0858348E152E761E37FE3468357835B
:102C60006087718780E8828787E083870895089569
:102C7000CF93DF93EC01688B70E080E090E00E94DE
:102C80001F2A288139814A815B810E947B2B20E0A9
:102C900030E04FE753E40E945529698B7A8B8B8B88
:102CA0009C8BDF91CF910895CF93DF93EC016D8BD7
:102CB00070E080E090E00E941F2A2E813F814885CD
:102CC00059850E947B2B20E030E04FE753E40E94BF
:102CD00055296E8B7F8B888F998FDF91CF910895C7
:102CE0007F928F929F92AF92BF92CF92DF92EF929C
:102CF000FF920F931F93CF93DF93EC01762EA42EB8
:102D0000B22E8C849D846401E12CF12C8D89882362
:102D100001F16A8570E080E090E00E941F2A8B013B
:102D20009C014E895F89688D798D872D0E94E11500
:102D3000282F30E02F5F3F4FD4010E941E2D6B01E2
:102D40007C010B8404C0F694E794D794C7940A944A
:102D5000D2F78889882301F16C8170E080E090E0EF
:102D60000E941F2A8B019C0149895A896B897C89A1
:102D70008A2D0E94E115A82FB0E01196A7019601B7
:102D80000E942D2D6B017C010D8004C0F694E79408
:102D9000D794C7940A94D2F7BB2001F16A8570E0FA
:102DA00080E090E00E941F2A8B019C014E815F8190
:102DB000688579858B2D0E94E115A82FB0E01196CA
:102DC000A70196010E942D2D6B017C010B8404C08C
:102DD000F694E794D794C7940A94D2F7DF86CE8608
:102DE000DF91CF911F910F91FF90EF90DF90CF90E7
:102DF000BF90AF909F908F907F900895FC0188EBDB
:102E000091E0918380839383828395838483168268
:102E100010861782128611861486138608950895E7
:102E2000CF93DF93EC01AF81B885109719F41A8620
:102E3000198622C08E818823E9F0488159818A81D0
:102E40009B81EC81FD818417950738F49A012E1B34
:102E50003F0B0E941E2D9F0106C09F01241B350BB6
:102E60000E941E2D9A0140E050E00E94D72C3A8724
:102E7000298702C0BA87A987DF91CF910895FC0105
:102E8000808191816817790771F084819581681735
:102E9000790749F071836083938382831486138654
:102EA000CF010C9410170895FC01708767830C9470
:102EB00010170F931F93CF93DF93EC018C819D81AB
:102EC000288139818217930709F1E985FA853097BE
:102ED000D1F0AB85BC85A60FB11DBC87AB87EA17C7
:102EE000FB0788F00A811B8140E050E0201B310B7A
:102EF000410951090E942D2D9F0140E050E00E94A0
:102F0000F92C200F311F3D832C8307C02A813B8180
:102F10002817390711F09B838A83DF91CF911F9186
:102F20000F910895FC0182E0808381E090E092831C
:102F3000818384E08383148208950895DC016C9377
:102F400070E0FB01EE0FFF1FE053F84F8591949165
:102F500012969C938E931197FB01E054F84F649165
:102F600013966C930895CF93DF93EC019B01A98195
:102F7000BA810E941E2D0B8004C096958795779587
:102F800067950A94D2F76F73EC8180E4E89FF001B3
:102F90001124E60FF11DE054FC4FE491ED838E8186
:102FA000882311F0E195ED83DF91CF910895FC0125
:102FB000108211821282138240E05DE760E070E0CF
:102FC0004483558366837783118610860895089518
:102FD000FC011082118212821382118610860895DC
:102FE0004115510580E16807710570F441155105DF
:102FF00094E06907710550F481E041155105614085
:10300000710528F480E0089583E0089582E0089532
:10301000CF92DF92EF92FF92CF93DF93EC016A01A0
:103020007B014C835D836E837F830E94F017E82FC2
:10303000A701960104C056954795379527958A951F
:10304000D2F76885798580E090E00E2E04C09695D1
:103050008795779567950A94D2F70E94A72C20E16F
:1030600030E042E0E49F20193109112404C0969514
:103070008795779567952A95D2F7688379838A83B0
:103080009B83DF91CF91FF90EF90DF90CF900895D9
:103090004115510580E168077105C8F441155105D6
:1030A00088E068077105C8F44115510584E0680798
:1030B000710578F44115510582E06807710558F4EF
:1030C000411551056140710540F081E0089585E0AA
:1030D000089583E0089582E0089584E008954F9272
:1030E0005F926F927F928F929F92AF92BF92CF9298
:1030F000DF92EF92FF92CF93DF93EC018881998169
:10310000AA81BB81860F911DA11DB11D8883998362
:10311000AA83BB83CC80DD80EE80FF808C159D056B
:10312000AE05BF0540F08C199D09AE09BF09888323
:103130009983AA83BB8388809980AA80BB80B501CC
:10314000A401CE010E944818282F60E170E0681B9E
:1031500071092401350104C0440C551C661C771C00
:103160006A95D2F7C301B2013601470104C09694B3
:103170008794779467942A95D2F7A40193010E94CB
:10318000D72C39872887DF91CF91FF90EF90DF9080
:10319000CF90BF90AF909F908F907F906F905F90F7
:1031A0004F900895FC0188E7808381E0828340E0AE
:1031B00050E060E87FE3428B538B648B758B0895FE
:1031C0000895DC0112966C931297462F50E04550FB
:1031D000510947305105C8F4435C5F4FFA010C9424
:1031E000182D47E25DE16EE973E409C049EA5EE942
:1031F00063EE7FE304C040E053EF63EB70E41E96A0
:103200004D935D936D937C9351979A961D921D9269
:103210001D921C929D979E961D921D921D921C922E
:10322000D197D2961D921D921D921C92D597D6963B
:103230001D921D921D921C92D9970895CF93DF93F2
:10324000EC016C8370E080E090E00E941F2A28E18E
:1032500032E741EB5FE30E947B2B20E030E04FE759
:1032600053E40E9455296D837E838F839887DF9175
:10327000CF910895CF93DF93EC01698770E080E0F0
:1032800090E00E941F2A28E132E741EB5FE30E94B1
:103290007B2B20E030E04FE753E40E9455296A87FA
:1032A0007B878C879D87DF91CF9108952F923F92E6
:1032B0004F925F926F927F928F929F92AF92BF9246
:1032C000CF92DF92EF92FF920F931F93CF93DF93F2
:1032D000CDB7DEB76C970FB6F894DEBF0FBECDBF8B
:1032E0001C01E62F29013A01E982FA820B831C8333
:1032F00069A97AA98BA99CA90E2F10E0F801319732
:10330000EF30F10508F03AC5EC5BFF4F0C94182D37
:103310009B01AC010E94EE28A30192010E947B2B2D
:103320004B015C010E94FE2B29813A814B815C811B
:103330000E94552920E030E040E05FE30E947B2BB3
:103340006B017C01C501B4010E9452294B015C0153
:103350009B01AC0160E070E080E89FE30E94ED28F3
:103360002B013C0120E030E040E05FE30E947B2B3A
:10337000D1015E966D937D938D939C93919739C007
:103380009B01AC010E94EE28A30192010E947B2BBD
:103390004B015C010E94FE2B29813A814B815C81AB
:1033A0000E94552920E030E040E05FE30E947B2B43
:1033B0006B017C01C501B4010E9452294B015C01E3
:1033C00020E030E040E85FE30E94EE282B013C0162
:1033D00020E030E040E05FE30E947B2BD1015E966D
:1033E0006D937D938D939C93919777FA709477F872
:1033F0007094F10142A253A264A275A296966D93B5
:103400007D938D939C93999720E030E040E85FE3B3
:10341000C701B6010E94EE28F101628B738B848B89
:10342000958B20E030E040E050ECC501B4010E94F3
:103430007B2BD10156966D937D938D939C935997D9
:10344000A701960160E070E080E89FE30E94ED280C
:10345000F101628F738F848F958F90C49B01AC01B3
:103460000E94EE28A30192010E947B2B4B015C017C
:103470000E94FE2B6B017C0129813A814B815C818A
:103480000E94552920E030E040E05FE30E947B2B62
:103490002B013C01C501B4010E9452294B015C0182
:1034A00020E030E040E05FE3C701B6010E947B2BE3
:1034B000D1015E966D937D938D939C939197F101CD
:1034C00012A213A214A215A2DC01CB01B05886A34C
:1034D00097A3A0A7B1A720E030E040E85FE3C301D5
:1034E000B2010E94EE28D10152966D937D938D9387
:1034F0009C93559720E030E040E050ECC501B401CA
:103500000E947B2BF101668B778B808F918FA301BB
:103510009201D1C09B01AC010E94EE28A30192014F
:103520000E947B2B4B015C010E94FE2B29813A817A
:103530004B815C810E94552920E030E040E05FE350
:103540000E947B2B6B017C01C501B4010E945229B2
:10355000412C512C20E8622E2FE3722EF101468E71
:10356000578E60A271A220E030E040E050EC0E9453
:103570007B2B4B015C01D10192966D937D938D93D2
:103580009C939597F10146A257A260A671A6A3014C
:103590009201C701B6010E94EE28D10152966D93A7
:1035A0007D938D939C935597F101868A978AA08E7F
:1035B000B18EA7019601C301B20125C39B01AC01E5
:1035C0000E94EE28A30192010E947B2B2B013C015B
:1035D0000E94FE2B29813A814B815C810E945529F2
:1035E00020E030E040E05FE30E947B2B69837A8338
:1035F0008B839C83C301B2010E94522969877A8719
:103600008B879C87A601950169817A818B819C813A
:103610000E947B2B2B013C0120E030E040E85FE37F
:103620000E94EE28F101668F778F80A391A320E09E
:1036300030E040E050EC69857A858B859C850E945E
:103640007B2B69877A878B879C87D10192966D93B4
:103650007D938D939C939597A301920160E070E018
:1036600080E89FE30E94ED28F10166A377A380A77D
:1036700091A7A601950169817A818B819C810E9425
:1036800055294B015C0120E030E040E85FE30E94F7
:10369000EE28D10152966D937D938D939C9355970F
:1036A00089859A85AB85BC85F101868B978BA08F28
:1036B000B18FA501940160E070E080E89FE3A3C2B0
:1036C0009B01AC010E94EE28A30192010E947B2B7A
:1036D0009B01AC01298F3A8F4B8F5C8F0E9452293E
:1036E0006D837E838F839887C601B5010E94082C65
:1036F0002B013C01298D3A8D4B8D5C8DCA01B9019E
:103700000E94FE2B698B7A8B8B8B9C8B20E030E0A8
:1037100040E85FE3C601B5010E94ED2869877A871A
:103720008B879C872D813E814F8158850E947B2B02
:103730006D8B7E8B8F8B988F20E030E040E85FE3CD
:10374000C601B5010E94EE286D877E878F87988B12
:103750002D813E814F8158850E947B2B6D837E8316
:103760008F839887A3019201C301B2010E94EE28C2
:103770002B013C0129813A814B815C8169897A89DD
:103780008B899C890E94552920E030E040E05FE36E
:103790000E947B2B9B01AC01C301B2010E947B2BD9
:1037A0002B013C012D893E894F89588D6D857E8581
:1037B0008F8598890E94ED2869837A838B839C8307
:1037C000A30192010E94EE289B01AC01C601B50144
:1037D0000E947B2BF101668F778F80A391A3A601B6
:1037E0009501C601B5010E94EE28698B7A8B8B8BFF
:1037F0009C8B2D813E814F81588569857A858B858B
:103800009C850E94ED289B01AC0169897A898B898E
:103810009C890E947B2BD10192966D937D938D9311
:103820009C939597A301920169817A818B819C81F8
:103830000E94ED289B01AC01C601B5010E947B2BC3
:10384000F10166A377A380A791A72D893E894F89AF
:10385000588D6D857E858F8598890E94EE284B0155
:103860005C01A30192010E94EE28D10152966D9352
:103870007D938D939C9355972D813E814F815885E3
:1038800069857A858B859C850E94EE2820E030E052
:1038900040E050EC0E947B2BF101668B778B808F90
:1038A000918FA3019201F7C09B01AC010E94EE2809
:1038B000A30192010E947B2B2B013C010E94522903
:1038C0006D877E878F87988BC601B5010E94082C73
:1038D0006D837E838F839887C301B2010E94FE2B84
:1038E000698B7A8B8B8B9C8B20E030E040E85FE328
:1038F000C601B5010E94ED282B013C012D853E85B6
:103900004F8558890E947B2B6D8B7E8B8F8B988F78
:1039100020E030E040E85FE3C601B5010E94EE28F8
:1039200069877A878B879C872D853E854F85588947
:103930000E947B2B6D877E878F87988B2D813E81A0
:103940004F815885CA01B9010E94EE286D837E839C
:103950008F83988729813A814B815C8169897A8933
:103960008B899C890E94552920E030E040E05FE38C
:103970000E947B2B9B01AC016D817E818F8198859C
:103980000E947B2B69837A838B839C832D893E895C
:103990004F89588D69857A858B859C850E94EE2894
:1039A0006D837E838F83988729813A814B815C81E7
:1039B0000E94EE289B01AC01C601B5010E947B2B41
:1039C000F101668F778F80A391A320E030E040E083
:1039D00050ECC601B5010E947B2B698B7A8B8B8BD7
:1039E0009C8B2D853E854F855889C301B2010E946D
:1039F000EE289B01AC0169897A898B899C890E9498
:103A00007B2BD10192966D937D938D939C9395978B
:103A100029813A814B815C816D817E818F8198857E
:103A20000E94ED289B01AC01C601B5010E947B2BD1
:103A3000F10166A377A380A791A72D893E894F89BD
:103A4000588D69857A858B859C850E94ED284B0170
:103A50005C0129813A814B815C810E94EE28D10171
:103A600052966D937D938D939C9355972D853E85AE
:103A70004F855889C301B2010E94ED289B01AC011A
:103A80000E94EE28F101668B778B808F918F2981C0
:103A90003A814B815C81C501B401B5C09B01AC0189
:103AA000C301B2010E947B2B0E94462C4B015C019A
:103AB0009B01AC010E947B2B6B017C01F10166A391
:103AC00077A380A791A7D1015E966D937D938D9387
:103AD0009C9391979B01AC010E94EE28F10162A397
:103AE00073A384A395A323EF34E045EB5FE3C50103
:103AF000B4010E947B2B4B015C019B01AC01C7010F
:103B0000B6010E94EE2820E030E040E85FE30E942A
:103B1000EE28D10152966D937D938D939C9355978A
:103B200020E030E040E85FE3C701B6010E94ED28E5
:103B30009B01AC010E94EE28F101668B778B808F90
:103B4000918FA5019401C701B6010E94ED2820E0E4
:103B500030E040E85FE309C19B01AC01C301B20161
:103B60000E947B2B0E94462C4B015C019B01AC0107
:103B70000E947B2B20E030E040E85FE30E94EE28CB
:103B80006B017C0180E090E0A0E8BFE3F101868F4B
:103B9000978FA0A3B1A386A397A3A0A7B1A780E006
:103BA00090E0A0E0B0EC82A393A3A4A3B5A323EF7D
:103BB00034E045EB5FE3C501B4010E947B2B4B0170
:103BC0005C019B01AC01C701B6010E94EE28D10146
:103BD00052966D937D938D939C93559720E030E0A2
:103BE00040E050E4C701B6010E94ED289B01AC0102
:103BF0000E94EE28F101668B778B808F918FA50153
:103C00009401C701B6010E94ED28B1C00E947B2B30
:103C10000E94462C6B017C0120E030E040E450E43F
:103C20000E947B2B4B015C01A70196010E947B2B1C
:103C30006B017C01F10166A377A380A791A7D10155
:103C40005E966D937D938D939C9391979B01AC01B0
:103C50000E94EE282B013C01F10162A373A384A30F
:103C600095A320E030E040E85FE3C501B4010E9485
:103C7000EE28A70196010E94EE28D10152966D937D
:103C80007D938D939C93559720E030E040E050E485
:103C9000C301B2010E94ED28F101668B778B808F02
:103CA000918FA501940160E070E080E89FE30E949D
:103CB000ED28A701960159C00E947B2B0E94462C3B
:103CC0004B015C019B01AC010E947B2B6B017C01D1
:103CD00080E090E0A0E4B0E4F10186A397A3A0A760
:103CE000B1A7868F978FA0A3B1A380E090E0A0EC4E
:103CF000B0EC82A393A3A4A3B5A320E030E040E4FA
:103D000050E4C501B4010E947B2B4B015C019B0177
:103D1000AC01C701B6010E94EE2820E030E040E48B
:103D200050E40E94EE28D10152966D937D938D93BD
:103D30009C935597A7019601C701B6010E94EE28F2
:103D400020E030E040EC50E40E94ED28F101668B69
:103D5000778B808F918FA5019401C701B6010E94D6
:103D6000ED2820E030E040E450E40E94EE28D1014C
:103D70005A966D937D938D939C935D97F101C288C4
:103D8000D388E488F588A7019601668D778D80A198
:103D900091A10E945529D1015E966D937D938D93DB
:103DA0009C939197A701960192966D917D918D912B
:103DB0009C9195970E945529F10162A373A384A356
:103DC00095A3A701960166A177A180A591A50E9460
:103DD0005529D10196966D937D938D939C939997D8
:103DE000A701960156966D917D918D919C91599761
:103DF0000E945529F101668B778B808F918FA701E7
:103E00009601628D738D848D958D0E945529D10107
:103E10005A966D937D938D939C935D976C960FB698
:103E2000F894DEBF0FBECDBFDF91CF911F910F91F0
:103E3000FF90EF90DF90CF90BF90AF909F908F90CA
:103E40007F906F905F904F903F902F9008952F92AA
:103E50003F924F925F926F927F928F929F92AF921A
:103E6000BF92CF92DF92EF92FF920F931F93CF9367
:103E7000DF93CDB7DEB72E970FB6F894DEBF0FBE37
:103E8000CDBF9E878D874D835E836F837887F22EAB
:103E9000202EDC0112963C90332009F46FC02A01D9
:103EA0003B017694679457944794DB01CA01F6E08E
:103EB000B695A79597958795FA95D1F7481A590A17
:103EC0006A0A7B0AED85FE85A081B0E01196A30108
:103ED00092010E94382D872E982EA92EBB24818511
:103EE0008823D9F0428553856485758500E010E00C
:103EF00020E832E48F2D0E94E115A82FB0E0119642
:103F0000A50194010E942D2D4B015C0146E0B69461
:103F1000A794979487944A95D1F7AD85BE8514965A
:103F20008C9114978823E9F015964D915D916D91D0
:103F30007C91189700E010E020E832E4822D0E9486
:103F4000E115A82FB0E01196A50194010E942D2D36
:103F50004B015C0136E0B694A794979487943A9508
:103F6000D1F789829A82AB82BC82481459046A04D0
:103F70007B0420F449825A826B827C82ED85FE8527
:103F8000A684B784C088D188618170E080E090E029
:103F90000E941F2A2DE93CE94CE95DE30E947B2B3E
:103FA00020E030E040E05FE30E94EE282B013C017E
:103FB00069817A818B819C810E941F2A69837A831F
:103FC0008B839C836D817E818F8198850E941F2ABF
:103FD0009B01AC016BED7FE089E490E40E945529E0
:103FE0009F938F937F936F938301720129813A810D
:103FF0004B815C81632D8D859E850E9456190F90A3
:104000000F900F900F902E960FB6F894DEBF0FBE54
:10401000CDBFDF91CF911F910F91FF90EF90DF9077
:10402000CF90BF90AF909F908F907F906F905F9058
:104030004F903F902F9008954F925F926F927F9292
:104040008F929F92AF92BF92CF92DF92EF92FF92A8
:104050000F931F93CF93DF9300D000D0CDB7DEB77F
:104060008C016A017B01DC019A968D909D90AD9048
:10407000BC909D97D2962D913D914D915C91D59795
:1040800029833A834B835C835E962D913D914D91BC
:104090005C919197C701B6010E947B2B2B013C01DB
:1040A000F80122A133A144A155A1C501B4010E9488
:1040B0007B2B9B01AC01C301B2010E94EE282B01B6
:1040C0003C01D8019E962D913D914D915C91D197E7
:1040D00096966D917D918D919C9199970E947B2BE5
:1040E0009B01AC01C301B2010E94EE282B013C01EF
:1040F000F80126893789408D518D69817A818B81BC
:104100009C810E947B2B9B01AC01C301B2010E94E8
:10411000ED282B013C01D801D6962D913D914D9172
:104120005C91D9975A966D917D918D919C915D97F7
:104130000E947B2B9B01AC01C301B2010E94ED28C0
:10414000F80186A697A6A0AAB1AAC2A6D3A6E4A6FD
:10415000F5A629813A814B815C8126AB37AB40AF14
:1041600051AF62AB73AB84AB95AB0F900F900F90D8
:104170000F90DF91CF911F910F91FF90EF90DF9003
:10418000CF90BF90AF909F908F907F906F905F90F7
:104190004F900895BF92CF92DF92EF92FF920F93CC
:1041A0001F93CF93DF938C01EB01FC018281882365
:1041B00009F485C0C12CD12C8881F8012381D8163F
:1041C00008F044C0ED2CF12C89819A81FC01EE0DA0
:1041D000FF1D6081222361F0772767FD709575953B
:1041E000679575956795882777FD8095982F05C009
:1041F000772767FD7095872F972F0E94212AAB01A3
:10420000BC01C8010E941C200E94EE296038710583
:1042100034F46038FFEF7F071CF460E801C06FE7FB
:10422000E981FA81EE0DFF1D6083F8018381882307
:1042300059F0772767FD709577FF03C071956195F9
:104240007109C6160CF4C62ED394B6CF2223B9F149
:104250006C2D772767FD7095872F972F0E94212A55
:104260009B01AC0160E070E080E093E40E9455297E
:104270006B017C01B12C8881B81608F509811A817F
:104280000B0D111DF8016081772767FD7095872F51
:10429000972F0E94212AA70196010E947B2B0E9442
:1042A000EE296038710534F46038FFEF7F071CF4A5
:1042B00060E801C06FE7F8016083B394DCCFDF9161
:1042C000CF911F910F91FF90EF90DF90CF90BF9013
:1042D0000895FC0110822FEF218308950895CF9354
:1042E000EFE7F0E0E21BF10927FDF395DC012C91EB
:1042F00030E02F5F3F4FE29FD001E39FB00DF29F70
:10430000B00D1124EB2FFF27552747FD509557FF80
:1043100003C0519541955109DC0111962C9130E073
:104320002F5F3F4F429FC001439F900D529F900DC2
:104330001124880F892F881F990B9195C0E02FEFCA
:1043400030E02E1B3F0B9927FB014081C417D0F4AE
:10435000DB011196ED91FC911297EC0FF11D40815C
:104360004203D001439FB00D1124AB2FBB0FBB0BF9
:104370008A9FA0018B9F500D9A9F500D112450834E
:10438000CF5FE2CFCF910895FC018FEF9FE791833C
:104390008083938382839583848384E791E09783EA
:1043A00086831186108612861386148615860895D4
:1043B0000895FC017183608321E025870895FC0145
:1043C0007383628321E025870895FC0175836483EC
:1043D00021E025870895FC017783668321E0258706
:1043E0000895DC0119968C911997E82FF82FFF0F8B
:1043F000FF0BF7FF03C0F195E195F109E051F84F8C
:1044000084911A969C91911181950895FC0181E007
:10441000848785878385882311F011861086089507
:1044200024E0FC01248721E0258708950F931F9342
:10443000FC018585882309F46CC08485823071F184
:1044400030F4882309F45DC0813041F062C08330CC
:1044500009F43FC0843009F441C05BC02081318140
:10446000A62FB0E00E941E2D40855185AFEFBFE71B
:104470008D01041B150B222717FD2095322F601785
:1044800071078207930728F082E08487B187A087AD
:1044900040C0640F751F718760873BC022813381E4
:1044A000A62FB0E00E941E2D40855185A481B581C4
:1044B0008A010A1B1B0B222717FD2095322F60173C
:1044C00071078207930708F183E08487B187A0878B
:1044D0001AC0848195819187808715C02681378194
:1044E000A62FB0E00E941E2D408551858A0122270B
:1044F00017FD2095322F601771078207930728F068
:10450000148611861086158604C0461B570B5187EA
:1045100040871F910F910895CF93DF93EC0188E0BE
:10452000EFE0F1E0DE0101900D928A95E1F7188647
:104530001986FE013A968CE0DF011D928A95E9F713
:104540008FEF8A87888B7F8B6E8BDF91CF91089559
:10455000FC0186899789009711F00C94E928089549
:10456000A62FB0E0B595A795362F3170E32FF0E078
:10457000E059F74FE491A80FB91F2E2F20955C91B9
:104580002523330F330F542F01C0550F3A95EAF707
:10459000352F3E23232B2C93DC0156968D919C9135
:1045A0005797009739F0DC01ED91FC910190F08173
:1045B000E02D09940895262F2170E22FF0E0E059B4
:1045C000F74FE49170E075956795860F971FDC01B2
:1045D0008C91E8238E2F90E0220F220F02C0959538
:1045E00087952A95E2F708950F931F93E62FF0E041
:1045F00053E0F595E7955A95E1F7562F28EFE29F9E
:10460000500D1124E80FF91F01E010E020E030E028
:1046100004C0000F111F221F331F5A95D2F74423E5
:1046200021F05085502B508704C00095208502232F
:104630000087DC0156968D919C915797009749F021
:10464000DC01ED91FC910280F381E02D1F910F912F
:1046500009941F910F910895FC0136E0639FE00DCE
:10466000F11D1124E40FF11D2287DC0156968D9176
:104670009C915797009739F0DC01ED91FC910480F3
:10468000F581E02D09940895EF92FF920F931F9307
:10469000CF93DF93CDB7DEB766970FB6F894DEBF42
:1046A0000FBECDBFDC0186E1689FB00111249D01E2
:1046B000FE0131967F01AE01475F5F4FCF01F901E7
:1046C00011919F01F70111937F01E417F507B9F7E5
:1046D0008F0128E030E0AD01420F531FFA01428103
:1046E000F80141938F012F5F3F4F2E30310599F72D
:1046F0008E01015F1F4FAD01420F531FFA0142812E
:10470000F80141938F012F5F3F4F2431310599F715
:1047100018962C9118972D8B19962C912E8B46E17B
:1047200050E00E94F80866960FB6F894DEBF0FBE00
:10473000CDBFDF91CF911F910F91FF90EF90089522
:104740006F927F928F929F92AF92BF92CF92DF92A1
:10475000EF92FF920F931F93CF93DF93CDB7DEB706
:1047600066970FB6F894DEBF0FBECDBF8C0186E111
:10477000689FB001112446E150E0CE0101960E94ED
:10478000FA08FE0131967F01712CF0E78F2EF8E0D8
:104790009F2EA1E7AA2EA8E0BA2E6701F40144914A
:1047A000672C660CF70181917F014823662DC801B3
:1047B0000E94B022F5014491F6018081482350E027
:1047C000E4E055954795EA95E1F761E0660DC8018B
:1047D0000E94B0227394F8E07F12DFCF7E0189E05F
:1047E000E80EF11CD12CF70121917F014D2D60E0E5
:1047F000C8010E942C23D394F6E0DF12F4CF7E018F
:104800008FE0E80EF11CD12CF70121917F014D2D95
:1048100061E0C8010E942C23D394F6E0DF12F4CFAC
:10482000E12CF12C4D8950E00E2C02C05595479596
:104830000A94E2F741706E2DC8010E94F4228FEFB6
:10484000E81AF80A98E0E916F10461F7E12CF12C76
:104850004E8950E00E2C02C0559547950A94E2F718
:10486000417068E06E0DC8010E94F422EFEFEE1A6D
:10487000FE0AF8E0EF16F10459F766960FB6F894C1
:10488000DEBF0FBECDBFDF91CF911F910F91FF9083
:10489000EF90DF90CF90BF90AF909F908F907F90E0
:1048A0006F900895CF93DF93FC01C681D781209745
:1048B00041F0CE010E944525CE01DF91CF910C94AD
:1048C000E928DF91CF910895FF920F931F93CF9323
:1048D000DF93EC018B018B81882371F06E817F81E6
:1048E0006115710509F441C0C801DF91CF911F9195
:1048F0000F91FF900C944D2589818F3019F48A8196
:10490000882311F080E014C0F12C8881F81668F536
:104910000E94C92ED8011196ED91FC911297EF0DCE
:10492000F11D880F892F881F990B8083F394EDCF99
:1049300098818917D0F49A81E981F0E0B0E19B9FDA
:10494000E00DF11D112495E0EE0FFF1F9A95E1F7A0
:10495000E80FF11DEE58F74F9491F801A181B28153
:10496000A80FB11D9C938F5FE3CFDF91CF911F9173
:104970000F91FF900895CF92DF92EF92FF920F93E5
:104980001F93CF93DF93CDB7DEB78C01CDB6DEB6E4
:10499000DC014C9114962D913C911597649F200D4C
:1049A000311D112450E0EDB7FEB7E41BF50B0FB637
:1049B000F894FEBF0FBEEDBF8DB79EB701967C0188
:1049C000B9010E94FA0820E0F8018081281798F4C4
:1049D000D8011696ED91FC911797822F90E00180F7
:1049E000F281E02DE80FF91FD701A80FB91F8C91B4
:1049F00080832F5FE9CF0FB6F894DEBE0FBECDBE29
:104A0000DF91CF911F910F91FF90EF90DF90CF90AA
:104A10000895EF92FF920F931F93CF93DF93EC01D2
:104A20007A0119821A821B821D821C821F821E82B9
:104A3000688383E090E00E94E5288C0168810E94F1
:104A400036251F830E83FD82EC8260E0CE01DF916C
:104A5000CF911F910F91FF90EF900C94BB24FC011C
:104A60006183238121110C94BB240895CF93DF939C
:104A7000EC011A8219826883862F90E00E94E72851
:104A80009A838983DF91CF910895FC01818192817E
:104A9000009711F00C94EB2808950F931F93CF9378
:104AA000DF93EC018B016817790721F189819A81E5
:104AB000009711F00E94EB28D8018C9188838C918B
:104AC00090E00E94E7289A83898320E08881281754
:104AD00088F4822F90E0D8011196ED91FC91129705
:104AE000E80FF91F3081E981FA81E80FF91F30835F
:104AF0002F5FECCFCE01DF91CF911F910F910895E1
:104B0000DC011196ED91FC911297108208951F938C
:104B1000CF93DF93162F40E057E360E070E0FC0195
:104B200040835183628373831093710383E090E029
:104B30000E94E528EC01612F0E943625D093700376
:104B4000C0936F03DF91CF911F910895CF93DF93AF
:104B5000C0916F03D0917003209741F0CE010E9465
:104B60004525CE01DF91CF910C94E928DF91CF91BB
:104B70000895E6EBF0E080818F7B808380818F7DDC
:104B80008083E0EBF0E080818160808380818260BF
:104B90008083A1EBB0E08C91877F8C9380818F7EA6
:104BA000808380818062808380818F7B808380810D
:104BB0008F7780838C9181608C938C918D7F8C9387
:104BC0008C918B7F8C93F894E0E8F0E080818E7F6D
:104BD000808380818D7F8083E1E8F0E08081886040
:104BE000808380818F7E80838081816080838081CB
:104BF0008D7F808380818B7F808380910D01909158
:104C00000E019093890080938800EFE6F0E08081A8
:104C10008260808378940895CF92DF92EF92FF9222
:104C2000FC019A01AB01C080D180E280F3802C1599
:104C30003D054E055F0509F46BC020833183428337
:104C40005383213080E7380783E048075105E8F0B7
:104C50002130304E4640510540F040E050EE66E0D5
:104C600070E040835183628373832081318142816C
:104C7000538160E070E281EA97E00E94D72C309384
:104C80000E0120930D0188E041C0213088EB3807E8
:104C900081E04807510560F060E070E980ED93E045
:104CA0000E94D72C30930E0120930D0184E02EC07A
:104CB00021308CED38074105510560F060E078E463
:104CC00088EE91E00E94D72C30930E0120930D01C5
:104CD00082E01CC0253F31054105510540F445EFF8
:104CE00050E060E070E040835183628373832081F1
:104CF00031814281538160E074E284EF90E00E9450
:104D0000D72C30930E0120930D0181E080930C018C
:104D1000FF90EF90DF90CF900895CF93DF93A09115
:104D20006F03B091700320E080917103281788F41D
:104D3000822F90E0EB01E981FA81E80FF91F3081C1
:104D40001196ED91FC911297E80FF91F30832F5FB8
:104D5000EBCFDF91CF9108951F920F920FB60F9274
:104D600011242F938F939F93EF93FF93E0916F0301
:104D7000F091700380916E030180F281E02DE80FC5
:104D8000F11D808180588093B40080910D01909135
:104D90000E01909389008093880080910C012091EE
:104DA0006E0390E0820F911D80936E03209171033A
:104DB000821738F0209171039927821B9109809303
:104DC0006E03FF91EF919F918F912F910F900FBEE6
:104DD0000F901F901895FC0110821182128213828D
:104DE000148208950895E3E7FCE0E4912E2F2095C6
:104DF000DC0111963C912323B0E16B9FB00111249B
:104E0000E6232E2BFC0121830895DC01E3E7FCE07F
:104E1000849111969C91892382958F700895E2E781
:104E2000FCE0E4912E2F2095DC0111963C91119726
:104E300023236E23262B11962C930895E2E7FCE0A2
:104E4000E491DC0111968C918E230895E2E7FCE059
:104E5000E4912E2F2095DC0113963C911397232388
:104E60006E23262B13962C930895E2E7FCE0E49141
:104E7000DC0113968C918E230895E3E7FCE0E49126
:104E80002E2F2095DC0113963C912323B0E16B9FDC
:104E9000B0011124E6232E2BFC0123830895AF9249
:104EA000BF92CF92EF920F93CF93DF931F92CDB724
:104EB000DEB75C01FC0162831482642F29830E94A7
:104EC0003D272981622FC5010E942627602FC50139
:104ED0000E94F3266E2DC5010E940F27F501CC20FC
:104EE00011F0008301C0E0820F90DF91CF910F910C
:104EF000EF90CF90BF90AF900895DC01E3E7FCE026
:104F0000849113969C91892382958F700895EF92D6
:104F1000FF920F931F93CF93DF93EC018A81882335
:104F200071F18C81860F8C830881CE010E94052748
:104F3000182FCE010E941E27F82ECE010E947D2739
:104F4000E82ECE010E943527011303C09C819E15D7
:104F500038F40F1112C09C81981778F0011305C026
:104F60009C819E199C83F88203C0981B9C831883A4
:104F70008A818F3F11F081508A8381E001C080E0F7
:104F8000DF91CF911F910F91FF90EF900895FC0159
:104F90001082138212826483618308950895FC0154
:104FA00024813181822F90E0831B910997FF03C0F8
:104FB000919581959109408105973CF0411105C07B
:104FC00081E08083138212820CC0442351F08281DD
:104FD0009381860F911D93838283803D974008F0D3
:104FE00010828081882329F0231719F0218381E022
:104FF000089580E00895FC011182148213821582C5
:1050000084E686836083628350874783089508958A
:10501000FC014081413011F080E00895838194814A
:10502000860F911D94838383278130858217930790
:1050300098F385818111F0CF458381E00895FC01CB
:1050400091818681981710F4960F9183918198171A
:10505000B0F090812281921791F0913039F42111B2
:105060000AC014821382158281E006C0911103C028
:1050700081E0213009F080E092831182089580E080
:1050800008951F920F920FB60F9211242F933F9302
:105090008F939F93AF93BF93809173039091740309
:1050A000A0917503B09176033091720323E0230F32
:1050B0002D3720F40196A11DB11D05C026E8230F50
:1050C0000296A11DB11D20937203809373039093E8
:1050D0007403A0937503B093760380917703909146
:1050E0007803A0917903B0917A030196A11DB11DB7
:1050F0008093770390937803A0937903B0937A0316
:10510000BF91AF919F918F913F912F910F900FBEC3
:105110000F901F9018952FB7F894609173037091BA
:10512000740380917503909176032FBF089578944E
:1051300084B5826084BD84B5816084BD85B582609C
:1051400085BD85B5816085BDEEE6F0E0808181603A
:105150008083E1E8F0E0108280818260808380813A
:1051600081608083E0E8F0E0808181608083E1EB12
:10517000F0E0808184608083E0EBF0E080818160FA
:105180008083EAE7F0E080818460808380818260B0
:105190008083808181608083808180688083109299
:1051A000C100089580E090E0089508950E94972836
:1051B0000E94D5280E946606C0E0D0E00E946A06E0
:1051C0002097E1F30E940000F9CF0C94542D0C9429
:1051D000542D0C94EC2D0C94EC2D5058BB27AA2781
:1051E0000ED0CEC197D130F09CD120F031F49F3F4A
:1051F00011F41EF467C10EF4E095E7FB5DC1E92FE1
:10520000E1D180F3BA17620773078407950718F096
:1052100071F49EF5F9C10EF4E0950B2EBA2FA02D76
:105220000B01B90190010C01CA01A0011124FF2753
:10523000591B99F0593F50F4503E68F11A16F0404E
:10524000A22F232F342F4427585FF3CF469537954D
:105250002795A795F0405395C9F77EF41F16BA0B12
:10526000620B730B840BBAF09150A1F0FF0FBB1FC0
:10527000661F771F881FC2F70EC0BA0F621F731F09
:10528000841F48F4879577956795B795F7959E3F66
:1052900008F0B3CF9395880F08F09927EE0F9795F4
:1052A0008795089546D1E3957CC10CD069C139D169
:1052B00040F030D130F021F45F3F19F0FDC05111C2
:1052C000A4C100C17FD198F39923C9F35523B1F349
:1052D000951B550BBB27AA2762177307840738F065
:1052E0009F5F5F4F220F331F441FAA1FA9F333D0C4
:1052F0000E2E3AF0E0E830D091505040E695001C78
:10530000CAF729D0FE2F27D0660F771F881FBB1F33
:10531000261737074807AB07B0E809F0BB0B802D0D
:10532000BF01FF2793585F4F2AF09E3F510568F059
:10533000C3C06BC15F3FECF3983EDCF38695779575
:105340006795B795F7959F5FC9F7880F911D96955B
:10535000879597F90895E1E0660F771F881FBB1FB7
:10536000621773078407BA0720F0621B730B840B64
:10537000BA0BEE1F88F7E095089519F40EF09CC063
:1053800043C1A0C027D1C8F39638C0F707F80F92E1
:10539000E8942BE33AEA48EB5FE7BBD10F920F9218
:1053A0000F924DB75EB70F9273D1E6EAF0E08DD061
:1053B0004F915F91EF91FF91E595EE1FFF1F49F02F
:1053C000FE57E0684427EE0F441FFA95E1F7419538
:1053D000550B2AD10F9007FE1EC1089504D0689482
:1053E000B11113C10895F6D088F09F5790F0B92FEE
:1053F0009927B751A0F0D1F0660F771F881F991F2A
:105400001AF0BA95C9F712C0B13081F0FDD0B1E001
:105410000895FAC0672F782F8827B85F39F0B93F11
:10542000CCF3869577956795B395D9F73EF490952B
:105430008095709561957F4F8F4F9F4F0895E894A9
:1054400009C097FB3EF490958095709561957F4FCC
:105450008F4F9F4F9923A9F0F92F96E9BB2793957A
:10546000F695879577956795B795F111F8CFFAF48A
:10547000BB0F11F460FF1BC06F5F7F4F8F4F9F4FBB
:1054800016C0882311F096E911C0772321F09EE819
:10549000872F762F05C0662371F096E8862F70E07F
:1054A00060E02AF09A95660F771F881FDAF7880F59
:1054B0009695879597F9089597F99F6780E870E02A
:1054C00060E008959FEF80EC0895DF93CF931F93E2
:1054D0000F93FF92EF92DF927B018C01689405C0DD
:1054E000DA2EEF0114D1FE01E894A59125913591B2
:1054F00045915591AEF3EF0182DEFE019701A801BF
:10550000DA9479F7DF90EF90FF900F911F91CF9190
:10551000DF91089500240A94161617061806090646
:10552000089500240A941216130614060506089519
:10553000C9CF50D0E8F3E894E0E0BB279F57F0F0E4
:105540002AED3FE049EC06C0EE0FBB0F661F771F48
:10555000881F28F0B23A62077307840728F0B25A0E
:10556000620B730B840BE3959A9572F7803830F4D5
:105570009A95BB0F661F771F881FD2F79048C3C14B
:10558000092E0394000C11F4882352F0BB0F40F451
:10559000BF2B11F460FF04C06F5F7F4F8F4F9F4F91
:1055A0000895EF93E0FF06C0A2EA2AED3FE049EC40
:1055B0005FEB25DEE5DF0F90039401FC9058EEECE5
:1055C000F0E0B4C157FD9058440F551F59F05F3FAC
:1055D00071F04795880F97FB991F61F09F3F79F015
:1055E00087950895121613061406551FF2CF469597
:1055F000F1DF08C0161617061806991FF1CF869519
:105600007105610508940895E894BB2766277727FC
:10561000CB0197F908959B01AC0160E070E080E850
:105620009FE343CE49CF6DC1D5DFE8F39923D9F38A
:10563000940F511DBBF39150504094F059F08823C2
:1056400032F0660F771F881F91505040C1F79E3F80
:10565000510544F7880F911D9695879597F9089500
:105660005F3FACF0983E9CF0BB2786957795679599
:10567000B79508F4B1609395C1F7BB0F58F711F4D3
:1056800060FFE8CF6F5F7F4F8F4F9F4FE3CFBDCF5E
:10569000FA01DC01AA0FBB1F9B01AC01BF5728F424
:1056A00022273327442750781FC0B75188F4AB2FE7
:1056B0000024469537952795011CA395D2F3002029
:1056C00069F0220F331F441FB395DAF30DD085CD57
:1056D00061307105A0E88A07B94630F49B01AC013E
:1056E0006627772788279078309621F020833183AA
:1056F0004283538308950BD043CF0CDF28F011DF92
:1057000018F0952309F0D8CEDDCE11247ECF5ADFD4
:10571000A0F3959FD1F3950F50E0551F629FF001C4
:10572000729FBB27F00DB11D639FAA27F00DB11D1D
:10573000AA1F649F6627B00DA11D661F829F2227A6
:10574000B00DA11D621F739FB00DA11D621F839F2D
:10575000A00D611D221F749F3327A00D611D231F03
:10576000849F600D211D822F762F6A2F11249F5751
:1057700050408AF0E1F088234AF0EE0FFF1FBB1F74
:10578000661F771F881F91505040A9F79E3F510513
:1057900070F092CE3ACF5F3FECF3983EDCF3869503
:1057A00077956795B795F795E7959F5FC1F7FE2BBE
:1057B000880F911D9695879597F908950BDFE0F076
:1057C0009E37D8F09639B8F49E3848F4672F782F72
:1057D0008827985FF9CF8695779567959395953942
:1057E000D0F3B62FB1706B0F711D811D20F487951A
:1057F0007795679593956AC084C007CF9F9399DE8C
:105800000F9007FCEE5FCDCE11F40EF45BCE79C0A5
:10581000E1DED0F39923D9F3CEF39F57550B87FFE1
:105820007ED00024A0E640EA9001805856959795D6
:1058300028F4805C660F771F881F20F02617370733
:10584000480730F4621B730B840B202931294A2B43
:10585000A69517940794202531254A2758F7660FF7
:10586000771F881F20F026173707480730F4620B90
:10587000730B840B200D311D411DA09581F7B901DB
:10588000842F9158880F969587950895DF93D92F87
:1058900050DEE695D7952AED3FE049E45FE3B33A61
:1058A0006207730784079507D7952AF0A2EA49ECA7
:1058B0009068A5DC65DEECEEF0E038D0DD0F0BF093
:1058C000AADEDD0F0BF49058DF910895882371F460
:1058D000772321F09850872B762F07C0662311F489
:1058E00099270DC09051862B70E060E02AF09A95C0
:1058F000660F771F881FDAF7880F9695879597F9B7
:1059000008959F3F31F0915020F4879577956795E2
:10591000B795880F911D9695879597F908959150A1
:105920005040660F771F881FD2F708959F938F937B
:105930007F936F93FF93EF939B01AC01DCDEEF91BC
:10594000FF91C3DD2F913F914F915F91D4CEDB0149
:105950008F939F930E942D2DBF91AF91A29F800D99
:10596000911DA39F900DB29F900D11240895991B36
:1059700079E004C0991F961708F0961B881F7A9546
:10598000C9F78095089597FB072E16F4009407D069
:1059900077FD09D00E94402D07FC05D03EF490957C
:1059A00081959F4F0895709561957F4F0895A1E26D
:1059B0001A2EAA1BBB1BFD010DC0AA1FBB1FEE1F89
:1059C000FF1FA217B307E407F50720F0A21BB30BD4
:1059D000E40BF50B661F771F881F991F1A9469F750
:1059E00060957095809590959B01AC01BD01CF01AC
:1059F0000895052E97FB1EF400940E94102D57FD6C
:105A000007D00E94D72C07FC03D04EF40C94102D25
:105A100050954095309521953F4F4F4F5F4F0895DA
:105A200090958095709561957F4F8F4F9F4F08950A
:105A3000EE0FFF1F0590F491E02D0994A29FB00195
:105A4000B39FC001A39F700D811D1124911DB29FB2
:105A5000700D811D1124911D08950E941E2DA59F7A
:105A6000900DB49F900DA49F800D911D1124089559
:105A7000B7FF0C942D2D0E942D2D821B930B0895A2
:105A8000AA1BBB1B51E107C0AA1FBB1FA617B70764
:105A900010F0A61BB70B881F991F5A95A9F7809580
:105AA0009095BC01CD010895CF93DF93823091058D
:105AB00010F482E090E0E0917D03F0917E0320E01D
:105AC00030E0A0E0B0E0309739F1408151814817D3
:105AD0005907B8F04817590771F4828193811097DC
