:100000000C943C060C9464060C9464060C948B26A9
:100010000C9464060C94B7260C9464060C94640645
:100020000C9464060C9464060C9464060C946108A9
:100030000C9464060C9464060C9464060C94640698
:100040000C945A290C9464060C94E3260C946406D0
:100050000C9464060C9452260C9464060C9464066A
:100060000C9464060C946406EF0CF40CEA0CEF0C90
:10007000F40CEF0CF40C810DB90D270E830ED70E86
:10008000D70ED70E590F590F4D104D104711A5110E
:10009000FF115512832296229B22BB22FC220123B0
:1000A00007232723302307634236B79BD8A71A3983
:1000B000685618AEBAAB558C1D3CB7CC5763BD6DB6
:1000C000EDFD753EF6177231BF000000803F05A8B8
:1000D0004CCDB2D44EB93836A9020C50B9918688AD
:1000E000083CA6AAAA2ABE000000803F0664EC1BBA
:1000F0003C04BC163E3BE5B93CC93C37C29E5A3D68
:10010000660498083EEA69AAAA3E000000803F0003
:1001100080808080808080808080808080808080DF
:100120007F7F7F7F7F7F7F7F7F7F7F7F7F7F7F7FDF
:100130004B595C5C5C5B5A59F5EBE8E7E61C5155A2
:10014000FEF2F0EFEFEFEFEF8982808081BBF0F6F7
:10015000737E51FE8697A6BD525D686DF09C8095BA
:100160002E3A464DCFDEECF90714212BACBBCADB8F
:100170006A7F7D7C7B7A7979DCD1D2D2D2D3D3D31A
:10018000D4D4D5D5D5D6D6D6D7D7D7D8D8D8D9DD03
:1001900080878F979FA7AFB7BFC7CFD7DFE7EFF7AE
:1001A000FF070F171F272F373F474F575F676F779F
:1001B00007141F2C37434E59646E777F45A6E1081C
:1001C000DFA7C3D8D2CE93AFBDC0C6D0DCE6F0FB6C
:1001D000808594A7BBD0E4F90E2216E6F7091D2FFF
:1001E000E3F1021629FBEAFB0F22364A5D63212D5B
:1001F00040515D666F777E7904060C141D263033FE
:10020000C6CAD1DBE5EFFA00808188909AA4AFC01E
:10021000E6C3A49286808B89AAA4D6C600E81A00F9
:1002200015191A1F39325C4A755B7A59633F300AD7
:10023000FF172F465969757C7F7C756959462F17C2
:10024000FFE7CFB8A595898280828995A5B8CFE7C9
:10025000122F2C446D6C62797F6A5E6A5328221DCE
:10026000E7D3D5B491989A8181999A91B1D6D6E481
:100270002C393E42484F5A787E55453A312A241C43
:10028000CFC4C0BBB6AEA38680A8B9C4CCD3DAE2D3
:1002900080070706060505040403030302020201A2
:1002A0000101010000000000FFFFFFFFFFFFFE0152
:1002B000CADC7F639B851E6B0DB2D52B2EEFD5FB61
:1002C0001D0CEDEE060EFFF4FA0605FCF9FF040125
:1002D0001B1E190F100A0B080B050803050106FF6A
:1002E00002FE03FE01FDFFFE02FE01FD00ED80CCDB
:1002F00000000000000000000000000000000000FE
:1003000000000000000000000000000000000000ED
:100310009CBF0A07DFC4DB01EAACD3F6EDEFCB19D3
:10032000250D3C40F1417F220909F5D41F2A3102F5
:100330005D23C68005181E4B2CB8D93BF90D0A2247
:10034000DD424D34C90715E1BEC9D5980707FEFA4D
:100350000C251919647178DCC57F736324081209B0
:10036000F1DAD1DCCC8C8482273A8999ADF208F29B
:1003700077F01A3242B9CC033E0F06DF6A057D667C
:100380009980F79320F7EFC2FC3045BFCEE4108E82
:1003900025CF1FC214E480465613C05E0459DE2FD9
:1003A0000F8E60F0EFBD4137BA1AB43DC7E80AB30B
:1003B0002C777E6F3507F9020B00E7CCBDC4D8F16E
:1003C0000F283B403015FBF1FB04F5C68D808AD524
:1003D000808CB18C8E8087CA12F5F1121D10060335
:1003E000FBFAEDE3F11406F046757F6D684E716E11
:1003F0001C24262625242123432C1D16110E0D0D09
:1004000029170C06030100F680899CADBDCCD9E804
:100410008081899ACCD50A160A1C3211F5E5F419A7
:10042000E50B1908ECCCE4F5E9F62B3365737A7F1C
:10043000235E7647335458401B1306BE919280A228
:10044000ED3057403E37C9A0CAF90DDBBAC3B6D864
:10045000457E7D7851F8A2808FB6E30F3A627969C4
:1004600020C08780839C10767E5AA941ED8385C089
:100470008018891B921D9A1EA317AC16B416BD10C6
:10048000D817F11E0725192C2B2F36363F3D45383E
:100490002823CEE02B008BDDEA340B08180FE11087
:1004A0005F5E80BAF61CE6EFF8E4D0213371DCE140
:1004B000E3D974E29F65F6E9C858F08068FDE1CDA4
:1004C0004D248D5921D1CA4221910549D0B95905F0
:1004D0006878781D808B931E764A57B8B6CAC23F9B
:1004E000044715FC1FA7E3B8F9664B6FC79985A5AC
:1004F0001C5630CBB0EC263DEE20B8F42EDAF932A3
:10050000FEFFDECB07404BE699D611497F9FA3E063
:100510000FF00001010202030404050506070708A5
:1005200009090A0B0B0C0D0D0E0F0F1011121213EF
:1005300014141516171718191A1B1B1C1D1E1F1F24
:1005400020212223242525262728292A2B2C2D2E3D
:100550002F2F303132333435363738393A3B3D3E40
:100560003F4041424344454648494A4B4C4D4F5019
:10057000515253555657595A5B5C5E5F60626364D3
:100580006667696A6B6D6E707173747677797A7C61
:100590007D7F0FF0000C1925313C47515A626A707B
:1005A000757A7D7E7F7E7D7A75706A625A51473C8E
:1005B0003125190C00F4E7DBCFC4B9AFA69E9690A5
:1005C0008B868382818283868B90969EA6AFB9C4E8
:1005D000CFDBE7F4000810182028303840474F5789
:1005E0005F676F777F776F675F574F474038302877
:1005F0002018100800F8F0E8E0D8D0C8C0B9B1A9B8
:10060000A199918981899199A1A9B1B9C0C8D0D87E
:10061000E0E8F0F87F7B77736F6B67635F5B57533E
:100620004F4B4743403C3834302C2824201C1814AE
:10063000100C080400FCF8F4F0ECE8E4E0DCD8D49A
:10064000D0CCC8C4C0BDB9B5B1ADA9A5A19D99957F
:10065000918D89858181818181828282828282835A
:1006600083838384848485858686878788898A8A2C
:100670008B8C8D8F9091939597999B9DA0A3A6A904
:10068000ADB1B6BBC0C6CCD3DBE3ECF5000C18268D
:100690003545576B00193046586670767876726C1F
:1006A000655F59565556595F656C727678767066F7
:1006B0005846301900E7D0BAA89A908A888A8E9452
:1006C0009BA1A7AAABAAA7A19B948E8A888A909A7D
:1006D000A8BAD0E77F7F7F7F8181818181818181FD
:1006E00081818181818181818181818181818181FA
:1006F00081818181818181818181818181818181EA
:1007000081818181818181818181818181818181D9
:10071000818181817F7F7F7F7F7F7F7F7F7F7F7FE1
:100720007F7F7F7F818181818181818181818181C1
:1007300081818181818181818181818181818181A9
:100740008181818181818181818181818181818199
:10075000818181817F7F7F7F7F7F7F7F7F7F7F7FA1
:100760007F7F7F7F7F7F7F7F7F7F7F7F7F7F7F7F99
:100770007F7F7F7F81818181818181818181818171
:100780008181818181818181818181818181818159
:10079000818181817F7F7F7F7F7F7F7F7F7F7F7F61
:1007A0007F7F7F7F7F7F7F7F7F7F7F7F7F7F7F7F59
:1007B0007F7F7F7F7F7F7F7F7F7F7F7F7F7F7F7F49
:1007C0007F7F7F7F81818181818181818181818121
:1007D000818181817F7F7F7F7F7F7F7F7F7F7F7F21
:1007E0007F7F7F7F7F7F7F7F7F7F7F7F7F7F7F7F19
:1007F0007F7F7F7F7F7F7F7F7F7F7F7F7F7F7F7F09
:100800007F7F7F7F7F7F7F7F7F7F7F7F7F7F7F7FF8
:10081000818181810004080C1014181C2024282CCC
:100820003034383C4043474B4F53575B5F63676BF3
:100830006F73777B7F7F7F7F7F7F7F7F7F7F7F7FF0
:100840007F7F7F7F7F7F7F7F7F7F7F7F7F7F7F7FB8
:100850007F7F7F7F7F7F7F7F7F7F7F7F7F7F7F7FA8
:100860007F7F7F7F7F7F7F7F7F7F7F7F7F7F7F7F98
:100870007F7F7F7F7F7B77736F6B67635F5B575390
:100880004F4B4743403C3834302C2824201C18144C
:10089000100C08047F7F7F7F7F7F7F7F7F7F7F7F3C
:1008A0007F7F7F7F81818181818181818181818140
:1008B000818181817F7F7F7F7F7F7F7F8181818138
:1008C000818181817F7F7F7F7F7F7F7F8181818128
:1008D000818181817F7F7F7F7F7F7F7F8181818118
:1008E000818181817F7F7F7F7F7F7F7F8181818108
:1008F000818181817F7F7F7F7F7F7F7F7F7F7F7F00
:100900007F7F7F7F7F7F7F7F7F7F7F7F81818181EF
:100910008181818198B8F25BDD26ECEB532F16B70D
:100920009198E41B4F192290D31424E284B6A13885
:100930003FA55E4E87E53192E718F70BB041F6C848
:100940009B74693ABD94815FB95836FE536DDB3BA9
:1009500028B354E47F7F7F7F7F7F7F7F7F7F7F7F90
:100960007F7F7F7F7F7F7F7F7F7F7F7F7F7F7F7F97
:100970007F7F7F7F7F7F7F7F7F7F7F7F7F7F7F7F87
:100980007F7F7F7F7F7F7F7F7F7F7F7F7F7F7F7F77
:100990007F7F7F7F0605041005030F040210010FFF
:1009A000000E0000010001000100551503000100C8
:1009B00055150300010055550100555501005555C9
:1009C00002000400210023002500270029002C003C
:1009D0002E003100340037003A003E00410045004F
:1009E00049004E00520057005C00620068006E0033
:1009F00075007B0083008B0093009C00A500AF0076
:100A0000B900C400D000DC00E900F70006011501C0
:100A1000260137014A015D01720188019F01B80179
:100A2000D201EE010B022A024B026E029302BA02BD
:100A3000E40210033F037003A403DC03170455040E
:100A40009704DD0427057505C80520067D06E00628
:100A50004907B8072D08A9082D09B9094D0AEA0A5E
:100A6000900B400CFA0CC00D910E6F0F5A105311E1
:100A70005B1272139A14D41520178018F519801B75
:100A8000231DDE1EB420A622B524E4263429A72B7C
:100A9000402E0031EA330037453ABC3D68414C45B1
:100AA0006B49C84D68524F57805C0062D467006E36
:100AB0008A74797BD082978AD592909BD0A49DAE80
:100AC000FFB8FFC30F00000F0007000F0000000079
:100AD000000707000003050507070B0B00050700CB
:100AE0000307070F000000000000000003030507D4
:100AF00007070B0F000000000000000001010101CA
:100B0000010101000004090102030B0E00010407AA
:100B1000080C0D0F000005000E001B002E004D00FC
:100B20007B00C3003201DD01E4027904E806A80A73
:100B30006F10541900000008001100190022002A4B
:100B40000033003B0044004C0055005D0066006E21
:100B50000077FF7FFF7FFF0F9005AA027401D90085
:100B600085005600390026001A0013000D00090008
:100B70000700050000000000000000000000000069
:100B8000000000002B2724271F1B181B130F0C0F1E
:100B900007030003003C043909340C30102D1528DC
:100BA00018241C2D10401F001F40100010401F0073
:100BB0001F401080150502050705040015050205F4
:100BC00007050400020502050407040700040004E9
:100BD00009010901004080074080034080054080F2
:100BE000028002020C21130E0C15070202040715E5
:100BF0000E101321008003030580070708801616D6
:100C000017170F400040078000400704800407804A
:100C1000000480040003070A0C0F1316181B1F2280
:100C200024272B2E00400C400B4007400C404080F6
:100C30000B40074029241D18110C050027241D18FE
:100C4000110C0500004005070000050700400507DE
:100C50000005070C000C0007000A00070009000748
:100C6000000A000718171A151A1318121810180E70
:100C7000180C180B8506890611241FBECFEFD8E08B
:100C8000DEBFCDBF11E0A0E0B1E0E2E7F0E602C0D8
:100C900005900D92A836B107D9F723E0A8E6B1E098
:100CA00001C01D92A639B207E1F71CE0C6E7DCE0FF
:100CB00004C02297FE010E94332EC437D107C9F722
:100CC0000E94EF290C942C300C9400008CE691E0EB
:100CD0000C94531D0E94A429809168019091690190
:100CE000A0916A01B0916B01681B860F911DA11D37
:100CF000B11D8093680190936901A0936A01B0933C
:100D00006B018CE691E00C94C21D8CE691E00C9492
:100D1000731C8CE691E00C94491DFC0110822FEFAE
:100D20002183089508951F93CF93EFE7F0E0E21B2E
:100D3000F10927FDF395DC012C9130E02F5F3F4F47
:100D4000E29FD001E39FB00DF29FB00D1124EB2F75
:100D5000FF27552747FD509557FF03C051954195F3
:100D60005109DC0111962C9130E02F5F3F4F429FDB
:100D7000C001439F900D529F900D1124880F892F21
:100D8000881F990B9195C0E04FEF50E04E1B5F0B11
:100D90009927DB012C91C21710F5FB0121813281CB
:100DA0002115310521F0F901EC0FF11D108114031B
:100DB000D001159FB00D1124AB2FBB0FBB0B8A9F29
:100DC000F0018B9FF00D9A9FF00D11242115310534
:100DD00021F0D901AC0FB11DFC93CF5FDACFCF91D9
:100DE0001F910895FC011082138212826483618333
:100DF00008950895FC0124813181822F90E0831BA6
:100E0000910997FF03C091958195910940810597BC
:100E10003CF0411105C081E08083138212820CC036
:100E2000442351F082819381860F911D93838283A5
:100E3000803D974008F010828081882329F0231795
:100E400019F0218381E0089580E00895CF93DF9326
:100E5000C0917A01D0917B01209731F0CE010E94A0
:100E60001829CE010E94022AC0917501D091760105
:100E7000209741F0CE010E941829CE01DF91CF9139
:100E80000C94022ADF91CF910895E6EBF0E0808187
:100E90008F7B808380818F7D8083E0EBF0E0808199
:100EA00081608083808182608083A1EBB0E08C913F
:100EB000877F8C9380818F7E808380818062808316
:100EC00080818F7B808380818F7780838C9181600C
:100ED0008C938C918D7F8C938C918B7F8C93F894D9
:100EE000E0E8F0E080818E7F808380818D7F808349
:100EF000E1E8F0E080818860808380818F7E80835C
:100F000080818160808380818D7F808380818B7FE1
:100F1000808380910C0190910D01909389008093C2
:100F20008800EFE6F0E08081826080837894089505
:100F30007F928F929F92AF92BF92CF92DF92EF9269
:100F4000FF920F931F93CF93DF93EC016A017B0114
:100F500088819981AA81BB81481759076A077B0755
:100F600009F440C0488359836A837B8300E010E022
:100F7000812C84E2982E84EFA82EB12CC501B401F7
:100F8000002E04C0660F771F881F991F0A94D2F79E
:100F9000A70196010E94F02D2F3F310559F050F026
:100FA00081E090E0002E01C0880F0A94EAF7809358
:100FB0000B0105C00F5F1F4F08301105F9F62150D6
:100FC000310930930D0120930C0181E08093790168
:100FD00020910B019C81291728F490910B019C838F
:100FE00080937801DF91CF911F910F91FF90EF9047
:100FF000DF90CF90BF90AF909F908F907F9008959B
:1010000060937C0180917C01815080930E01089552
:101010001F93CF93DF93162F40E057E360E070E01B
:10102000FC0140835183628373831482612F0E9489
:10103000000883E090E00E94FE29EC01612F0E94ED
:101040000929D0937B01C0937A0183E090E00E944C
:10105000FE29EC01612F0E940929D0937601C093EB
:101060007501DF91CF911F91089520917701211192
:1010700027C0E0917501F091760140E020917C015C
:101080004217B8F4DB0111962D913C91129721156E
:10109000310521F0D901A40FB11D5C91218132816C
:1010A0002115310521F0D901A40FB11D5C934F5FCB
:1010B000E5CF20910B01FC01248381E0809378012E
:1010C00008951F920F920FB60F9211242F933F9302
:1010D0004F936F937F938F939F93AF93BF93EF93B0
:1010E000FF9380917901882349F060910B018091F1
:1010F00074010E94D02D992309F45AC020917401E3
:1011000021110FC080917801882331F081E0809314
:1011100077011092780105C08091770181111092BA
:10112000770180917701E0917A01F0917B0188232A
:10113000D1F0A0917501B091760111968D919C919D
:101140001297009721F0DC01A20FB11D3C91818123
:101150009281009721F0FC01E20FF11D308330589D
:101160003093B4000BC081819281009721F0FC0183
:10117000E20FF11D408140584093B40090910E0160
:1011800080910A0120917401820F89238093740158
:10119000FF91EF91BF91AF919F918F917F916F914F
:1011A0004F913F912F910F900FBE0F901F90189568
:1011B00080910C0190910D0190938900809388009B
:1011C00080910B0180930A011092790197CFCF9300
:1011D000DF93FC01C681D781209741F0CE010E94A8
:1011E0001829CE01DF91CF910C94022ADF91CF9183
:1011F0000895FF920F931F93CF93DF93EC018B0120
:101200008B81882371F06E817F816115710509F4EE
:101210004BC0C801DF91CF911F910F91FF900C94AB
:10122000202989818F3019F48A81882311F040E0C8
:1012300038C0F12C8881F816B8F50E94E22F880F8B
:10124000892F881F990BD80111962D913C911297E7
:101250002115310521F0F901EF0DF11D8083F39483
:10126000E9CF8A81E981F0E0B0E18B9FE00DF11DCB
:10127000112485E0EE0FFF1F8A95E1F7E40FF11DC1
:10128000E05FFE4FE491D80111968D919C911297E9
:10129000242F30E0009721F0DC01A20FB31FEC9364
:1012A0004F5F88814817E8F2DF91CF911F910F912E
:1012B000FF900895CF92DF92EF92FF920F931F93CA
:1012C000CF93DF93CDB7DEB78C01CDB6DEB6DC01B0
:1012D0004C9114962D913C911597649F200D311DD2
:1012E000112450E0EDB7FEB7E41BF50B0FB6F894F0
:1012F000FEBF0FBEEDBF8DB79EB701967C01B90151
:101300000E94622340E0F80180814817B0F4842FE6
:1013100090E0F701E80FF91F5081D8011696ED9182
:10132000FC911797218132812115310521F0F901B6
:10133000E80FF91F50834F5FE6CF0FB6F894DEBE7B
:101340000FBECDBEDF91CF911F910F91FF90EF9017
:10135000DF90CF900895EF92FF920F931F93CF935A
:10136000DF93EC017A0119821A821B821D821C8292
:101370001F821E82688383E090E00E94FE298C0118
:1013800068810E9409291F830E83FD82EC8260E040
:10139000CE01DF91CF911F910F91FF90EF900C94B0
:1013A0005A09FC016183238121110C945A09089583
:1013B000CF93DF93EC0188E0E1E1F1E0DE01019001
:1013C0000D928A95E1F718861986FE013A968CE00F
:1013D000DF011D928A95E9F78FEF8A87888B7F8BD3
:1013E0006E8BDF91CF910895FC01868997890097D4
:1013F00011F00C94022A0895A62FB0E0B595A79598
:10140000362F3170E32FF0E0E05FFA4FE491A80F40
:10141000B91F2E2F20955C912523330F330F542FA6
:1014200001C0550F3A95EAF7352F3E23232B2C9315
:10143000DC0156968D919C915797009739F0DC010D
:10144000ED91FC910190F081E02D09940895262FF3
:101450002170E22FF0E0E05FFA4FE49170E07595C3
:101460006795860F971FDC018C91E8238E2F90E003
:10147000220F220F02C0959587952A95E2F70895CD
:101480000F931F93E62FF0E053E0F595E7955A95FB
:10149000E1F7562F28EFE29F500D1124E80FF91FB6
:1014A00001E010E020E030E004C0000F111F221F17
:1014B000331F5A95D2F7442321F05085502B508783
:1014C00004C00095208502230087DC0156968D918B
:1014D0009C915797009749F0DC01ED91FC910280B7
:1014E000F381E02D1F910F9109941F910F910895A1
:1014F000FC0136E0639FE00DF11D1124E40FF11DA6
:101500002287DC0156968D919C915797009739F070
:10151000DC01ED91FC910480F581E02D09940895A2
:10152000EF92FF920F931F93CF93DF93CDB7DEB768
:1015300066970FB6F894DEBF0FBECDBFDC0186E123
:10154000689FB00111249D01FE0131967F01AE011B
:10155000475F5F4FCF01F90111919F01F70111938F
:101560007F01E417F507B9F78F0128E030E0AD01FE
:10157000420F531FFA014281F80141938F012F5FFF
:101580003F4F2E30310599F78E01015F1F4FAD019E
:10159000420F531FFA014281F80141938F012F5FDF
:1015A0003F4F2431310599F718962C9118972D8BC0
:1015B00019962C912E8B46E150E00E94602366968E
:1015C0000FB6F894DEBF0FBECDBFDF91CF911F9154
:1015D0000F91FF90EF9008956F927F928F929F925C
:1015E000AF92BF92CF92DF92EF92FF920F931F9331
:1015F000CF93DF93CDB7DEB766970FB6F894DEBF13
:101600000FBECDBF8C0186E1689FB001112446E179
:1016100050E0CE0101960E946223FE0131967F01C7
:10162000712CF0E18F2EF5E09F2EA1E1AA2EA5E00E
:10163000BA2E6701F4014491672C660CF701819181
:101640007F014823662DC8010E94FC09F5014491E1
:10165000F6018081482350E0E4E055954795EA95EE
:10166000E1F761E0660DC8010E94FC097394F8E09F
:101670007F12DFCF7E0189E0E80EF11CD12CF7014B
:1016800021917F014D2D60E0C8010E94780AD3941A
:10169000F6E0DF12F4CF7E018FE0E80EF11CD12CD2
:1016A000F70121917F014D2D61E0C8010E94780A68
:1016B000D394F6E0DF12F4CFE12CF12C4D8950E009
:1016C0000E2C02C0559547950A94E2F741706E2D95
:1016D000C8010E94400A8FEFE81AF80A98E0E9165C
:1016E000F10461F7E12CF12C4E8950E00E2C02C080
:1016F000559547950A94E2F7417068E06E0DC80170
:101700000E94400AEFEFEE1AFE0AF8E0EF16F1042D
:1017100059F766960FB6F894DEBF0FBECDBFDF91C6
:10172000CF911F910F91FF90EF90DF90CF90BF90DE
:10173000AF909F908F907F906F900895CF92DF929F
:10174000EF92FF92CF936A017B01C22F682F772718
:1017500067FD7095872F972F0E943A2B20E030E08D
:101760004EEF52E40E946E2AA70196010E94942C2B
:101770000E94DB2A6B017C016C2F70E080E090E01E
:101780000E94382B9B01AC01C701B6010E94942C2A
:1017900020E030E040E85FE30E94062A0E94F72C38
:1017A0000E940C2B862FCF91FF90EF90DF90CF906F
:1017B0000895FC0148E152E761EB7FE340835183E8
:1017C0006283738380E4848386E0858348E152E703
:1017D00061E37FE3468357836087718780E8828770
:1017E00087E0838708950895CF93DF93EC01688B9A
:1017F00070E080E090E00E94382B288139814A8196
:101800005B810E94942C20E030E04FE753E40E947B
:101810006E2A698B7A8B8B8B9C8BDF91CF9108958D
:10182000CF93DF93EC016D8B70E080E090E00E943D
:10183000382B2E813F81488559850E94942C20E0C9
:1018400030E04FE753E40E946E2A6E8B7F8B888FC7
:10185000998FDF91CF910895AF92BF92CF92DF928F
:10186000EF92FF920F931F93CF93DF93EC01862F9C
:10187000A42EB22E0C851D856801E12CF12C9D89CA
:101880009923C1F04E895F89688D798D2A850E94E0
:101890009E0B282F30E02F5F3F4FD8010E94372E3C
:1018A0006B017C010B8404C0F694E794D794C79431
:1018B0000A94D2F788898823C9F049895A896B89A3
:1018C0007C892C818A2D0E949E0BA82FB0E0119656
:1018D000A70196010E94462E6B017C010D8004C079
:1018E000F694E794D794C7940A94D2F7BB20C9F032
:1018F0004E815F81688579852A858B2D0E949E0B9C
:10190000A82FB0E01196A70196010E94462E6B0108
:101910007C010B8404C0F694E794D794C7940A948E
:10192000D2F7DF86CE86DF91CF911F910F91FF9086
:10193000EF90DF90CF90BF90AF900895FC0148E109
:1019400052E761EB7FE3408351836283738380E4DA
:10195000848386E0858340E050E060E07FE3468357
:101960005783608771874DE95CE96CE97DE34287C5
:1019700053876487758788E7868780E197E2908B35
:101980008787118A81E0828B138A148A158A168AC6
:10199000178A108E118E128E138E148E158E168E3F
:1019A00040E050E060E87FE343A354A365A376A33F
:1019B00008950895CF93DF93EC016A8B462F50E092
:1019C0004550510947305105B8F44C5C5F4FFA015E
:1019D0000C94312E47E25DE16EE973E409C049EAF7
:1019E0005EE963EE7FE304C040E053EF63EB70E435
:1019F0004F8F58A369A37AA31BAE1CAE1DAE1EAEBB
:101A0000DE01DF961D921D921D921C921397149673
:101A10001D921D921D921C921397FE01E95BFF4FD0
:101A20001082118212821382DF91CF910895CF9399
:101A3000DF93EC016D8B70E080E090E00E94382B2A
:101A4000288139814A815B810E94942C20E030E01A
:101A50004FE753E40E946E2A6E8B7F8B888F998F9D
:101A6000DF91CF910895CF93DF93EC016A8F70E0FF
:101A700080E090E00E94382B288139814A815B8187
:101A80000E94942C20E030E04FE753E40E946E2A3D
:101A90006B8F7C8F8D8F9E8FDF91CF9108952F92CA
:101AA0003F924F925F926F927F928F929F92AF92EE
:101AB000BF92CF92DF92EF92FF920F931F93CF933B
:101AC000DF93CDB7DEB76C970FB6F894DEBF0FBECD
:101AD000CDBF1C01E62F29013A01E982FA820B836E
:101AE0001C8369A97AA98BA99CA90E2F10E0F80183
:101AF0003197EF30F10508F03AC5E55CFF4F0C94E3
:101B0000312E9B01AC010E94072AA30192010E9481
:101B1000942C4B015C010E94172D29813A814B8145
:101B20005C810E946E2A20E030E040E05FE30E948A
:101B3000942C6B017C01C501B4010E946B2A4B01FE
:101B40005C019B01AC0160E070E080E89FE30E94D3
:101B5000062A2B013C0120E030E040E05FE30E94D8
:101B6000942CD1019F966D937D938D939C93D297E6
:101B700039C09B01AC010E94072AA30192010E9477
:101B8000942C4B015C010E94172D29813A814B81D5
:101B90005C810E946E2A20E030E040E05FE30E941A
:101BA000942C6B017C01C501B4010E946B2A4B018E
:101BB0005C0120E030E040E85FE30E94072A2B014F
:101BC0003C0120E030E040E05FE30E94942CD10132
:101BD0009F966D937D938D939C93D29777FA709493
:101BE00077F87094F10143AA54AA65AA76AAD79609
:101BF0006D937D938D939C93DA9720E030E040E8DD
:101C00005FE3C701B6010E94072AF10163A374A331
:101C100085A396A320E030E040E050ECC501B4017C
:101C20000E94942CD10197966D937D938D939C93F4
:101C30009A97A701960160E070E080E89FE30E9418
:101C4000062AF10163A774A785A796A790C49B01F4
:101C5000AC010E94072AA30192010E94942C4B011F
:101C60005C010E94172D6B017C0129813A814B8117
:101C70005C810E946E2A20E030E040E05FE30E9439
:101C8000942C2B013C01C501B4010E946B2A4B012D
:101C90005C0120E030E040E05FE3C701B6010E9454
:101CA000942CD1019F966D937D938D939C93D297A5
:101CB000F10113AA14AA15AA16AADC01CB01B05887
:101CC00087AB90AFA1AFB2AF20E030E040E85FE378
:101CD000C301B2010E94072AD10193966D937D93AF
:101CE0008D939C93969720E030E040E050ECC50146
:101CF000B4010E94942CF10167A370A781A792A759
:101D0000A3019201D1C09B01AC010E94072AA3014B
:101D100092010E94942C4B015C010E94172D298195
:101D20003A814B815C810E946E2A20E030E040E0E5
:101D30005FE30E94942C6B017C01C501B4010E94F9
:101D40006B2A412C512C20E8622E2FE3722EF101D8
:101D500047A650AA61AA72AA20E030E040E050EC09
:101D60000E94942C4B015C01D101D3966D937D931D
:101D70008D939C93D697F10147AA50AE61AE72AE97
:101D8000A3019201C701B6010E94072AD1019396CF
:101D90006D937D938D939C939697F10187A290A666
:101DA000A1A6B2A6A7019601C301B20125C39B015A
:101DB000AC010E94072AA30192010E94942C2B01DE
:101DC0003C010E94172D29813A814B815C810E9440
:101DD0006E2A20E030E040E05FE30E94942C6983AB
:101DE0007A838B839C83C301B2010E946B2A69872B
:101DF0007A878B879C87A601950169817A818B817F
:101E00009C810E94942C2B013C0120E030E040E8B2
:101E10005FE30E94072AF10167A770AB81AB92AB29
:101E200020E030E040E050EC69857A858B859C8528
:101E30000E94942C69877A878B879C87D101D396DF
:101E40006D937D938D939C93D697A301920160E04F
:101E500070E080E89FE30E94062AF10167AB70AF53
:101E600081AF92AFA601950169817A818B819C81B6
:101E70000E946E2A4B015C0120E030E040E85FE305
:101E80000E94072AD10193966D937D938D939C9325
:101E9000969789859A85AB85BC85F10187A390A724
:101EA000A1A7B2A7A501940160E070E080E89FE3DC
:101EB000A3C29B01AC010E94072AA30192010E94C8
:101EC000942C9B01AC01298F3A8F4B8F5C8F0E9421
:101ED0006B2A6D837E838F839887C601B5010E942C
:101EE000212D2B013C01298D3A8D4B8D5C8DCA0132
:101EF000B9010E94172D698B7A8B8B8B9C8B20E00C
:101F000030E040E85FE3C601B5010E94062A698718
:101F10007A878B879C872D813E814F8158850E94CF
:101F2000942C6D8B7E8B8F8B988F20E030E040E877
:101F30005FE3C601B5010E94072A6D877E878F8700
:101F4000988B2D813E814F8158850E94942C6D8302
:101F50007E838F839887A3019201C301B2010E94FF
:101F6000072A2B013C0129813A814B815C816989D7
:101F70007A898B899C890E946E2A20E030E040E0BB
:101F80005FE30E94942C9B01AC01C301B2010E944B
:101F9000942C2B013C012D893E894F89588D6D85EC
:101FA0007E858F8598890E94062A69837A838B8330
:101FB0009C83A30192010E94072A9B01AC01C601E8
:101FC000B5010E94942CF10167A770AB81AB92AB75
:101FD000A6019501C601B5010E94072A698B7A8B7B
:101FE0008B8B9C8B2D813E814F81588569857A85AD
:101FF0008B859C850E94062A9B01AC0169897A89A0
:102000008B899C890E94942CD101D3966D937D93EA
:102010008D939C93D697A301920169817A818B81DC
:102020009C810E94062A9B01AC01C601B5010E9459
:10203000942CF10167AB70AF81AF92AF2D893E89CF
:102040004F89588D6D857E858F8598890E94072AD6
:102050004B015C01A30192010E94072AD1019396D2
:102060006D937D938D939C9396972D813E814F81A7
:10207000588569857A858B859C850E94072A20E092
:1020800030E040E050EC0E94942CF10167A370A76F
:1020900081A792A7A3019201F7C09B01AC010E9406
:1020A000072AA30192010E94942C2B013C010E945B
:1020B0006B2A6D877E878F87988BC601B5010E943A
:1020C000212D6D837E838F839887C301B2010E9487
:1020D000172D698B7A8B8B8B9C8B20E030E040E84E
:1020E0005FE3C601B5010E94062A2B013C012D8544
:1020F0003E854F8558890E94942C6D8B7E8B8F8BEB
:10210000988F20E030E040E85FE3C601B5010E940F
:10211000072A69877A878B879C872D853E854F851F
:1021200058890E94942C6D877E878F87988B2D818C
:102130003E814F815885CA01B9010E94072A6D83EB
:102140007E838F83988729813A814B815C8169895D
:102150007A898B899C890E946E2A20E030E040E0D9
:102160005FE30E94942C9B01AC016D817E818F8185
:1021700098850E94942C69837A838B839C832D8914
:102180003E894F89588D69857A858B859C850E940B
:10219000072A6D837E838F83988729813A814B81BB
:1021A0005C810E94072A9B01AC01C601B5010E9417
:1021B000942CF10167A770AB81AB92AB20E030E0CB
:1021C00040E050ECC601B5010E94942C698B7A8BDB
:1021D0008B8B9C8B2D853E854F855889C301B20121
:1021E0000E94072A9B01AC0169897A898B899C89A5
:1021F0000E94942CD101D3966D937D938D939C93E3
:10220000D69729813A814B815C816D817E818F8156
:1022100098850E94062A9B01AC01C601B5010E9467
:10222000942CF10167AB70AF81AF92AF2D893E89DD
:102230004F89588D69857A858B859C850E94062AF1
:102240004B015C0129813A814B815C810E94072A04
:10225000D10193966D937D938D939C9396972D8545
:102260003E854F855889C301B2010E94062A9B0111
:10227000AC010E94072AF10167A370A781A792A76A
:1022800029813A814B815C81C501B401B5C09B01B4
:10229000AC01C301B2010E94942C0E945F2D4B013E
:1022A0005C019B01AC010E94942C6B017C01F1014B
:1022B00067AB70AF81AF92AFD1019F966D937D9365
:1022C0008D939C93D2979B01AC010E94072AF10148
:1022D00063AB74AB85AB96AB23EF34E045EB5FE3C8
:1022E000C501B4010E94942C4B015C019B01AC011F
:1022F000C701B6010E94072A20E030E040E85FE312
:102300000E94072AD10193966D937D938D939C93A0
:10231000969720E030E040E85FE3C701B6010E94F5
:10232000062A9B01AC010E94072AF10167A370A74E
:1023300081A792A7A5019401C701B6010E94062AB0
:1023400020E030E040E85FE309C19B01AC01C3013C
:10235000B2010E94942C0E945F2D4B015C019B01F5
:10236000AC010E94942C20E030E040E85FE30E9442
:10237000072A6B017C0180E090E0A0E8BFE3F10157
:1023800087A790ABA1ABB2AB87AB90AFA1AFB2AF19
:1023900080E090E0A0E0B0EC83AB94ABA5ABB6AB33
:1023A00023EF34E045EB5FE3C501B4010E94942CB8
:1023B0004B015C019B01AC01C701B6010E94072AD9
:1023C000D10193966D937D938D939C93969720E086
:1023D00030E040E050E4C701B6010E94062A9B01AC
:1023E000AC010E94072AF10167A370A781A792A7F9
:1023F000A5019401C701B6010E94062AB1C00E943E
:10240000942C0E945F2D6B017C0120E030E040E4C1
:1024100050E40E94942C4B015C01A70196010E949C
:10242000942C6B017C01F10167AB70AF81AF92AF6F
:10243000D1019F966D937D938D939C93D2979B0131
:10244000AC010E94072A2B013C01F10163AB74AB84
:1024500085AB96AB20E030E040E85FE3C501B40116
:102460000E94072AA70196010E94072AD10193968C
:102470006D937D938D939C93969720E030E040E0A0
:1024800050E4C301B2010E94062AF10167A370A7BC
:1024900081A792A7A501940160E070E080E89FE326
:1024A0000E94062AA701960159C00E94942C0E94FE
:1024B0005F2D4B015C019B01AC010E94942C6B01D0
:1024C0007C0180E090E0A0E4B0E4F10187AB90AF44
:1024D000A1AFB2AF87A790ABA1ABB2AB80E090E069
:1024E000A0ECB0EC83AB94ABA5ABB6AB20E030E096
:1024F00040E450E4C501B4010E94942C4B015C01FE
:102500009B01AC01C701B6010E94072A20E030E020
:1025100040E450E40E94072AD10193966D937D9385
:102520008D939C939697A7019601C701B6010E94CF
:10253000072A20E030E040EC50E40E94062AF10136
:1025400067A370A781A792A7A5019401C701B6014F
:102550000E94062A20E030E040E450E40E94072A6E
:10256000D1019B966D937D938D939C939E97F101E2
:10257000C3A0D4A0E5A0F6A0A701960167A570A905
:1025800081A992A90E946E2AD1019F966D937D9395
:102590008D939C93D297A7019601D3966D917D91CF
:1025A0008D919C91D6970E946E2AF10163AB74AB1A
:1025B00085AB96ABA701960167A970AD81AD92ADD1
:1025C0000E946E2AD101D7966D937D938D939C9333
:1025D000DA97A701960197966D917D918D919C91C7
:1025E0009A970E946E2AF10167A370A781A792A70C
:1025F000A701960163A574A585A596A50E946E2ADC
:10260000D1019B966D937D938D939C939E976C9631
:102610000FB6F894DEBF0FBECDBFDF91CF911F91F3
:102620000F91FF90EF90DF90CF90BF90AF909F9071
:102630008F907F906F905F904F903F902F90089574
:102640003F924F925F926F927F928F929F92AF9242
:10265000BF92CF92DF92EF92FF920F931F93CF938F
:10266000DF93CDB7DEB72C970FB6F894DEBF0FBE61
:10267000CDBF4C014D835E836F837887B22EDC0122
:1026800052963C90332009F482C02A013B01769493
:10269000679457944794DB01CA01F6E0B695A79575
:1026A00097958795FA95D1F7481A590A6A0A7B0ACD
:1026B000F401848981110CC0A685B0E01196A301B4
:1026C00092010E94512EC72ED82EE92EFF2404C05D
:1026D000C784D088E12CF12CF401828D8823D9F0B5
:1026E000438D548D658D768D24818B2D0E949E0B9C
:1026F000A82FB0E01196A70196010E94462E6B010B
:102700007C01D40115960C9004C0F694E794D794FC
:10271000C7940A94D2F7F40185898823D9F04689B1
:102720005789608D718D2481802F0E949E0BA82F68
:10273000B0E01196A70196010E94462E6B017C0124
:10274000D40115960C9004C0F694E794D794C794DE
:102750000A94D2F7C982DA82EB82FC824C145D04BF
:102760006E047F0420F449825A826B827C828981C4
:102770009A81AB81BC814497A105B10540F484E105
:1027800090E0A0E0B0E089839A83AB83BC83D4015E
:102790005F96AD90BD90CD90DC90929751966C91E4
:1027A00070E080E090E00E94382BF40122853385B0
:1027B000448555850E94942CD40116962D913D9107
:1027C0004D915C9119970E94072A2B013C01698168
:1027D0007A818B819C810E94382B69837A838B83D9
:1027E0009C836D817E818F8198850E94382B9B010F
:1027F000AC016BED7FE089E490E40E946E2A9F9328
:102800008F937F936F938301720129813A814B816A
:102810005C81632DC4010E944F0D0F900F900F90AB
:102820000F902C960FB6F894DEBF0FBECDBFDF9190
:10283000CF911F910F91FF90EF90DF90CF90BF90BD
:10284000AF909F908F907F906F905F904F903F9050
:1028500008952F923F924F925F926F927F928F9244
:102860009F92AF92BF92CF92DF92EF92FF920F931F
:102870001F93CF93DF93CDB7DEB728970FB6F894A9
:10288000DEBF0FBECDBF98878F836A017B01DC015D
:10289000DB968D909D90AD90BC90DE97AD5BBF4F69
:1028A000BE83AD832D913D914D915C9129833A83F7
:1028B0004B835C83FC0127A530A941A952A9C7011C
:1028C000B6010E94942C2B013C01AF81B885D396B0
:1028D0002D913D914D915C91D697C501B4010E9417
:1028E000942C9B01AC01C301B2010E94072A2B0169
:1028F0003C010F811885015C1F4FF8012081318157
:1029000042815381AF81B885D7966D917D918D912C
:102910009C91DA970E94942C9B01AC01C301B201F7
:102920000E94072A2B013C01EF81F88527A130A5E1
:1029300041A552A569817A818B819C810E94942C4A
:102940009B01AC01C301B2010E94062A2B013C018C
:102950002F803884F7E42F0E311CD1012D913D9149
:102960004D915C91EF81F88563A574A585A596A529
:102970000E94942C9B01AC01C301B2010E94062A63
:10298000D8018D929D92AD92BC921397EF81F885FC
:10299000C3AED4AEE5AEF6AE29813A814B815C81FF
:1029A000D1012D933D934D935C931397ED81FE815F
:1029B000608371838283938328960FB6F894DEBF79
:1029C0000FBECDBFDF91CF911F910F91FF90EF9080
:1029D000DF90CF90BF90AF909F908F907F906F903F
:1029E0005F904F903F902F900895AF92BF92CF92FB
:1029F000DF92EF92FF920F931F93CF93DF938C019F
:102A0000EB01FC018289882309F49AC0E12CF12CA6
:102A10008881F8012389F81608F04FC089819A81CE
:102A2000222399F0009721F0FC01EF0DF11DD080D9
:102A30006D2D772767FD70957595679575956795E9
:102A4000882777FD8095982F0CC0009721F0FC0116
:102A5000EF0DF11DC0806C2D772767FD7095872FD6
:102A6000972F0E943A2BAB01BC01C8010E94291488
:102A70000E94072B6038710534F46038FFEF7F0740
:102A80001CF460E801C06FE789819A81009721F00A
:102A9000FC01EF0DF11D6083F8018389882359F053
:102AA000772767FD709577FF03C071956195710970
:102AB000E6160CF4E62EF394ABCF222309F440C0C3
:102AC0006E2D772767FD7095872F972F0E943A2BE1
:102AD0009B01AC0160E070E080E093E40E946E2A0C
:102AE0006B017C01A12C8881A81650F509811A81FF
:102AF0000115110521F0F801EA0DF11DB0806B2DD3
:102B0000772767FD7095872F972F0E943A2BA70193
:102B100096010E94942C0E94072B6038710534F4B2
:102B20006038FFEF7F071CF460E801C06FE7011514
:102B3000110521F0F801EA0DF11D6083A394D3CFB4
:102B4000DF91CF911F910F91FF90EF90DF90CF9089
:102B5000BF90AF900895FC01108208950895CF931F
:102B6000DF93DC014C9150E085E0559547958A95BF
:102B7000E1F7A0E0B0E8CFE7FB018081A81780F57E
:102B8000FB0181819281009721F0FC01EA0FF11D88
:102B9000D0812D2F332727FD3095042E02C0220F20
:102BA000331F0A94E2F7203831053CF00097B1F06A
:102BB0008A0F911DFC01C08311C02038FFEF3F0731
:102BC0003CF4009759F08A0F911DFC01B08306C0B8
:102BD000009721F08A0F911DFC012083AF5FCCCFBD
:102BE000DF91CF910895FC018FEF9FE79183808360
:102BF000938382839583848384E791E0978386839C
:102C000011861086128613861486158608950895F7
:102C1000FC017183608321E025870895FC017383A3
:102C2000628321E025870895FC017583648321E098
:102C300025870895FC017783668321E02587089521
:102C4000DC011C969C911C9719968C9119979130D8
:102C500099F4282F382F330F330B37FF03C03195EA
:102C600021953109EFE7F0E0E21BF109EE5EFA4F42
:102C7000E4918FE78E1B0DC0E82FF82FFF0FFF0B9D
:102C8000F7FF03C0F195E195F109FF27EE5EFA4FDA
:102C900084911A969C91911181950895FC0181E08F
:102CA000848785878385882311F01186108608958F
:102CB00024E0FC01248721E0258708950F931F93CA
:102CC000FC018585882309F46CC08485823071F10C
:102CD00030F4882309F45DC0813041F062C0833054
:102CE00009F43FC0843009F441C05BC020813181C8
:102CF000A62FB0E00E94372E40855185AFEFBFE789
:102D00008D01041B150B222717FD2095322F60170C
:102D100071078207930728F082E08487B187A08734
:102D200040C0640F751F718760873BC0228133816B
:102D3000A62FB0E00E94372E40855185A481B58131
:102D40008A010A1B1B0B222717FD2095322F6017C3
:102D500071078207930708F183E08487B187A08712
:102D60001AC0848195819187808715C0268137811B
:102D7000A62FB0E00E94372E408551858A01222778
:102D800017FD2095322F601771078207930728F0EF
:102D9000148611861086158604C0461B570B518772
:102DA00040871F910F910895CF93DF93FC01C08559
:102DB000D185209741F0CE010E941829CE01DF91E4
:102DC000CF910C94022ADF91CF910895FC0160838A
:102DD0008FEF860F818370E080E091E00E94DC2D10
:102DE00064830895FF920F931F93CF93DF93EC01B9
:102DF000F62E80E888838FE789831A821B8281E020
:102E00008C838D838E838F83198618861A86CE01D4
:102E10000E94E61683E090E00E94FE298C016F2D4F
:102E20000E94092919870887DF91CF911F910F917F
:102E3000FF900895AF92BF92CF92DF92EF92FF92F0
:102E40000F931F93CF93DF93FC01DB018281E3801B
:102E5000811103C0EE2009F4BAC0215890E0019618
:102E6000289F6001299FD00C1124C4808D2D6C2DCA
:102E70000E94D02DD82E552747FD509557FF03C0EF
:102E8000519541955109F12C8FEFE81AF80A4E9DA2
:102E9000C0014F9D900D5E9D900D1124880F892FCC
:102EA000881F990B91956C2D0E94D02D6081282F41
:102EB00030E02D0D311D462F50E04217530714F01E
:102EC0008D0D01C0862F811101C081E070917D01BF
:102ED000781710F4670F01C0672F681BF12C8C91D5
:102EE000F81608F071C011968D919C911297009779
:102EF00021F08F0D911DEC01B8804B2D552747FD1A
:102F0000509580859185EC0129813A812115310503
:102F100029F0C901860F911DEC01A8808A2D9927FF
:102F200087FD9095058002C0959587950A94E2F7F4
:102F3000840F951F8038910534F48038DFEF9D07AA
:102F40001CF480E801C08FE72115310521F0270F1F
:102F5000311DE901888311968D919C9112970097FC
:102F600029F09C012F0D311DE9011881412F5527B2
:102F700047FD5095078002C0559547950A94E2F7A2
:102F800020853185E90129813A812115310521F01A
:102F9000260F311DE9010881202F332727FD3095A9
:102FA000068002C0359527950A94E2F7240F009712
:102FB00021F08F0D911DEC01288381817F5F6F5F70
:102FC0006823F39478238BCF70937D011286DF9171
:102FD000CF911F910F91FF90EF90DF90CF90BF9016
:102FE000AF900895CF93DF93EC018A85811106C0DD
:102FF000888599850E94532981E08A87DF91CF9146
:103000000895FC016283611105C02381211102C072
:103010000C94F2170895FC0110821182128213821F
:10302000148208950895E3E9F5E0E4912E2F2095A8
:10303000DC0111963C912323B0E16B9FB001112478
:10304000E6232E2BFC0121830895DC01E3E9F5E062
:10305000849111969C91892382958F700895E2E95D
:10306000F5E0E4912E2F2095DC0111963C9111970B
:1030700023236E23262B11962C930895E2E9F5E085
:10308000E491DC0111968C918E230895E2E9F5E03C
:10309000E4912E2F2095DC0113963C911397232366
:1030A0006E23262B13962C930895E2E9F5E0E49124
:1030B000DC0113968C918E230895E3E9F5E0E49109
:1030C0002E2F2095DC0113963C912323B0E16B9FBA
:1030D000B0011124E6232E2BFC0123830895AF9227
:1030E000BF92CF92EF920F93CF93DF931F92CDB702
:1030F000DEB75C01FC0162831482642F29830E9485
:103100005D182981622FC5010E944618602FC501F4
:103110000E9413186E2DC5010E942F18F501CC20B6
:1031200011F0008301C0E0820F90DF91CF910F91E9
:10313000EF90CF90BF90AF900895DC01E3E9F5E008
:10314000849113969C91892382958F700895EF92B4
:10315000FF920F931F93CF93DF93EC018A81882313
:1031600051F18C81860F8C830881CE010E94251835
:10317000182FCE010E943E18F82ECE010E949D18F5
:10318000E82ECE010E945518011303C09C819E15A4
:1031900038F40F1110C09C81981768F0011305C016
:1031A0009C819E199C83F88203C0981B9C83188382
:1031B0008A8181508A83DF91CF911F910F91FF9077
:1031C000EF900895FC0182E0808381E090E092839B
:1031D000818384E083831482158216821782089586
:1031E0000895DC016C9370E0FB01EE0FFF1FEC55BE
:1031F000F64F8591949112969C938E931197FB01B3
:10320000EC56F64F649113966C930895CF93DF9329
:10321000EC019B01A981BA810E94372E0B8004C06A
:1032200096958795779567950A94D2F76F736F8314
:10323000EC8180E4E89FF0011124E60FF11DEC56CB
:10324000FA4FE491ED838E81882311F0E195ED83AF
:10325000DF91CF910895FC011082118212821382B6
:1032600040E05DE760E070E04483558366837783E8
:103270001186108608950895FC0110821182128231
:1032800013821186108608954115510580E1680763
:10329000710570F44115510594E06907710550F40A
:1032A00081E0411551056140710528F480E00895E1
:1032B00083E0089582E00895CF92DF92EF92FF922B
:1032C000CF93DF93EC016A017B014C835D836E83B6
:1032D0007F830E944419E82FA701960104C05695E8
:1032E0004795379527958A95D2F76885798580E047
:1032F00090E00E2E04C096958795779567950A9471
:10330000D2F70E94C02D20E130E042E0E49F201976
:103310003109112404C096958795779567952A956C
:10332000D2F7688379838A839B83DF91CF91FF9063
:10333000EF90DF90CF9008954115510580E1680727
:103340007105C8F44115510588E068077105C8F496
:103350004115510584E06807710578F44115510560
:1033600082E06807710558F4411551056140710507
:1033700040F081E0089585E0089583E0089582E0BB
:10338000089584E008954F925F926F927F928F929A
:103390009F92AF92BF92CF92DF92EF92FF92CF9324
:1033A000DF93EC0188819981AA81BB81860F911DF1
:1033B000A11DB11D88839983AA83BB83CC80DD8046
:1033C000EE80FF808C159D05AE05BF0540F08C1981
:1033D0009D09AE09BF0988839983AA83BB8388802E
:1033E0009980AA80BB80B501A401CE010E949C19DE
:1033F000282F60E170E0681B71092401350104C0C9
:10340000440C551C661C771C6A95D2F7C301B201A7
:103410003601470104C096948794779467942A955F
:10342000D2F7A40193010E94F02D39872887DF91FC
:10343000CF91FF90EF90DF90CF90BF90AF909F9093
:103440008F907F906F905F904F900895CF93DF9310
:10345000FC018DE78083118214821582168210860A
:1034600012861186148613861586DF011E9680E863
:10347000ED0119928A95E9F7738362834783DF919F
:10348000CF9108950895FC018185228593858387D6
:103490002487891B0895FC01603110F01182089582
:1034A000618308951F93CF93DF93EC0110E08A812D
:1034B0009B81DC01ED91FC910280F381E02D612F75
:1034C00009951F5F103899F7DF91CF911F910895EB
:1034D000FC01462F683F48F16C3F28F46A3F60F4D6
:1034E000683F21F008956C3FB1F008958185928581
:1034F0000196928781870895128611861486138615
:1035000081E0848382819381DC01ED91FC910480D0
:10351000F581E02D09C0148282819381DC01ED9157
:10352000FC910680F781E02D0994603F70F11092C4
:103530008101603FA9F481E0858316828FEF80933B
:10354000100180930F018085882309F4DBC08281FC
:103550009381DC01ED91FC910084F185E02DE4CFB5
:10356000673F09F0CFC08581882309F4CBC015825D
:103570008085882309F4C6C082819381DC01ED91A6
:10358000FC910484F585E02DCFCF67FF0BC06093DD
:10359000810181E08093800110927F0110927E0171
:1035A000158208958581882331F1668181E0860F37
:1035B0008683813019F4409310010895823019F404
:1035C00040930F01089590911001808198139AC043
:1035D00090910F018781981395C08085882309F405
:1035E00091C082819381DC01ED91FC916250028453
:1035F000F385E02D099480918101882309F482C02C
:1036000090918001992329F060937F0110928001AD
:10361000089560937E019181292F206982131BC038
:103620006623C9F060917F01DF01A60FB11D1E96D0
:103630008C911E9781115FC081E01E968C938585C9
:103640008F5F858782819381DC01ED91FC910190F0
:10365000F081E02D4FC0392F3068831721F082139D
:103660001AC0411118C060917F01DF01A60FB11D82
:103670001E968C911E978823F1F11E961C928585CB
:103680008150858782819381DC01ED91FC910280DC
:10369000F381E02D20C0292F206E82131EC082816D
:1036A0009381DC01ED91FC91411105C00288F38901
:1036B000E02D61E810C04F3729F40288F389E02D2E
:1036C0006FE709C0642F70E060547109660F771FBF
:1036D0000288F389E02D09950EC0906B89130BC009
:1036E00082819381DC01ED91FC910088F189E02DCC
:1036F00060917F01099510927F0110927E0181E017
:103700008093800108950895DC011696ED91FC9157
:103710001797EA5AFF4F60830895089583EE91E06A
:103720000C94D61E82E891E00C946423FC018681FF
:1037300097810C943826242FDC011496ED91FC918E
:103740001597462F6789828993890C94780A1F936D
:10375000CF93DF93EC018C819D81DC0156961C9107
:10376000413009F05DC0613031F4111102C067E0F1
:103770000AC06FEF07C0623049F4173011F460E0FF
:1037800002C061E0610F0E94EC206DC0633011F552
:10379000EE81FF8122A9FC0182899389213041F4C5
:1037A00068E00E94270A882309F45DC04FEF24C017
:1037B000612F0E94270AEC81FD81811109C04FE031
:1037C000612F82899389DF91CF911F910C94FC091D
:1037D0004FEF24C06430B1F5EE81FF8122A9213082
:1037E00081F468E0DC0152968D919C9153970E9480
:1037F000270A8F30C0F541E0480FEC81FD8168E079
:10380000E0CF612FFC01828993890E94270AEC8115
:10381000FD818F3011F440E0D3CF41E0480FD0CF8D
:10382000611108C0FC0180899189DF91CF911F91BE
:103830000C94521A6530B9F4642FDF91CF911F9127
:103840000C9408216111F6CFDC01ED91FC911197E8
:10385000AD53BF4F0190F081E02D4FE76C91DF91A8
:10386000CF911F910994DF91CF911F910895CF922D
:10387000EF920F93CF93DF93EC01EE81FF81EA5A31
:10388000FF4F0081613001F5EC81FD8160E08289AC
:1038900093890E94900A202F209527708E819F8106
:1038A000CC24C394E22E28E048E064E08A5A9F4F7B
:1038B0000E946F1860E08E819F81DF91CF910F9100
:1038C000EF90CF900C944926DF91CF910F91EF901C
:1038D000CF900895DC011496ED91FC9115978089A5
:1038E00091890C94681ACF93DF93EC018DE191E0FC
:1038F0009983888381E391E09B838A83809131035C
:10390000811164C08BE391E09093E4018093E30123
:103910008BE591E09093E6018093E50181E691E0EB
:103920009093E8018093E70189EE91E00E942B19C2
:103930001092F9011092FA011092FC011092FB0111
:103940008FEF91E00E94F3158DE092E00E94F31555
:103950008BE192E00E948D068DE192E00E949E0C28
:1039600088E692E00E94E21880E792E00E940F272A
:103970008DE792E00E94D90B89E992E00E94B62877
:103980008EE992E00E94AB1588EB91E09093A20241
:103990008093A1021092A3021092A4021092A50299
:1039A0008CE38093A6028093A70280E8E8EAF2E025
:1039B000DF011D928A95E9F786E08093280381E074
:1039C000809331038EE89BE10E94EB2983EE91E026
:1039D0009D838C8380912903811149C0E4E8F1E043
:1039E00028E831E01082C9010397DC011C921382A0
:1039F0001282D9011C9235962B5F3F4FB1E0E23A1B
:103A0000FB0781F762EA71E0A8EAB1E044E680EDE5
:103A100097E0FB0110829D0125503109F9011082C8
:103A20002F5F3F4FF9011082FB01148213822D5F3B
:103A30003F4FF90110824C93FB0190878783675FAA
:103A40007F4F1996F1E0683D7F0719F788ED91E007
:103A50000E940B188DED91E00E940B181092E2016C
:103A600081E08093290382E99BE10E94EB2982E8AF
:103A700091E09F838E83BE016E5F7F4F8C819D811D
:103A80000E94EF21BE018E819F81DF91CF910C9426
:103A9000A4232DE131E0FC013183208321E331E0D7
:103AA000338322830895CF93DF93EC016FE370E0BB
:103AB0008E819F810E9420268E819F81FC01EA5A7F
:103AC000FF4F21E02083359620830E9449258C8179
:103AD0009D810E9417218E819F810E943F2688230D
:103AE00021F08C819D810E94601F67E08C819D8107
:103AF0000E94EC20EE81FF81E35BFF4F60818C81AF
:103B00009D81DF91CF910C9408210F931F93CF9348
:103B1000DF938C01DC011496ED91FC911597C6851D
:103B2000D785DF706689828993890E94270A4D2F85
:103B300050E0BA0163707727F80126813781672B3F
:103B400039F48D1748F0F901E55AFF4F83E014C0AE
:103B5000D0FD0CC08D1728F0F901E55AFF4F82E027
:103B60000BC0F901E55AFF4F108207C08D17C8F34B
:103B7000F901E55AFF4F81E08083DF91CF911F91DA
:103B80000F9108951F93CF93DF93EC01162F8E8131
:103B90009F810E94E925612F8E819F810E946E2561
:103BA000612F8E819F810E94A025612F8E819F8130
:103BB0000E942225CE010E94851D8E819F810E9438
:103BC0004925612F8C819D81DF91CF911F910C94AC
:103BD000EF1F02970C94841B089502970C94961B78
:103BE0000895089508950895089508958E539F4F58
:103BF000FC01608308950F931F93CF93DF93EC0133
:103C00008C010A5F1F4FC8010E943C1940E056E03A
:103C100060E070E0C8010E945C19CC54DF4F8881DD
:103C20009981DF91CF911F910F910C943628FC015F
:103C30006F34B9F168F4613139F128F46130B1F0D1
:103C40006031D1F00895673439F16A3409F108958B
:103C50006D35B1F128F46B35D9F16C3569F1089502
:103C60006F35B1F188F16B37B9F10895242F30E049
:103C70003595279543E013C0242F220F42E060E0E2
:103C8000828993890C94780A242F220F45E0F7CF7C
:103C9000242F220F41E0F3CF242F220F41E061E0D7
:103CA000EFCF50E083E0559547958A95E1F765E0C1
:103CB000828993890C94FC09242F220F44E0DFCFE2
:103CC000242F220F43E0DBCF242F220F42E0E7CF47
:103CD000242F220F45E0E3CF808991890C94521A5A
:103CE000362F622F4230B9F128F4442359F0413085
:103CF00049F10895443009F440C0B0F1453009F469
:103D000047C00895311104C0DC01D9962C93089561
:103D1000FC01ED53FF4F2081DC01A20FB11DAB531D
:103D2000BF4F2C9166956695685E6083319660837F
:103D30002223D9F1DC01ED91FC910190F081E02D7D
:103D40004FE70994FC01311103C0E85BFF4F25C028
:103D5000E55BFF4F22C0311103C0CA960C94170DCA
:103D600086569F4F0C94F40B311103C0CA960C94E5
:103D7000330D86569F4F0C94100CFC01311102C07C
:103D800020AF0895E454FF4F0190F081E02D05C06D
:103D9000FC01311104C0E554FF4F60830895E754DE
:103DA000FF4F808191810C94011808950F931F9308
:103DB000CF93DF93EC018BE391E0998388838BE5CC
:103DC00091E09B838A8381E691E09D838C830C89BB
:103DD0001D890115110531F0C8010E94E708C801CD
:103DE0000E94022A0A8D1B8D0115110531F0C801B0
:103DF0000E942607C8010E94022A0A891B89011510
:103E0000110531F0C8010E94F409C8010E94022A7C
:103E1000088919890115110531F0C8010E94421A5B
:103E2000C8010E94022AFE01E754FF4F0081118160
:103E30000115110531F0C8010E94D416C8010E9475
:103E4000022AFE01EC54FF4F00811181011511057A
:103E500031F0C8010E941828C8010E94022ACE0130
:103E600085549F4F0E94AE15CE018A549F4F0E94E9
:103E7000BC28CE0186569F4F0E94F30BCE0183577C
:103E80009F4F0E942027CE018B579F4F0E94F01812
:103E9000CE01CA960E94D90CCE01C8960E94920605
:103EA000CE018A960E940716CE014C960E940716F4
:103EB000CE010696DF91CF911F910F910C943B1983
:103EC000CF93DF93EC0140E060E08A899B890E94F8
:103ED000FC0941E061E08A899B890E94FC0941E07C
:103EE00062E08A899B890E94FC0942E063E08A893A
:103EF0009B890E94FC0940E064E08A899B890E94BA
:103F0000FC0945E065E08A899B890E94FC0940E044
:103F100066E08A899B890E94FC0941E067E08A8902
:103F20009B890E94FC0946E068E08A899B890E947F
:103F3000FC092FEF41E060E08A899B890E94780AA2
:103F40002FEF42E060E08A899B890E94780A20E096
:103F500043E060E08A899B890E94780A20E044E07F
:103F600060E08A899B890E94780A20E045E060E051
:103F70008A899B890E94780A2FEF40E060E08A8955
:103F80009B890E94780A2CE841E061E08A899B893C
:103F90000E94780A20E042E061E08A899B890E94C1
:103FA000780A20E043E061E08A899B890E94780AD0
:103FB00020E044E061E08A899B890E94780A20E041
:103FC00045E061E08A899B890E94780A2CE340E001
:103FD00061E08A899B89DF91CF910C94780A8F9256
:103FE0009F92AF92BF92CF92DF92EF92FF920F9388
:103FF0001F93CF93DF9300D01F92CDB7DEB77C0124
:10400000962EDC0150968D919C915197FC01248154
:1040100087010A5F1F4F222319F00E94431A682F5D
:10402000C8010E94C319D7011E966D917C911F97FC
:10403000C7018B579F4F0E940619F7016685778548
:10404000EC54FF4F808191810E943C286701FCE184
:10405000CF0ED11C692DC6010E945E16692D570135
:104060008AE2A80EB11CC5010E945E16F701E65750
:10407000FF4F1081C5010E942016882ED7015A9645
:10408000ED91FC915B974081518162817381082F92
:10409000212F5701BAE3AB0EB11CC5010E942013BA
:1040A000692DC70183579F4F0E946A27F701EF567A
:1040B000FF4F20813181BD963183208378973183F2
:1040C00020837C962081482D612FC70186569F4F03
:1040D0000E942C0CF701E855FF4F4081518160E0B0
:1040E00070E023E0440F551F661F771F2A95D1F714
:1040F000F701828D938D0E94980760E2CE010196B0
:104100000E940929BE016F5F7F4FD70154968D91A0
:104110009C9155970E94F908212F40E0BE016F5FE6
:104120007F4FF701E454FF4F808191810E94AE27B9
:10413000BE016F5F7F4FC5010E94F514F70180A596
:10414000E754FF4F811105C0808191810E94F217D1
:1041500009C0212F40E0BE016F5F7F4F80819181B8
:104160000E941A17BE016F5F7F4FC7018A549F4F8D
:104170000E94D128BE016F5F7F4FC70185549F4FBA
:104180000E94AF15C6010E942016212F482FBE01A4
:104190006F5F7F4FC701C8960E949306BE016F5F95
:1041A0007F4FD7015A968D919C915B970E9435085D
:1041B000CE0101960E9418290F900F900F90DF9169
:1041C000CF911F910F91FF90EF90DF90CF90BF9014
:1041D000AF909F908F9008950F931F93CF93DF938D
:1041E000EC016E8BE88DF98D0190F081E02D00815E
:1041F00011818A899B890E94270A20E0482F6E89B5
:10420000888D998DF801DF91CF911F910F910994BD
:10421000DC0157966C93579758968D919C915997BE
:10422000DC01ED91FC910280F381E02D0994CF93A4
:10423000DF93EC018A8D9B8D0E94450760E08889A1
:1042400099890E944B1A60E08A899B890E94EC0A36
:1042500060E0CE010E94EC2060E0CE01DF91CF91C2
:104260000C940821CF93DF93EC01E62FF0E0EE0FE2
:10427000FF1FEC53F64F6591749183579F4F0E9437
:104280005027CE014C960E944E16CE018A96DF91A1
:10429000CF910C944E16CF93DF93FC01E60FF11DE6
:1042A000EB53FF4F2081211119C0DC01A054BF4FF7
:1042B0002C91EC01CF53DF4F28832F5F2C9321E00B
:1042C0002083FC01EC54FF4F0190F081E02D22810E
:1042D000211104C0DF91CF910C943221DF91CF9155
:1042E0000895CF93DF93EC014C960E945816CE01AF
:1042F0008A96DF91CF910C945816CF93DF93FC01EF
:10430000E60FF11DEB53FF4F20812223D1F0DC019A
:10431000A054BF4F2C91EC01CF53DF4F2883215085
:104320002C93108221110DC0FC01EC54FF4F019021
:10433000F081E02D2281211104C0DF91CF910C94F6
:104340007121DF91CF9108950F931F93CF93DF9346
:104350001F92CDB7DEB78C01603849F04034E1F0F0
:1043600049830E9471214981403829F415C04038A1
:1043700099F0403489F0642F6F73F801EC53FF4FCC
:104380008081680F67FD08C0C8010F90DF91CF9151
:104390001F910F910C9432210F90DF91CF911F91BB
:1043A0000F910895CF93DF93EC01FC01EB5BFE4F7F
:1043B00060838AE0689F90011124245C3F4F40E0B5
:1043C00050E060E078E98AE390E00E94F02DBA01C5
:1043D000A901CE010696DF91CF910C945C190F9341
:1043E0001F93CF93DF93EC01798F688F88E190E082
:1043F0000E94FE298C01BE016C5F7F4F0E94D8098C
:104400001B8B0A8B88E090E00E94FE298C0140E61D
:1044100051E060E20E94AB091D8B0C8B85E090E0BF
:104420000E94FE298C0160E20E9408081B8F0A8FFF
:104430008BE090E00E94FE298C0160E20E94F2165F
:10444000FE01E754FF4F11830083E457FF4F608163
:10445000CE010E94D2218EE890E00E94FE298C01BC
:1044600040E0BE010E94261A198B088B89E090E07B
:104470000E94FE298C01BE016E5F7F4F0E940828BA
:10448000FE01EC54FF4F1183008384E090E00E9412
:10449000FE298C0160E20E94A327C454DF4F1983D8
:1044A0000883DF91CF911F910F910895CF93DF93F0
:1044B000EC0106960E943C19FE01EB5BFE4F608109
:1044C000CE010E94D221CC54DF4F88819981DF91A7
:1044D000CF910C943628AF92BF92CF92DF92EF9299
:1044E000FF920F931F93CF93DF93EC01C62ED42E30
:1044F000062F10E00930110508F0B5C0F801E65BA1
:10450000FF4F0C94312E642F70E0FB01EC50F54FFF
:10451000E491AC89BD891296EC93FB01EC5FF44FFA
:1045200064918C899D890E94D1099DC0642FCA968F
:104530000E94DA0C98C0A42EB12CF501EC51F54F75
:10454000E491F0E0EE0FFF1FEC5AF44F6591749187
:104550008C01065D1F4FC8010E940816C5018C52D0
:10456000954F7C01FC01449150E0440F551F4C5A7B
:10457000544FFA011FC0A42EB12CF501EC51F54F98
:10458000E491F0E0EE0FFF1FEC5AF44F6591749147
:104590008C01045E1F4FC8010E940816C5018C5291
:1045A000954F7C01FC01A491B0E0AA0FBB1FAC5A4F
:1045B000B44FFD0165917491C8010E940E16F5017A
:1045C000EC53F54F249130E0220F331F2C5C344F15
:1045D000F90165917491C8010E941416F701E490E5
:1045E000EE2DF0E0EE0FFF1FEC5AF44F6591749141
:1045F000C8010E941A1637C0FC01E757FF4F4083DD
:1046000032C0642F8B579F4F0E94F1182CC08357E4
:104610009F4F8E010A541F4FF7E0F41748F0E4E172
:10462000FBE0659174910E9465276D2D660F0BC0AC
:1046300024E0429FF0011124EA50F54F65917491F6
:104640000E94652760E0C8010E94BD280CC0642F4D
:10465000FC01EC54FF4F808191810E94202803C00F
:10466000642F0E94D2218E89C81216C0888D998D20
:10467000DC01ED91FC910190F081E02D20E04D2DC9
:104680006C2DDF91CF911F910F91FF90EF90DF90F4
:10469000CF90BF90AF900994DF91CF911F910F9170
:1046A000FF90EF90DF90CF90BF90AF900895049768
:1046B0000C94701E02970C94A42104970C946B2206
:1046C0000C940A300C94F22FEF92FF920F931F93E9
:1046D000CF93DF93EC0188819981009711F00E94BC
:1046E000022A7E0186E5E80EF11CE114F10461F076
:1046F0008E01005A1F4F0E151F0531F0055011098C
:10470000C8010E941218F7CF8E01005E1F4F51F0B2
:10471000E016F10639F089E0E81AF108C7010E94B5
:104720007C28F6CF229649F00C171D0731F0055072
:104730001109C8010E94F906F7CFDF91CF911F91AF
:104740000F91FF90EF9008958F929F92AF92BF923A
:10475000CF92DF92EF92FF920F931F93CF93DF934D
:10476000CDB7DEB729970FB6F894DEBF0FBECDBF29
:104770008C01FC0171836083F894C12CD12CE12C55
:10478000F12C67E8A62E75E0B72EE0927C008091B0
:104790007C00806480937C0080917C0080628093A8
:1047A0007C00A0927A0080917A00806480937A00E5
:1047B00080917A0086FDFCCF60917900F701E65C7C
:1047C000FC4F6083CE0101960E94F206D801AC0D29
:1047D000BD1DFE01319612968B2D01900D928A958A
:1047E000E1F7CE0101960E94F906FFEFEF1AFF0AEA
:1047F00025E0C20ED11C86E0E816F10431F61092D5
:104800007C0080917C00806480937C0080917C009F
:10481000806280937C008FE880937A0080917A0098
:10482000806480937A0052985A9825982D982498FD
:104830002C982098289857985F9854985C98219ABB
:104840002998239A2B98229A2A98559A5D98569AD5
:104850005E98539A5B98B3B089B0E82CF12CC701ED
:104860009595879595958795E82FE170AE2E40ED4B
:1048700057E06E2FCE0101960E94702889E0FE015C
:104880003196D801909601900D928A95E1F7CE016C
:1048900001960E947C2889E1F80186A3CB2CD12CBB
:1048A000C60135E0959587953A95E1F7F82FF170B7
:1048B0009F2E40ED57E06F2FCE0101960E94702889
:1048C00089E0FE013196D801999601900D928A9562
:1048D000E1F7CE0101960E947C28C60144E095953F
:1048E00087954A95E1F7282F2170C22E40ED57E0B9
:1048F000622FCE0101960E94702889E0FE01319658
:10490000D801D29601900D928A95E1F7CE010196D9
:104910000E947C288B2D8170B82E40ED57E0682FC7
:10492000CE0101960E94702889E0FE013196D801DF
:10493000DB9601900D928A95E1F7CE0101960E94D7
:104940007C28D82CDD1CDD24DD1C40ED57E06D2DCE
:10495000CE0101960E947028D801AC5BBF4F89E060
:10496000FE01319601900D928A95E1F7CE010196F4
:104970000E947C28C70154E0959587955A95E1F7E8
:10498000E82FE170EE2E40ED57E06E2FCE0101963C
:104990000E947028D801A35BBF4F89E0FE013196C9
:1049A00001900D928A95E1F7CE0101960E947C2834
:1049B000A092400390924103C0924203B0924303FD
:1049C000D0924403E092450380916B008062809313
:1049D0006B0080916B00806180936B0080916B0015
:1049E000816080936B00D89A809168008160809389
:1049F000680080916D00846080936D0080916D00EF
:104A0000806880936D0080916D00806180936D005F
:104A1000DA9A80916800846080936800789429967F
:104A20000FB6F894DEBF0FBECDBFDF91CF911F91BF
:104A30000F91FF90EF90DF90CF90BF90AF909F903D
:104A40008F9008951F93CF93DF93EC01FC01E05A00
:104A5000FF4F8081680F608310E08081803120F0FB
:104A6000805180831F5FF9CF112379F0612FCE0130
:104A70008A5A9F4F0E94A718612FCE01855A9F4FD7
:104A8000DF91CF911F910C94A718DF91CF911F91C7
:104A90000895FC01EA5AFF4F208120FF02C0299AA5
:104AA00001C02998208121FF02C02B9A01C02B98B8
:104AB000208122FF02C02A9A01C02A98FC01E55AEF
:104AC000FF4F808180FF02C05D9A01C05D988081A8
:104AD00081FF02C05E9A08955E980895DF92EF927A
:104AE000FF920F931F93CF93DF937C01D62EEC019F
:104AF000229600E010E0F801E65CFC4F80818C8398
:104B00006D2DCE010E94FA06882361F0D7018D91A8
:104B10009C91DC01ED91FC910480F581E02D4C81AC
:104B2000602F09950F5F1F4F25960630110519F765
:104B3000DF91CF911F910F91FF90EF90DF9008953B
:104B4000CF92DF92EF92FF920F931F93CF93DF9359
:104B50007C01D62E8C01005E1F4FC0E0D0E0CC2E31
:104B6000FE01E05CFC4F8081D8018C936D2DC80163
:104B70000E947D28882359F0F70180819181DC0112
:104B8000ED91FC910280F381E02D6C2F09956D2D44
:104B9000C8010E949428882369F0F70180819181DF
:104BA000DC01ED91FC910190F081E02DD8014C9158
:104BB0006C2D09952196075F1F4FC630D10579F6F8
:104BC000DF91CF911F910F91FF90EF90DF90CF90E9
:104BD00008951F93CF93DF93EC0110E48091470376
:104BE0008F5F8F7390914803891312C080914603A1
:104BF000882311F18881998160914603DC01ED9150
:104C0000FC910084F185E02D09951092460314C0B3
:104C10008093470388819981E0914703F0E0E75B47
:104C2000FC4F6081DC01ED91FC910680F781E02D65
:104C30000995115099F6DACFDF91CF911F91089520
:104C4000E0ECF0E08081826080837093C500609327
:104C5000C400E1ECF0E08081806180838081886025
:104C6000808380818068808380818F7D80830895A8
:104C70008091C00085FFFCCF6093C60008958FEF40
:104C800093E00E94023091E08F3709F490E0892F81
:104C90000895662311F060E001C06FE78FEF93E0A5
:104CA0000C941A301F920F920FB60F9211248F930B
:104CB000EF93FF93E0913903F0E080917900E65C97
:104CC000FC4F8083809139038F5F809339038091FB
:104CD0003903863010F010923903809139038093A4
:104CE0007C0080917C00806480937C0080917C00BB
:104CF000806280937C008FE880937A0080917A00B4
:104D0000806480937A00FF91EF918F910F900FBE96
:104D10000F901F9018951F920F920FB60F921124AB
:104D20002F933F934F938F939F9343B1842F90E0A2
:104D30009C01689414F8359527951694E1F7217035
:104D40002093410324E0959587952A95E1F781709A
:104D5000809342034170409343039F918F914F9101
:104D60003F912F910F900FBE0F901F9018951F929B
:104D70000F920FB60F9211242F933F934F938F935F
:104D80009F9349B1842F90E09C01359527953595E7
:104D90002795217020934003441F4427441F4093CC
:104DA000440324E0959587952A95E1F781708093D7
:104DB00045039F918F914F913F912F910F900FBE7F
:104DC0000F901F9018951F920F920FB60F921124FB
:104DD0002F938F939F93EF93FF938091C0009091B7
:104DE000C600809148038F5F8F7320914703821321
:104DF00004C084E08093460308C0E0914803F0E0DB
:104E0000E75BFC4F908380934803FF91EF919F9164
:104E10008F912F910F900FBE0F901F901895FC014E
:104E200088EB91E09183808393838283958384834D
:104E300016821086178212861186148613860895AC
:104E40000895CF93DF93EC01AF81B885109719F4E3
:104E50001A86198622C08E818823E9F048815981FB
:104E60008A819B81EC81FD818417950738F49A0132
:104E70002E1B3F0B0E94372E9F0106C09F01241B53
:104E8000350B0E94372E9A0140E050E00E94F02D31
:104E90003A87298702C0BA87A987DF91CF91089501
:104EA000FC01808191816817790771F08481958177
:104EB0006817790749F0718360839383828314862E
:104EC0001386CF010C9421270895FC017087678316
:104ED0000C9421270F931F93CF93DF93EC018C81C8
:104EE0009D81288139818217930709F1E985FA8527
:104EF0003097D1F0AB85BC85A60FB11DBC87AB87C1
:104F0000EA17FB0788F00A811B8140E050E0201B74
:104F1000310B410951090E94462E9F0140E050E0AB
:104F20000E94122E200F311F3D832C8307C02A813F
:104F30003B812817390711F09B838A83DF91CF913A
:104F40001F910F910895FC0110821182638370E01C
:104F500080E091E00E94DC2D628308950F931F93FF
:104F6000CF93DF93FC01EB018081A181811103C00C
:104F7000AA2309F448C0332727FD309521583F4F15
:104F800090E00196289F8001299F100D389F100DF9
:104F900011240281812F602F0E94D02D182F5527B8
:104FA00047FD509557FF03C0519541955109B0E019
:104FB00011964A9FC0014B9F900D5A9F900D11244E
:104FC000880F892F881F990B9195602F0E94D02DF3
:104FD0006381282F30E0210F311D462F50E042170A
:104FE000530714F0612F680F80E090E0861758F4A3
:104FF00029813A812115310521F0F901E80FF91FC6
:1050000010820196F3CFDF91CF911F910F910895F8
:10501000FC01128282E0838381E090E095838483A7
:1050200088E08683178280E8808771836083089593
:10503000FC0180819181009711F00C94022A08955F
:10504000CF93DF93EC016A8361110DC08881998150
:10505000DC01ED91FC910190F081E02D40E8688544
:10506000099580E88887DF91CF91089520E1FC01C0
:10507000278320E8208708950F931F93CF93DF9312
:10508000EC019B01EA81EE2331F1AC81BD810E94EC
:10509000372E0E8004C096958795779567950A946C
:1050A000D2F7162F1F708F811817A9F080E1E89FA3
:1050B000F0011124E10FF11DEC58F44F04918881A7
:1050C0009981FC01A081B181ED91FC91402F68850F
:1050D000099508871F83DF91CF911F910F91089544
:1050E000FC01118214821382158284E68683608318
:1050F00062835087478308950895FC0140814130C1
:1051000011F080E0089583819481860F911D94832E
:105110008383278130858217930798F385818111D6
:10512000F0CF458381E00895FC0191818681981735
:1051300010F4960F918391819817B0F0908122819D
:10514000921791F0913039F421110AC01482138220
:10515000158281E006C0911103C081E0213009F081
:1051600080E092831182089580E00895FC0110820E
:1051700081E08183128208950895FC0162836111A8
:1051800003C0108281E00BC0862F83708C5F808308
:105190006695669581E001C0880F6A95EAF781837C
:1051A00008950F931F93CF93DF93DC01FB0110E071
:1051B0008081181748F511966C911197812F0E94E4
:1051C000D02D21813281911116C02115310521F098
:1051D000E901C10FD11D08818C91402F552747FD52
:1051E0005095082E02C0559547950A94E2F701C0E4
:1051F000440F8A95EAF72115310521F0210F311D61
:10520000E90148831F5FD4CFDF91CF911F910F91A8
:105210000895CF93DF93EC011A8219826883862F59
:1052200090E00E94002A9A838983DF91CF910895AC
:10523000FC0181819281009711F00C94042A089559
:105240000F931F93CF93DF93EC018B0168177907BE
:1052500021F189819A81009711F00E94042AD801D6
:105260008C9188838C9190E00E94002A9A83898394
:1052700020E08881281788F4822F90E0D8011196C9
:10528000ED91FC911297E80FF91F3081E981FA81C5
:10529000E80FF91F30832F5FECCFCE01DF91CF9164
:1052A0001F910F910895DC011196ED91FC911297D9
:1052B000108208951F920F920FB60F9211242F9310
:1052C0003F938F939F93AF93BF9380918A03909165
:1052D0008B03A0918C03B0918D033091890323E05F
:1052E000230F2D3720F40196A11DB11D05C026E81E
:1052F000230F0296A11DB11D2093890380938A0379
:1053000090938B03A0938C03B0938D0380918E03B5
:1053100090918F03A0919003B09191030196A11DEC
:10532000B11D80938E0390938F03A0939003B0934D
:105330009103BF91AF919F918F913F912F910F90CA
:105340000FBE0F901F9018952FB7F89460918A03A5
:1053500070918B0380918C0390918D032FBF0895E2
:10536000789484B5826084BD84B5816084BD85B540
:10537000826085BD85B5816085BDEEE6F0E0808107
:1053800081608083E1E8F0E0108280818260808328
:10539000808181608083E0E8F0E0808181608083AB
:1053A000E1EBF0E0808184608083E0EBF0E08081DD
:1053B00081608083EAE7F0E080818460808380817F
:1053C0008260808380818160808380818068808327
:1053D0001092C100089580E090E0089508950E9421
:1053E000B0290E94EE290E946606C0E0D0E00E942B
:1053F0006A062097E1F30E940000F9CF0C946D2E0D
:105400000C946D2E0C94052F0C94052F5058BB272F
:10541000AA270ED0CEC197D130F09CD120F031F424
:105420009F3F11F41EF467C10EF4E095E7FB5DC1E8
:10543000E92FE1D180F3BA17620773078407950754
:1054400018F071F49EF5F9C10EF4E0950B2EBA2F09
:10545000A02D0B01B90190010C01CA01A00111247A
:10546000FF27591B99F0593F50F4503E68F11A1626
:10547000F040A22F232F342F4427585FF3CF4695B7
:1054800037952795A795F0405395C9F77EF41F16D9
:10549000BA0B620B730B840BBAF09150A1F0FF0FA3
:1054A000BB1F661F771F881FC2F70EC0BA0F621F8F
:1054B000731F841F48F4879577956795B795F7957F
:1054C0009E3F08F0B3CF9395880F08F09927EE0F11
:1054D00097958795089546D1E3957CC10CD069C115
:1054E00039D140F030D130F021F45F3F19F0FDC0E8
:1054F0005111A4C100C17FD198F39923C9F3552359
:10550000B1F3951B550BBB27AA27621773078407B6
:1055100038F09F5F5F4F220F331F441FAA1FA9F36C
:1055200033D00E2E3AF0E0E830D091505040E6955E
:10553000001CCAF729D0FE2F27D0660F771F881FBF
:10554000BB1F261737074807AB07B0E809F0BB0BAE
:10555000802DBF01FF2793585F4F2AF09E3F5105D2
:1055600068F0C3C06BC15F3FECF3983EDCF38695F7
:1055700077956795B795F7959F5FC9F7880F911D48
:105580009695879597F90895E1E0660F771F881F34
:10559000BB1F621773078407BA0720F0621B730BE7
:1055A000840BBA0BEE1F88F7E095089519F40EF0FE
:1055B0009CC043C1A0C027D1C8F39638C0F707F8F4
:1055C0000F92E8942BE33AEA48EB5FE7BBD10F92E6
:1055D0000F920F924DB75EB70F9273D1E6EAF0E0EB
:1055E0008DD04F915F91EF91FF91E595EE1FFF1FD9
:1055F00049F0FE57E0684427EE0F441FFA95E1F7A3
:105600004195550B2AD10F9007FE1EC1089504D075
:105610006894B11113C10895F6D088F09F5790F0A7
:10562000B92F9927B751A0F0D1F0660F771F881FC7
:10563000991F1AF0BA95C9F712C0B13081F0FDD0A8
:10564000B1E00895FAC0672F782F8827B85F39F046
:10565000B93FCCF3869577956795B395D9F73EF426
:1056600090958095709561957F4F8F4F9F4F0895CE
:10567000E89409C097FB3EF49095809570956195EC
:105680007F4F8F4F9F4F9923A9F0F92F96E9BB27A2
:105690009395F695879577956795B795F111F8CF1E
:1056A000FAF4BB0F11F460FF1BC06F5F7F4F8F4F89
:1056B0009F4F16C0882311F096E911C0772321F07F
:1056C0009EE8872F762F05C0662371F096E8862F17
:1056D00070E060E02AF09A95660F771F881FDAF76E
:1056E000880F9695879597F9089597F99F6780E8B1
:1056F00070E060E008959FEF80EC0895DF93CF9312
:105700001F930F93FF92EF92DF927B018C016894BD
:1057100005C0DA2EEF0114D1FE01E894A591259180
:10572000359145915591AEF3EF0182DEFE0197016F
:10573000A801DA9479F7DF90EF90FF900F911F9115
:10574000CF91DF91089500240A94161617061806C3
:105750000906089500240A94121613061406050675
:105760000895C9CF50D0E8F3E894E0E0BB279F57F5
:10577000F0F02AED3FE049EC06C0EE0FBB0F661FCC
:10578000771F881F28F0B23A62077307840728F052
:10579000B25A620B730B840BE3959A9572F78038BB
:1057A00030F49A95BB0F661F771F881FD2F7904879
:1057B000C3C1092E0394000C11F4882352F0BB0FCF
:1057C00040F4BF2B11F460FF04C06F5F7F4F8F4F19
:1057D0009F4F0895EF93E0FF06C0A2EA2AED3FE055
:1057E00049EC5FEB25DEE5DF0F90039401FC905858
:1057F000EEECF0E0B4C157FD9058440F551F59F03E
:105800005F3F71F04795880F97FB991F61F09F3FAD
:1058100079F087950895121613061406551FF2CFD6
:105820004695F1DF08C0161617061806991FF1CF26
:1058300086957105610508940895E894BB2766274D
:105840007727CB0197F908959B01AC0160E070E0E8
:1058500080E89FE343CE49CF6DC1D5DFE8F39923BC
:10586000D9F3940F511DBBF39150504094F059F06F
:10587000882332F0660F771F881F91505040C1F780
:105880009E3F510544F7880F911D9695879597F98E
:1058900008955F3FACF0983E9CF0BB2786957795C6
:1058A0006795B79508F4B1609395C1F7BB0F58F7AA
:1058B00011F460FFE8CF6F5F7F4F8F4F9F4FE3CFB3
:1058C000BDCFFA01DC01AA0FBB1F9B01AC01BF5782
:1058D00028F422273327442750781FC0B75188F473
:1058E000AB2F0024469537952795011CA395D2F33D
:1058F000002069F0220F331F441FB395DAF30DD057
:1059000085CD61307105A0E88A07B94630F49B0166
:10591000AC016627772788279078309621F020837E
:1059200031834283538308950BD043CF0CDF28F09B
:1059300011DF18F0952309F0D8CEDDCE11247ECFEB
:105940005ADFA0F3959FD1F3950F50E0551F629F4A
:10595000F001729FBB27F00DB11D639FAA27F00DC8
:10596000B11DAA1F649F6627B00DA11D661F829FEF
:105970002227B00DA11D621F739FB00DA11D621FD4
:10598000839FA00D611D221F749F3327A00D611DF1
:10599000231F849F600D211D822F762F6A2F1124D3
:1059A0009F5750408AF0E1F088234AF0EE0FFF1F26
:1059B000BB1F661F771F881F91505040A9F79E3F5D
:1059C000510570F092CE3ACF5F3FECF3983EDCF396
:1059D000869577956795B795F795E7959F5FC1F79A
:1059E000FE2B880F911D9695879597F908950BDFEB
:1059F000E0F09E37D8F09639B8F49E3848F4672F17
:105A0000782F8827985FF9CF869577956795939536
:105A10009539D0F3B62FB1706B0F711D811D20F435
:105A200087957795679593956AC084C007CF9F93B4
:105A300099DE0F9007FCEE5FCDCE11F40EF45BCE35
:105A400079C0E1DED0F39923D9F3CEF39F57550BFC
:105A500087FF7ED00024A0E640EA9001805856954A
:105A6000979528F4805C660F771F881F20F0261713
:105A70003707480730F4621B730B840B2029312948
:105A80004A2BA69517940794202531254A2758F7C5
:105A9000660F771F881F20F026173707480730F456
:105AA000620B730B840B200D311D411DA09581F7F6
:105AB000B901842F9158880F969587950895DF93A3
:105AC000D92F50DEE695D7952AED3FE049E45FE314
:105AD000B33A6207730784079507D7952AF0A2EABD
